:020000040800F2
:10000000F81E002029C20008C5BF0008C7BF0008AD
:10001000C9BF0008CBBF0008CDBF0008000000002A
:10002000000000000000000000000000BB520008BB
:10003000CFBF00080000000075520008D1BF0008C3
:1000400081C2000885C2000889C200088DC200086C
:1000500091C2000895C2000899C200089DC200081C
:10006000A1C20008A5C20008A9C20008ADC20008CC
:10007000DFBF0008B1C20008E5BF0008B5C2000834
:10008000B9C20008EBBF0008BDC20008C1C2000829
:10009000C5C20008C9C20008CDC20008D1C200080C
:1000A000D5C20008D9C20008DDC20008E1C20008BC
:1000B000E5C20008E9C20008EDC20008F1C200086C
:1000C000F5C20008F9C20008FDC2000801C300081B
:1000D00005C30008F1BF000807C000081DC00008E4
:1000E00009C300080DC3000811C300084FF4E072F3
:1000F00010440268914203D343681A44914202D3E8
:1001000080680028F5D17047DFF85C07016891B975
:100110004FF4803181604FF4805141604FF0FF31E6
:10012000C16001610421DFF844274161C2F8BC11BC
:10013000DFF83C1701600120704701F1080313F05C
:10014000070305D001F10803C3F1080303F0070317
:100150001944D21A8161C26042F001034B6011441C
:1001600028234B60DFF800170969C16170472DE94A
:10017000F84F064601F1080010F0070008BF884656
:1001800007D001F10800C0F1080000F0070001EB02
:10019000000802F1080010F0070006D002F1080084
:1001A000C0F1080000F0070002441546A5EB080066
:1001B000A0EB030908EB030B43F00300C8F80400AD
:1001C000AB4528BF01F00CFA2879C00758BF01F0F1
:1001D00007FAB9F1100F38BF01F002FAB069854291
:1001E00009D1F0684844F060C6F818B040F001004A
:1001F000CBF8040070E1706985420BD1B0684844C7
:10020000B060C6F814B040F00101CBF804104BF810
:10021000000061E1686800F00301012940F0AF804F
:10022000C008C0000190C00820283BD2D5F808A023
:10023000EF680090BD4208BF01F0D2F9554508BFF4
:1002400001F0CEF968680099C008C000B0EBC10F9A
:1002500018BF01F0C5F9009806EBC00000F12801B5
:100260008A4508D031698A45C0F08480DAF80C10DC
:10027000A94240F07F80574506D1009A306801219D
:1002800091408843306077E02830874205D030695C
:1002900087426FD3B868A8426CD1CAF80C70C7F80F
:1002A00008A069E0EF68D5F818A0AF420CD0A868A4
:1002B0003169884223D3C168A94204BFB968A94201
:1002C0001DD1C760B8601CE005F11400076837B99C
:1002D00005F110000768A7B101E00846076807F1BB
:1002E00014010A68002A02BF07F110010A68002AF7
:1002F000F3D13169884202D30021016001E001F0AD
:100300006FF9BAF1000F37D0E86906EB80004FF4BF
:100310009871084401688D4208D10760A7B9EA695D
:100320007068012191408843706025E03069824502
:1003300008D3DAF81000A84214BFCAF81470CAF83B
:10034000107001E001F04CF9B7B13069874211D368
:10035000C7F818A0296929B1814226BF39618F6188
:1003600001F03EF9686938B13169884202D3786199
:10037000876101E001F034F901980544814468681F
:100380004008400068604FEAD90549F00100CBF809
:1003900004004BF80990202D23D206EBC50000F194
:1003A0002807BA46B9F1100F38BF01F019F93068C3
:1003B00020FA05F1C90704D40121A940084330609F
:1003C00006E0B868316988422CBF824601F008F91E
:1003D000C7F808B0CAF80CB0CBF808A0CBF80C707E
:1003E0007AE05FEA192108BF002023D0B1F5803FF1
:1003F00028BF1F201ED2A1F58070000C00F008005D
:100400008140A1F58052120C02F004029140A1F546
:1004100080431B0CC0F10E0003F00203801AC01AC7
:10042000994000EBD130C11D29FA01F202F001011F
:1004300001EB400006EB80014FF498721144CBF8B9
:100440001C000022CBF81420CBF81020726822FA8E
:1004500000F3DB0707D4012303FA00F010437060B8
:10046000C1F800B01DE009681F281DBF4008C0F199
:10047000190009FA00F0484600E011464A68D2081F
:10048000D2004A4514D0C20F01EB820202F11003E0
:1004900040001A68002AF0D1306983421AD3C3F8A9
:1004A00000B0CBF81810CBF80CB0CBF808B013E0C4
:1004B00032698868914228BF90420BD3C0F80CB0D3
:1004C000C1F808B0CBF80800CBF80C100020CBF82E
:1004D000180001E001F084F808F10800BDE8E68F9B
:1004E0002DE9FA4D0546DFF88003006882B008B9AF
:1004F000FFF70AFEDFF870030299806841182F3178
:10050000401E21EA00000299814280F0A9814FF447
:10051000D8716E18B16839B132688018824280F0A3
:100520009F818142C0F09C8101F06AF800281EBFC3
:100530000446D0F8008014F1010F00F0918130687A
:10054000716840448142306038BF01467160A869DB
:1005500080BB286908B1844200D22C610020F06180
:100560003461C6F8148005F12801BF48006868624C
:100570004FF0FF3028620020C960896001F1080255
:100580004A610A61801C10312028F5D3B7488542A2
:1005900003D1A8F1280221462AE055F8040CC0082E
:1005A00005EBC000A0F1080104EB0800401AA0F11F
:1005B00028021DE04FF4E0702918084600E080682A
:1005C000D0B1026843681A449442F8D1027B120702
:1005D00012D4AA6903689A420ED347683B449A42F0
:1005E0000AD208EB07014160E868A96908EB00023C
:1005F0002846FFF7A2FD1DE128698442084638BF5E
:100600002C6104EB080100E0806880B102688A4236
:10061000FAD1017B09070AD4046041684144416072
:100620002146029B284604B0BDE8F04D9FE5AF6926
:1006300039462846FFF75AFD4FF0000B0168406825
:1006400008440190273810F0070101990EBF0020DF
:10065000C0F1080000F0070008442F3807F110012E
:10066000884234BF00970090009804F1080100F11F
:10067000180A11F00701A8F1280005D004F10801BB
:10068000C1F1080101F00701401A2144A961E860A5
:1006900040F001024A600844282242607248006922
:1006A000E8610098083010F0070018BF00F098FFCC
:1006B00000991B2048604FF4E0712944B1E80C50C8
:1006C00000980830A0E80C503461C6F81480C6F8D1
:1006D0001CB000980830B061019801E00AF1040AEA
:1006E0000721CAF804100BF1010B0AF1080181423D
:1006F000F4D3BBF1020FB8BF00F072FF0098B8420C
:1007000000F09880C01B3918C4084A68520852008B
:100710004A6040F0010179603850202C20D205EB6E
:10072000C40101F12806B046102838BF00F058FF78
:10073000286820FA04F1C90704D40121A140084324
:10074000286006E0B068296988422CBF804600F026
:1007500047FFB760C8F80C70C7F80880FE6069E012
:10076000010A23D0B1F5803F28BF1F211ED2A1F579
:100770008072120C02F008029140A1F580531B0C0C
:1007800003F004039940A1F58044240CC2F10E0249
:1007900004F00204D21A121BA14002EBD131CA1D8F
:1007A00020FA02F303F0010202EB410105EB8102A2
:1007B0004FF498731A44F96100237B613B616B68C5
:1007C00023FA01F4E40705D4012088401843686047
:1007D00017601CE012681F291DBF4908C1F11901EB
:1007E00000FA01F1014600E01A465368DB08DB001D
:1007F000834210D0CB0F02EB830303F110044900B6
:100800002368002BF0D12869844211D32760BA6194
:10081000FF60BF600EE0296990688A4228BF884265
:1008200006D3C7609760B860FA600020B86101E045
:1008300000F0D6FEE8680299814211D2401AE860C1
:10084000A969029A0A44AA6140F001005060029826
:1008500040F00300486004B001F10800BDE8F08DED
:10086000002004B0BDE8F08D48410020103B00207E
:100870006859883C2DE9F84F0446002689465FEA0E
:100880001920C9F1000B08BF002123D0B0F5803F2B
:1008900028BF1F211ED2A0F58071090C01F00801AC
:1008A0008840A0F58052120C02F004029040A0F59E
:1008B00080431B0CC1F10E0103F00203891AC91A0F
:1008C000984001EBD030C11D29FA01F202F001017C
:1008D00001EB400104EB8100D0F8300118B31F296F
:1008E0000FBF4A464A08C2F1190209FA02F2002370
:1008F00000E052004568ED08ED00A5EB09055D45F7
:1009000003D25FEA050B06460BD04569D70F00EB13
:100910008700002D00691CBF85422B460028E8D1C6
:100920001846B8BBC6BB012088404000414208437E
:100930006168084000F05D8141420840401E010BA3
:1009400001F01001C840420902F00802D0408308BB
:1009500003F00403D840450805F002055118E840AB
:100960005918C0F3400729443944F840401804EBB3
:100970008000D0F830010DE008464168C908C90080
:10098000A1EB090159453CBF8B4606460169002988
:10099000F2D140690028F0D1002E00F02A81A06831
:1009A000A0EB0900834580F0248120698642C0F0D5
:1009B0001E817068C00809EB0B08C000404518BFD5
:1009C00000F00EFE06EB0905AE4280F01081F768DC
:1009D000D6F818A0B7420CD0B0682169884223D35A
:1009E000C168B14204BFB968B1421DD1C760B860E7
:1009F0001CE006F11400076837B906F1100007681B
:100A0000A7B101E00846076807F114010A68002A47
:100A100002BF07F110010A68002AF3D12169884258
:100A200002D30021016001E000F0DAFDBAF1000F0D
:100A300039D0F06904EB80004FF4987108440168E4
:100A40008E4209D10760380014D1F2696068012133
:100A500091408843606026E02069824508D3DAF837
:100A60001000B04214BFCAF81470CAF8107001E048
:100A700000F0B6FDBFB12069874212D3C7F818A0B5
:100A8000306930B12169884226BF3861876100F042
:100A9000A7FD706938B12169884202D37861876106
:100AA00001E000F09DFDBBF1100F09D248F00300FA
:100AB000706006EB0800416841F00101416095E07B
:100AC00049F0030070604BF0010068604FEADB0002
:100AD00045F80BB020281DD204EBC00101F1280716
:100AE000216821FA00F2D207BB4605D4012202FA9E
:100AF00000F00843206006E0B868216988422CBFF6
:100B0000834600F06DFDBD60CBF80C50C5F808B011
:100B1000EF606BE05FEA1B2023D0B0F5803F28BF79
:100B20001F201ED2A0F58071090C01F00801884039
:100B3000A0F58052120C02F004029040A0F5804310
:100B40001B0CC1F10E0103F00203891AC91A984067
:100B500001EBD030C11D2BFA01F202F0010101EBD3
:100B6000400004EB80014FF498721144E8610022C8
:100B70006A612A61626822FA00F3DB0706D4012366
:100B800003FA00F0104360600D601CE009681F2844
:100B90001DBF4008C0F119000BFA00F0584600E0F4
:100BA00011464A68D208D2005A4510D0C20F01EB54
:100BB000820202F1100340001A68002AF0D1206975
:100BC000834211D31D60A961ED60AD600EE0226922
:100BD0008868914228BF904206D3C5608D60A860A6
:100BE000E9600020A86101E000F0FAFC08E100F0F3
:100BF000F7FC02E12DE9F84F04468846606841425F
:100C00000840401E010B01F01001C840420902F0EB
:100C10000802D040830803F00403D840450805F0DB
:100C200002055118E8405918C0F3400629447118CC
:100C3000F040401804EB8000D0F830014168C9084A
:100C4000C9000646A1EB080A09E008464168C90840
:100C5000C900A1EB080151453CBF8A46064601691F
:100C60000029F2D140690028F0D120698642C0F005
:100C7000C2807068C00808EB0A09C000484518BF68
:100C800000F0AEFC06EB080B5E4580F0B480F76820
:100C9000B569B7420CD0B0682169884223D3C168D6
:100CA000B14204BFB968B1421DD1C760B8601CE051
:100CB00006F11400076837B906F110000768A7B1FC
:100CC00001E00846076807F114010A68002A02BF1C
:100CD00007F110010A68002AF3D12169884202D382
:100CE0000021016001E000F07BFC002D35D0F069AF
:100CF00004EB80004FF49871084401688E4209D1DA
:100D00000760380011D1F269606801219140884381
:100D1000606022E02069854205D32869B04214BF93
:100D20006F612F6101E000F05BFCB7B12069874281
:100D300011D3BD61306930B12169884226BF386165
:100D4000876100F04DFC706938B12169884202D397
:100D50007861876101E000F043FCBAF1100F09D21D
:100D600049F00300706006EB0900416841F00101A1
:100D700041603FE048F0030070604AF00100CBF8AA
:100D800004004BF80AA0D4F808804FEAD805202DBB
:100D900028BF00F025FCB8F1000F27D0D4F814903C
:100DA000009504EBC50000F128052F46B8F1100F9F
:100DB00038BF00F015FC2068009920FA01F2D10735
:100DC00005D4009A012191400843206006E0A868FC
:100DD000216988422CBF074600F002FCC5F8089044
:100DE000C7F80C90C9F80870C9F80C50C4F808A0EE
:100DF000C4F814B004E000F0F3FB0020BDE8F28F6B
:100E000006F10800BDE8F28F2DE9F04F83B00546EA
:100E1000AFF30080F52DDFF8C04780F002810B2D85
:100E200031BF102705F10B00C708FF002068FE083E
:100E3000F04010F0030F42D0C04300F001008619CB
:100E400004EBC60000F12808F700D8F808506868DD
:100E5000C008C000B84218BF00F0C2FBD5F8089027
:100E6000454508BF00F0BCFB4D4508BF00F0B8FB8E
:100E70006868C008C000B84218BF00F0B1FBC845A0
:100E800005D120680121B140884320600DE0206930
:100E9000814508D3D9F80C00A84204D1C8F80890BD
:100EA000C9F80C8001E000F09BFB47F0030068608C
:100EB000E8190835416841F001014160F9E0A16895
:100EC000B94280F0C080002800F0A280012505FA18
:100ED00006F149004A42B0401143084041420840EF
:100EE000401E010B01F01001C840420902F0080247
:100EF000D040830803F00403D840460806F00206F9
:100F00005118F0405918C0F340087118414420FAB4
:100F100008F000EB010804EBC80000F128094FEAD3
:100F2000C80AD9F808607068C008C000504518BFEA
:100F300000F056FBD6F808B04E4508BF00F050FB55
:100F40005E4508BF00F04CFB7068C008C00050450B
:100F500018BF00F045FBD94505D1206805FA08F116
:100F6000884320600DE02069834508D3DBF80C003E
:100F7000B04204D1C9F808B0CBF80C9001E000F001
:100F80002FFB47F003007060AAEB0708F0190190EF
:100F900048F0010001994860019840F80880A7686E
:100FA0004FEAD70ABAF1200F28BF00F019FB47B368
:100FB000CDF800A004EBCA00D4F8149000F1280A80
:100FC000D346102F38BF00F00BFB2068009920FAA1
:100FD00001F2D10705D4009905FA01F10843206018
:100FE00007E0DAF80800216988422CBF834600F048
:100FF000F7FACAF80890CBF80C90C9F808B0C9F80D
:101000000CA0C4F8088006F108050198606150E062
:101010006068C0B339462046FFF7ECFD050012D0EA
:1010200047E015F1400F28BF4FF0FF370BD205F115
:101030000B00C7086068FF0028B139462046FFF75B
:1010400019FC050035D1A068B8421CD3C11B6269E8
:1010500010290AD3D0196061A16041F001034360F7
:10106000415047F0030050600AE00021A160616137
:1010700040F0030151601044416841F001014160BA
:1010800002F1080515E0E06887420DD2C01BA16996
:10109000E060CA19A26140F00100506001F108054A
:1010A00047F00300486004E039462046FFF718FA8D
:1010B0000546AFF30080284603B0BDE8F08F00B9C5
:1010C00070472DE9F047A0F10804AFF30080DFF886
:1010D000085528698442C0F07982616801F00302F2
:1010E000012A00F07382CA084FEAC208CA0704EB5B
:1010F000080937D4226811F0030F00F069825142C9
:101100000C4484429044C0F0618269698C4200F0D2
:10111000D980D608202E70D2D4F80CA0A7685445E8
:1011200008BF00F05DFABC4208BF00F059FA6068E1
:10113000C008C000B0EBC60F18BF00F051FA05EBB5
:10114000C60000F128018F4205D029698F4251D392
:10115000F968A1424ED1BA453DD128680121B1407C
:10116000884328604C4580F03182D9F80400C107DB
:1011700040F12C82810700F17D81A969894540F009
:10118000B680E868AC614044E86040F0010161600D
:1011900069698C4202D100216961A960E9698142D3
:1011A00080F01682DFF83404006808B9FEF7ACFF5F
:1011B000A969002900F00C82E868292824BF284684
:1011C000FEF794FFE869E968884280F001824FF0F9
:1011D000FF30E861FCE12830824506D0286982456D
:1011E00008D3DAF80800A04204D1C7F80CA0CAF866
:1011F0000870B7E700F0F4F9B4E7E768A669A7421A
:101200000BD0A168814222D3C868A04204BFB8684D
:10121000A0421CD1CF60B9601BE004F114010F683B
:1012200037B904F110010F689FB101E011460F6852
:1012300007F114021368002B02BF07F110021368B4
:10124000002BF3D1814202D30020086001E000F0BE
:10125000C7F9002E86D0E06905EB80004FF4987145
:10126000084401688C4209D10760380011D1E26955
:101270006868012191408843686073E72869864265
:1012800005D33069A04214BF7761376101E000F0F7
:10129000A7F9002F3FF466AF28698742AAD3BE6141
:1012A000216929B1814226BF39618F6100F098F927
:1012B000606900283FF456AF296988429AD3786163
:1012C00087614FE799F8040000F0030003287FF4DA
:1012D00049AFC5F80880D9F8040040084000C9F8B3
:1012E000040048F00100606044F8088070E169691A
:1012F000894508D1A8686C614044A86040F00101AC
:101300006160205064E1C008C0004FEAD00ABAF121
:10131000200F804437D2D9F80C70D9F80860B9454D
:1013200008BF00F05DF9B14508BF00F059F9D9F8E0
:101330000400C008C000B0EBCA0F18BF00F050F99D
:1013400005EBCA0000F128018E4207D029698E42C0
:10135000C0F08380F168494540F07F80B74206D1F4
:101360002868012101FA0AF18843286077E02830D3
:10137000874205D0286987426FD3B86848456CD149
:10138000F760BE606BE0D9F80C70D9F818604F4573
:101390000DD0D9F808002969884223D3C16849458E
:1013A00004BFB96849451DD1C760B8601CE009F1A8
:1013B0001400076837B909F110000768A7B101E008
:1013C0000846076807F114010A68002A02BF07F1FE
:1013D00010010A68002AF3D12969884202D300214A
:1013E000016001E000F0FCF8002E38D0D9F81C00B4
:1013F00005EB80004FF498710844016889450AD1D3
:101400000760380012D1D9F81C206868012191408A
:101410008843686023E02869864205D330694845DF
:1014200014BF7761376101E000F0DAF8BFB12869D5
:10143000874212D3BE61D9F8101029B1814226BF6C
:1014400039618F6100F0CCF8D9F8140038B12969FE
:10145000884202D37861876101E000F0C1F848F06A
:101460000100606044F80880686984420BD1C5F8C7
:101470000880ADE040084000C9F8040048F00100D1
:10148000606044F808804FEAD807202F22D205EB8D
:10149000C70000F128094E46B8F1100F38BF00F020
:1014A0009FF8286820FA07F1C90704D40121B94040
:1014B0000843286007E0D9F80800296988422CBF52
:1014C000064600F08DF8C9F80840F460A660C4F83C
:1014D0000C907DE05FEA182008BF002123D0B0F512
:1014E000803F28BF1F211ED2A0F58071090C01F09A
:1014F00008018840A0F58052120C02F004029040CE
:10150000A0F580431B0CC1F10E0103F00203891A00
:10151000C91A984001EBD030C11D28FA01F202F03F
:10152000010101EB400105EB81004FF4987210447A
:10153000002262612261E1616A6822FA01F3DB073D
:1015400006D4012303FA01F11143696004601CE031
:1015500000681F291DBF4908C1F1190108FA01F1EE
:10156000414600E010464268D208D200424510D001
:10157000CA0F00EB820202F1100349001A68002A28
:10158000F0D129698B4211D31C60A061E460A46092
:101590000EE02A698168904228BF914206D3CC6050
:1015A0008460E060A1600020A06101E000F018F814
:1015B000286A401E28620BD1D5F8C80100E0806877
:1015C0000028FCD14FF0FF30286201E000F008F85D
:1015D000AFF30080BDE8F087103B002048410020B9
:1015E000012000F023B88268521C8260426832B148
:1015F0000268531C036011704168491E41607047C6
:101600000749086808B1002070470648C008C000B4
:1016100008600549C908C900091A0160704700BF80
:10162000AC410020FF1E0020F826002080B5AFF35B
:101630000080024A11001820ABBEFBE72600020022
:1016400010B50FF26C00DFF8E44B006888B0009032
:10165000684601F098FAA06500210FF25800D0E921
:101660000023CDE9012301A801F033FB20651422FA
:1016700003A80FF2480101F0B1FB002103A801F01B
:1016800064FA04F1700001F064FC0FF2211001F023
:101690000CFFDFF89C1B087001460FF2340001F0CC
:1016A00030FF0FF2480001F02CFF08B010BD000021
:1016B000000000000800000004000000B8BF00089F
:1016C000FD160008000000000000000000010000FE
:1016D0006C6F673E204D324D20434D442070697041
:1016E000652069732025642E0D0A00006C6F673E2B
:1016F000204D324D20496E69740D0A0010B5DFF897
:101700002C4B04F17C0001F093FC04F17C0001F00F
:101710009DFC0FF2440001F0F4FE052001F02CFACC
:1017200004F17C0001F092FCA06D4FF47A7101F09D
:101730002DFA0028F1D100F0F2F800F035FA00F0AF
:10174000C8FAE06D18B102F07AF90020E065A06DEA
:1017500001F03AFAE1E700006C6F673E204D324D30
:10176000207461736B2073746172742E0D0A000013
:1017700038B5DFF8B85A044695F82000A04210D0DA
:1017800002F004FA85F8204002F019FA4CB902F090
:10179000FDF9686D40F001006865BDE8314002F078
:1017A0000EBA31BDDFF8840AC07F7047F8B5DFF8A4
:1017B0007C6A04460D46B5F5AF6FB07FC8BF4FF4E5
:1017C000AF6502281DD1A81C02F0B4F8070018D09C
:1017D0003D802A462146B81C01F0F0FA306D4FF4E6
:1017E0007A72394601F07AFA08B928B2F2BD014698
:1017F0000FF2140001F085FE384602F020F90020B7
:10180000F2BD4FF0FF30F2BD6C6F673E204D324DA0
:1018100020736F636B65742053656E64205120667E
:1018200061756C743A25640D0A0000002DE9F843D7
:10183000DFF8F8790446F87F04280D4616469946E5
:101840004FF0000814D1002C18BF002D10D0002E2E
:1018500018BFB9F1000F0BD000F00DF84B4632461F
:101860002946204600F06BFC8046B86D01F0ACF9CB
:101870004046BDE8F283B86D4FF0FF3101F086B904
:10188000F8B5044600260D46002C18BF002D0DD0DB
:10189000288858B1DFF89479FFF7EDFF29462046F4
:1018A00000F0D8FC0646B86D01F08EF93046F2BD66
:1018B000DFF87819CA7F052A18BF022A4FF0FF30D7
:1018C0000AD00020042A04BF8A7F022A04D191F89A
:1018D0005410490758BF01207047F8B5DFF83C7D28
:1018E0000446F8680D461646844201BF398A8D4287
:1018F00079698E420AD002F049F9786DFC6040F0B7
:10190000040078653D827E6102F059F9002C18BF11
:10191000002D03D0BDE8F240012029E7F1BD2DE9FB
:10192000F041DFF80849608B0B28BCBFA08B0B2867
:1019300003DA94F85400C0070FD502F027F9606D60
:1019400040084000606502F03AF900206083A083FF
:1019500000F091FA0020E07706E0E07F20B1012856
:1019600020D0032829D008E094F8200028B100F006
:1019700037FA0FF2901001F0C4FDE07F042879D10E
:1019800094F85400400731D5A07F082818BF0028DC
:1019900028D00820A07702F0F9F800F0FFF800F056
:1019A0009AFA23E000F0F1FA01280CBF042003208A
:1019B000E07700F09EFA2076DFE702F063F9216E0F
:1019C000401A47F230518842D7D302F05BF92066C3
:1019D00000F0DBFA18B9A08B401CA083CDE70420EF
:1019E000E077CDE702F0D2F800F0D8F8A07F42F21D
:1019F000107570B102283ED0032806D0072837D0D2
:101A0000082806D0092833D042E000F064FA00200C
:101A1000A07702F037F9E6686066002E5AD0278A70
:101A2000380053D00FF6140800F021FA3B46324636
:101A30000FF2F401012002F09BF929460FF2101079
:101A400000F064FC98B10FF2EC750FF2141200F084
:101A5000F9FB00F009FA0FF2141200F0F3FB00F0AA
:101A600003FA0FF2201200F0EDFB00F0FDF926E082
:101A700000F016FA26E002F005F9A16E401AA8421D
:101A800022D302F0FFF8A06600F033FA207616E0C9
:101A900002F0F8F8616E401A44F62061884203D3E0
:101AA00000F0FEF90820A07702F0ECF8A16E401AD1
:101AB00040F6B831884207D302F0E4F8A06600F09F
:101AC00034FA00E00020A077E06818B102F0DAF8FC
:101AD000E06614E002F0D6F8E16E401A4EF660219E
:101AE00088420CD3E07F50B10FF6683001F009FD59
:101AF00002F0C8F8E0660020BDE8F04138E6BDE835
:101B0000F08100006C6F673E204D324D206D6F6498
:101B1000756C6520706F776572206F6E20696E69D5
:101B2000742E0D0A0000000041542B51494F5045BE
:101B30004E3D312C302C22544350222C222573222E
:101B40002C222564222C302C302C300D0A00000071
:101B50002B51494F50454E3A20302C300D0A000091
:101B600051495357544D443D302C3100514943465F
:101B7000473D2273686F776C656E677468222C31FD
:101B80000000000051494346473D2264617461668C
:101B90006F726D6174222C312C310000606D20F069
:101BA0000400606502F00BB838B5012002F006F9B8
:101BB000040050D0411E00F009FC0A2808D1A11EE3
:101BC00000F004FC0D2803D100F004FC142803D21B
:101BD00000F000FCC8283ED340F277508442A8BFF2
:101BE0000446601C01F0A6FE050034D022462946BA
:101BF000012002F0FFF80021295428460FF67C212D
:101C0000DFF8284602F070FB10B100F08EF9A077E3
:101C100028460FF6782102F067FB08B10820A0776C
:101C200028460FF67C2102F05FFB60B1083001F01E
:101C30002DF9C0B2012816BF052804200320E07743
:101C400000F057F92076284600F006F82846BDE84F
:101C5000324001F0F4BE31BD2DE9F0410FF64C28C1
:101C6000DFF8C865DFF8C87541462CE0287850B128
:101C700015F8010B2C28F9D1287800281CBF15F87D
:101C8000010B2C28F8D1284601F000F904462878E9
:101C900000281CBF15F8010B0A28F8D1620092B287
:101CA0002946284601F06CFA3878A2B2294601F09C
:101CB000D6FC7269100002D0A1B228469047A4B2A7
:101CC00028194146401C02F00FFB0500CED1BDE8AB
:101CD000F081F0B5DFF85445A07F02288BB042D1E7
:101CE000216D0222684601F01AF8009810283AD1B6
:101CF000019D2F88380036D0A81C2ED0780001F026
:101D000019FE060029D03A463146A81C01F01CFAFB
:101D10003A460FF6AC1103A802F0FEFA03A802F04F
:101D200015FB82B203A9012001F0F8FF7A0092B2FC
:101D300000F086FC304601F082FE79000FF6941028
:101D400001F0DFFB0222B8A100F07BFC42F210712F
:101D50000FF69C1000F0DAFA10B900F0E6F8A07760
:101D6000284601F06CFE0BB0F0BD05220FF688117D
:101D7000012070B501F0D2FF0FF2C04500F02DF840
:101D8000AAA600F05CFC00F028F800F058FC00F077
:101D900024F80FF2A0460FF66812314600F098F8CA
:101DA00000F01BF80FF66012314600F091F800F0D9
:101DB00014F80FF65C12314600F08AF8C8210FF6CD
:101DC000581000F0A3FA002428B10FF6541102F0C5
:101DD0008BFA00B10124204670BD6421284695E2AB
:101DE0002DE9F041DFF84C484FF4807525604FF441
:101DF00080562660C82000F0BFFE4FF4E13101207C
:101E000002F020F826604FF08070206042F21071DE
:101E10000FF6141000F07AFA002825600FD183A77E
:101E20000322394600F00DFC0FF2104800F01CF8B8
:101E30000322394600F005FC00F019F830B1FFF735
:101E400094FF00280CBF0220012002E0256005203D
:101E50002660DFF8D813C877C87F022804BF256042
:101E600026600020BDE8F081642140464EE24FF438
:101E70007A7140464AE238B5DFF8B8574FF08070C3
:101E8000286040F6B83100F01EF8002400B10124AB
:101E90004FF4807028604FF480502860204632BD97
:101EA00010B50FF68C0200F011F842F210742146C2
:101EB0000FF6880000F02AFA18B9214600F003F85E
:101EC00000B1012010BD0FF274301FE20FF2643137
:101ED000012001F04DBF80B50FF67002FFF7F6FF4D
:101EE00042F210710FF6700000F010FA00B10120FC
:101EF00002BDCDA20FF23C31012010B501F038FF38
:101F00004FF47A710FF65C0000F000FA002450B133
:101F100000E0401C01780A0002D030390A29F8D2CA
:101F200000F0B4FF0446E0B210BD0FF640020FF21D
:101F30000431012010B501F01BFF42F210710FF6C1
:101F4000380000F0E3F90324E8B10178C1B100F0F2
:101F50006FF8FAD1017899B100F06AF8FAD10178F6
:101F600071B100F065F8FAD1017849B100F060F87C
:101F7000FAD1017800291CBF10F8011B2C29F8D1D7
:101F800000F084FF0446E0B210BD80B50FF2F47299
:101F9000FFF79CFF4FF47A710FF2047000F0B6F96E
:101FA00078B1017800291CBF10F8011B2C29F8D149
:101FB00000F06CFFC0B2012818BF052801D1012034
:101FC00002BD002002BD70B5044600264CB3974DFB
:101FD000A86D642100F0DAFD18BB0FF2B072FFF7B4
:101FE00075FFC8210FF2AC7000F090F9A8B101782C
:101FF000002909D000F01CF8F9D1017800291CBF94
:1020000010F8011B2229F8D101780A001EBF2229ED
:1020100010F8011B04F8011BF6D1A86D00F0D4FDE7
:102020000126304670BD00000D0A000041540D002D
:1020300010F8011B2C2970472DE9F04707460C4684
:1020400015460FF2F01A0FF258725146FFF740FF93
:102050000FF2E81842F210794946404600F056F96E
:102060000FF248725146FFF733FFFFF700FF0026DB
:10207000002861D00FF240725146FFF729FFFFF7A9
:10208000F6FE002858D03A460FF24071FFF720FFC5
:10209000FFF7EDFE00284FD00FF24C725146FFF7CC
:1020A00017FF43F698210FF2507000F02FF9070048
:1020B00032D0387800281CBF17F8010B2C28F8D133
:1020C000384600F0E3FEC82826D10FF23C72514694
:1020D000FFF7FEFE49460FF23C7000F017F90700CB
:1020E0001AD0387800281CBF17F8010B3A28F8D10D
:1020F0007F1C384600F0CAFE854288BF0546387806
:1021000000281CBF17F8010B0A28F8D12A463946C7
:10211000204600F053FE2E460FF204725146FFF7A0
:10212000D7FEFFF7A4FE0FF204725146FFF7D0FE70
:102130004946404600F0EAF83046BDE8F0872DE910
:10214000F0470746884691460FF2E8050FF25062C5
:102150009A4600F077F80FF2E40642F2107130462A
:1021600000F0D4F80FF2D06200F06CF800F06EF8D6
:102170000024002827D03A460FF2C861FFF7A8FED6
:1021800000F064F8F8B142460FF2CC61FFF7A0FE10
:1021900000F05CF8B8B14A460FF2CC61FFF798FE48
:1021A00000F054F878B152460FF2CC61FFF790FE80
:1021B00000F04CF838B184A20FF2D461FFF788FE2A
:1021C00000F044F808B900202CE00FF2DC6200F0C7
:1021D00039F843F6982739460FF2D46000F096F8A4
:1021E000F8B1017800291CBF10F8011B2C29F8D187
:1021F0000178302915D1017800291CBF10F8011B86
:102200002C29F8D100F042FE04000AD00FF2AC6293
:1022100000F018F800F01AF839460FF2AC6000F040
:1022200075F82046BDE8F08743535100580300205D
:10223000B041002041542B25730D0A004F4B0D0A6D
:10224000000000002946012001F092BD4FF47A7190
:1022500030465BE02DE9F8430D4680462A880FF2B0
:102260007461FFF735FE40F6B8310FF25C6000F0A4
:102270004DF8002400260700B14637D038780028F2
:102280001CBF17F8010B3A28F8D117F8010F3128B5
:102290000AD1387800281CBF17F8010B2C28F8D178
:1022A0003878312822D11FE032281FD13878002811
:1022B0001CBF17F8010B2C28F8D1384600F0E6FDBA
:1022C000044680B2002818BFB8F1000F0CD038784F
:1022D00000281CBF17F8010B0A28F8D1A4B2224627
:1022E0003946404600F06AFD0126B1462C80A4B272
:1022F00059EA040007D10FF23452FFF7E7FD42F22A
:102300001071FFF7E0FD3046BDE8F2832DE9F84F8C
:1023100004468A4601F0B6FC002683460FF2C858F0
:10232000BE4D40F2775908E0E86D414601F0DCFF10
:10233000002841D1022000F01FFC01F0A3FCA0EB1B
:102340000B00824537D3012001F038FD00280746F5
:10235000F0D000F03FF81428ECD3791E00F036F8E6
:102360000A281CBF20783E2803D000F033F8C82884
:10237000E0D34F45E86DA8BF4F4618B101F05FFBB1
:102380000020E865781C01F0D5FA0100E965D1D09C
:102390003A46012001F02EFDEE6D07460020F05573
:1023A000204601F0D3FF83B23A462146304600F082
:1023B00045FD0600B8D016B9688B401C00E000202F
:1023C00068833046BDE8F28F2F00000089B20120FB
:1023D00001F003BD012001F025BD2DE9F04782B0D9
:1023E0000020ADF800000D460FF2045955F8040F17
:1023F000494601F0C7FF8AA60FF2282870B900F0FD
:1024000023F908B9012003E0314600F020F908B9AA
:10241000FFF7AEF921680FF2E04026E0D5F800A002
:102420000FF2E8417D4C00F007F948B9A07FE17F49
:1024300004EB8000426A0FF2DC4001F062F8EBE04E
:1024400079A100F0F9F87B4F90B900F0FDF810B9D0
:102450004FF0807005E0314600F0F9F810B94FF404
:102460008070386029460FF2D04001F04AF8D3E07E
:102470000FF2DC4100F0E0F8A0B9102001F05AFAA8
:102480000446FFF7A0FD28B121460FF2D04001F02D
:1024900038F803E00FF2E44001F033F8204601F091
:1024A000CEFAB9E00FF2F44100F0C6F80028F8D1F6
:1024B000A06DFFF7E1F955F8040F0FF2E84101F0C4
:1024C00061FF30B90FF2E44001F01BF8FFF788FC20
:1024D0009FE0D5F800A00FF2F04100F0ADF830B960
:1024E0000FF2F04001F00DF8FFF7C5FC91E04FA1AD
:1024F00000F0A2F828B9FFF7FCFC01460FF2F0400B
:1025000085E04BA100F098F830B96A68FFF7DEFC6F
:1025100069680FF2F4407AE00FF20C5100F08CF889
:1025200060B96D68284601F011FF82B2294600F0BB
:1025300088F80FF2FC4000F0E4FF6AE00FF210515F
:1025400000F07AF850BBA86800F0A0FCADF80000DD
:10255000BDF8000000285CD001F0ECF9060058D06E
:10256000BDF800100FF2F04000F0CBFFBDF80020E6
:1025700068683146FFF760FDADF80000BDF8000067
:1025800040B1BDF800100020705431460FF2F44005
:1025900000F0B7FF304601F052FA3AE00FF2005176
:1025A00000F04AF848B92B69EA68A9686868FFF73B
:1025B000C6FD01460FF2F44029E00FF2185100F079
:1025C0003BF880B9686800F061FCADF8000069462E
:1025D0000020FFF73FFE0246BDF800100FF2FC405E
:1025E00000F08FFF15E0494600F026F888B96D68C5
:1025F000414600F02CF84FF4805918B1314600F0F4
:1026000026F808B9C7F8009029460FF2005000F0EC
:1026100078FFA06D00F0D8FABDE8F38758030020DA
:102620006F6666006F6E00006B6579006373710002
:102630006174000010080140504601F0A3BE03225F
:102640003146012001F06ABB2C1D41462568284611
:1026500001F098BE6C6F673E204D324D20736F6362
:102660006B6574206E6F7420757365642C20706FB9
:1026700077657220736176652E0D0A002B51494FE4
:1026800050454E3A20302C30000000002B51495567
:1026900052433A2022636C6F736564222C00000061
:1026A0002B43455245473A20000000002B51495525
:1026B00052433A202272656376222C302C000000AF
:1026C00041542B514953454E4445583D302C2564C7
:1026D0002C0000006C6F673E20686578646174614F
:1026E000206C656E3A202564200D0A0D0A0000005A
:1026F00053454E44204F4B00415445310D000000DE
:102700004346554E3D31000043455245473D32005A
:102710004350494E3F0000002B4350494E3A0000C1
:1027200052454144590000005244590D0A0000002E
:1027300043474143543D302C310000004E4F20436D
:102740004152524945520D0A000000005149434C84
:102750004F53453D30000000434C4F5345204F4BF5
:102760000D0A00002B4353513A00000051495354C5
:102770004154453D302C31002B514953544154456F
:102780003A20000043455245473F0000434E554D17
:10279000000000002B434E554D3A0D0A000000008A
:1027A00053415042523D312C3100000048545450A6
:1027B000494E495400000000485454505041524181
:1027C0003D22434944222C310000000041542B4853
:1027D000545450504152413D2255524C222C2225F6
:1027E00073220D0A000000004854545041435449DC
:1027F0004F4E3D30000000002B485454504143548C
:10280000494F4E3A0000000048545450524541444C
:10281000000000002B48545450524541443A0000F7
:10282000485454505445524D00000000534150420A
:10283000523D302C310000004654504349443D3154
:102840000000000041542B465450534552563D223F
:102850002573220D0A00000041542B465450554E5A
:102860003D222573220D0A0041542B4654505057E7
:102870003D222573220D0A0041542B4654504745F2
:10288000544E414D453D222573220D0A00000000A3
:1028900041542B465450474554504154483D2225FD
:1028A00073220D0A0000000046545053495A450057
:1028B0002B46545053495A453A000000465450475D
:1028C00045543D31000000002B4654504745543AD2
:1028D0000000000041542B4654504745543D322CD3
:1028E00025640D0A000000004552524F52000000BE
:1028F000706F7765720000006C6F673E204D324D3F
:1029000020706F7765723A25730D0A0073746174D5
:10291000757300006C6F673E204D324D20737461FB
:102920007475733A25642C20495020737461747552
:10293000733A25732E0D0A006C6F673E204D324DA1
:1029400020706F776572206B65793A25730D0A00E8
:1029500070686F6E656E756D000000006C6F673E8D
:10296000204D324D20726561642070686F6E656E17
:10297000756D207265743A25730D0A006C6F673EA1
:10298000204D324D20726561642070686F6E656EF7
:10299000756D206661696C2E0D0A00007465737494
:1029A00000000000706F7765726F6E006C6F673E9D
:1029B000204D324D207465737420706F77657220DE
:1029C0006F6E2E0D0A000000706F7765726F66667D
:1029D000000000006C6F673E204D324D207465731F
:1029E0007420706F776572206F66662E0D0A000086
:1029F0006C6F673E204D324D2074657374204353D5
:102A0000513A25642E0D0A006C6F673E204D324D01
:102A100020746573742073656E64204154203A25D8
:102A2000732E0D0A0000000073656E640000000044
:102A30006C6F673E204D324D207465737420736552
:102A40006E642064617461204F4B2E0D0A000000FB
:102A500068747470676574006C6F673E204D324D0A
:102A60002074657374204854545020676574207333
:102A7000746172742C20627566666C656E3A2564AA
:102A80002E0D0A006C6F673E2074657374206874A5
:102A90007470676574207265743A25730D0A0000BE
:102AA0006674707374617274000000006C6F673E2E
:102AB000204D324D20746573742046545020676554
:102AC00074207374617274207265743A25642E0DDB
:102AD0000A00000066747067657400006C6F673EE2
:102AE000204D324D20746573742046545020676524
:102AF000742064617461206C656E3A2025642C201A
:102B00007265743A25642E0D0A0000006C6F673EF2
:102B1000204D324D207465737420706F7765723A62
:102B200025730D0A000000000021842818BFC11C75
:102B300008467047EFF3058000B10120C0B270472E
:102B400080B501F01BFD002002BD3EB504460D46D8
:102B5000B4F90800FFF7E8FF02A9019100902B46A5
:102B600022692168606892B201F02EFC012801D030
:102B700000203EBD02983EBD80B500B9012001F0A5
:102B8000E0FC002002BD012002F03DB838B504464B
:102B9000002000900CB9802032BD002511F1010FFA
:102BA00008BF4FF0FF3500F063F838B100F05BF874
:102BB000012807D100F060F8002032BD00F04DF888
:102BC0000128F9D0FF2032BD38B500F07EF860B1A1
:102BD0006946204602F014F9012801D0FF2032BDD9
:102BE000009838B100F0D4F804E000F068F801284B
:102BF00018BFFF25284632BD10B501290DD103228B
:102C00000021012001F0D8FF040004D0002300229D
:102C1000002102F00CF8204610BD002010BD38B590
:102C20000446002000900CB9802032BD002511F12F
:102C3000010F08BF4FF0FF3500F01AF838B100F06F
:102C400012F8012807D100F017F8002032BD00F07B
:102C500004F80128F9D0FF2032BD00232A460021C4
:102C6000204602F00DB96A460021204602F0B6B9AE
:102C700001D001B10D465DE7009838B149494FF0E8
:102C800080500860BFF34F8FBFF36F8F704738B528
:102C900000F01BF860B16946204602F0B1F8012847
:102CA00001D0FF2032BD009838B100F071F804E087
:102CB00000F005F8012818BFFF25284632BD002383
:102CC00000220021204601F0B2BF002504460095F5
:102CD00030E741680068002201F06EBF32B582B073
:102CE000044600201546009005B90125FFF722FF94
:102CF00058B100236A4602A9204602F02FF80128A5
:102D00000BD1FFF7B9FF00203EBD00232A4602A9E0
:102D1000204601F08CFF0128F5D0FF203EBD7FB595
:102D200004460D460020029501900DB9802026E052
:102D3000002612F1010F039008BF4FF0FF3600F09C
:102D400023F870B103AA01A9284602F047F9012827
:102D50000CBF102000200090039888B100F018F8F4
:102D60000EE00023324601A9284602F089F8012826
:102D700008BF102003D0002E0CBF00204020009080
:102D800068460EC80EC47FBD01D002B11646D1E61A
:102D900004494FF080500860BFF34F8FBFF36F8F2F
:102DA0007047000004ED00E080B501F0DDFD012872
:102DB00003D0BDE8014000F014BF01BD62B38B0732
:102DC00008D0521E11F8013B00F8013B00F02480AE
:102DD0008B07F6D1830740F0208000BF103A07D35D
:102DE00030B4B1E83810103AA0E83810F9D230BC4D
:102DF000530724BFB1E80810A0E8081044BF51F8F9
:102E0000043B40F8043BD20724BF31F8022B20F8E2
:102E1000022B44BF0B7803707047083A07D3B1E820
:102E20000810083A40F8043B40F804CBF7D25307A7
:102E3000E4E70268531C036011707047F0B5002886
:102E400018BF002918D0140016D01C0014D000247C
:102E500001E0641C24B2D51AA5420DDB002501E077
:102E60006D1C2DB206194F5D765DBE42F1D16E1C10
:102E70009E42F5D12044F0BD0020F0BD0146002067
:102E800000291CBF084601F061BA704738B50446F6
:102E900000255CB105E014F8011B0A20303900FB65
:102EA0000515207802F072F90028F4D1284632BDC9
:102EB000B0B5054600241DB3287830280BD16878BA
:102EC000782818BF582806D1AD1C04E0A7F1570098
:102ED00000EB04146D1C2F78380010D002F056F966
:102EE00010B1A7F13000F3E7A7F14100062838BF81
:102EF000A7F13700ECD3A7F161000628E6D32046FE
:102F0000B0BD30B5FF20FF230FF2C82407E011F851
:102F1000015B6B4034F8135085EA0003280A15461C
:102F20006A1EADB2002DDBB2F1D143EA002030BD04
:102F300038B50446254600E06D1C2878010003D012
:102F400002F029F90028F7D1FFE700202870204679
:102F500032BD002100281CBF0268002A0BD0DFF818
:102F6000E0110A6812B9086004E00A469168002975
:102F7000FBD19060012108467047F0B50446DFF8A8
:102F8000C001056891B000E0641C2078010003D006
:102F900002F015F90028F7D001260094274602E038
:102FA0004DF82670761C3878B8B1102E15DA3878BE
:102FB000010008D002F003F9002818BF7F1CF6D1E9
:102FC00001E007F8010B3878010003D002F0F7F8B0
:102FD0000028F6D038780028E2D100204DF82600ED
:102FE00000E0AD685DB1012EFBDB2968204601F0F1
:102FF000C9F90028F5D16A6869463046904711B092
:10300000F0BD2DE9F04105460E464FF0FF38002790
:1030100000E07F1CBFB23C4655F8240028B1314681
:1030200001F0B0F90028F4D1A0464046BDE8F08197
:1030300044490A6812B9086070470A46824204D0BF
:1030400011690029F9D10161106170470021C16047
:103050007047002918BF002A09D0531E134206D119
:103060000160436000218160C16001207047002041
:10307000704738B504460D4600F00EF8616881428D
:1030800008D3E268206811404554E068401CE060C5
:10309000012032BD002032BDC1688068081A704727
:1030A000C16881607047F8B50D4600261746002DAF
:1030B00018BF002F044611D0FFF7EEFFB84201D22F
:1030C00007465FB1A1686268206811407F1E405CBE
:1030D000A855761CA068401CA060F2E73046F2BDFF
:1030E000F8B50D4600261746002D18BF002F0446E0
:1030F00014D0FFF7D1FF6168081A401CB84201D212
:1031000007465FB1E168626820681140AA5D4254D9
:103110007F1EE068401CE060761CF2E73046F2BD9E
:1031200070B504460D46FFF7B7FF0026854205D26D
:10313000A1686268206869181140465C304670BD1D
:10314000A0410020A441002030B5002302E05B1C18
:1031500065701BB2934212DAC45C04F00F052409B7
:103160003034E4B23A2CA8BFE41D01F813403035E6
:10317000EDB23A2D01EB4304E9DBED1DE7E730BD8D
:103180002DE9F04104460D469046002708E007EB84
:10319000D772C0B2521040EA0110A854BF1C3FB20F
:1031A000474514DAE05D02F022F8C6B2E019407833
:1031B00002F01DF8C0B23A2EACBFA6F13701A6F15D
:1031C00030013A28C9B2ACBF37383038DFE7BDE844
:1031D000F08100000000C1C081C1400101C3C003F3
:1031E000800241C201C6C006800741C70005C1C5B3
:1031F00081C4400401CCC00C800D41CD000FC1CF73
:1032000081CE400E000AC1CA81CB400B01C9C00962
:10321000800841C801D8C018801941D9001BC1DB02
:1032200081DA401A001EC1DE81DF401F01DDC01DB2
:10323000801C41DC0014C1D481D5401501D7C017D2
:10324000801641D601D2C012801341D30011C1D1E2
:1032500081D0401001F0C030803141F10033C1F322
:1032600081F240320036C1F681F7403701F5C035B2
:10327000803441F4003CC1FC81FD403D01FFC03F72
:10328000803E41FE01FAC03A803B41FB0039C1F962
:1032900081F840380028C1E881E9402901EBC02BC2
:1032A000802A41EA01EEC02E802F41EF002DC1EDB2
:1032B00081EC402C01E4C024802541E50027C1E7D2
:1032C00081E640260022C1E281E3402301E1C021E2
:1032D000802041E001A0C060806141A10063C1A3E2
:1032E00081A240620066C1A681A7406701A5C065B2
:1032F000806441A4006CC1AC81AD406D01AFC06F72
:10330000806E41AE01AAC06A806B41AB0069C1A961
:1033100081A840680078C1B881B9407901BBC07B01
:10332000807A41BA01BEC07E807F41BF007DC1BDB1
:1033300081BC407C01B4C074807541B50077C1B7D1
:1033400081B640760072C1B281B3407301B1C071E1
:10335000807041B00050C190819140510193C053A1
:10336000805241920196C056805741970055C195B1
:1033700081944054019CC05C805D419D005FC19F71
:10338000819E405E005AC19A819B405B0199C05961
:10339000805841980188C04880494189004BC18BC1
:1033A000818A404A004EC18E818F404F018DC04DB1
:1033B000804C418C0044C184818540450187C047D1
:1033C000804641860182C042804341830041C181E1
:1033D0008180404010B5DFF818440220607286B04A
:1033E000012000F0ACF84FF4807204F11C0104F1EC
:1033F0000C00FFF72EFE68460FF224511422FFF74F
:10340000EDFC00216846FFF7A0FB4FF48E702044CE
:10341000FFF79FFD0FF2F03000F073F806B010BD1B
:1034200070B50FF2FC30DFF8C86300F06AF818E0FE
:1034300000F080FA04000AD000F031F885B20020D4
:1034400060552046FFF799FD204600F0F8FAB5F5E3
:10345000807F04BF06F10C00FFF722FE0A20FFF771
:103460008BFB06F10C00FFF717FE85B2002DF5D09F
:10347000691E06F10C00FFF753FE0146681C0D297A
:1034800018BF0A29D4D07E29E1D100F053FA0400F4
:10349000DDD000F004F885B200206055D4E72A465C
:1034A000214606F10C00FFF7FEBD70B5044600F0A2
:1034B0006DFB00250026DFF83C0350F8251019B9F4
:1034C00040F825402E1D02E06D1C082DF5DB00F0B4
:1034D00076FBF0B270BD0A460146DFF81403407A6D
:1034E00029E180B50A460146DFF80C03FFF7DBFD52
:1034F00080B202BD80B5DFF80003FFF7CDFD80B2DA
:1035000002BD0EB430B504464FF4807000F012FADC
:1035100005000CD003AB00F00DF8284600F016FFB4
:1035200081B22846FFF7D7FF284600F088FA30BC62
:103530005DF810FB22464FF4807101F065BE38B58E
:10354000AB4D297A8842044603D000F01FFB2C7251
:103550000BE031BD38B5A94D29788842044603D027
:1035600000F014FB2C7000E031BDBDE8314000F0EC
:1035700026BB2DE9F04D01259D4EE8B200F01EFC62
:103580005FEA000B66D0707A85420BF1010813D117
:10359000404600F0CFF904005CD05A462146E8B21C
:1035A00000F028FC002004F80B005A462146E8B23F
:1035B00000F055F820464BE0B17AE8B2884205D1D8
:1035C00000F030FCC82828BF00242FD2E8B200F059
:1035D000F5FB8246BAF10B0F3CDBE8B200F022FCAF
:1035E000C82837D3002400E0641C544532DAA1B265
:1035F000E8B200F0F2FB7328F6D1AAEB040007282A
:10360000F2DB0027391989B2E8B200F0E6FBF05589
:103610007F1C062FF6DB0020B07130460FF21C2114
:1036200000F0B0FE0028DFD1002C13D4404600F09B
:1036300081F907000ED05A463946E8B200F0DAFBAD
:10364000002007F80B003919E8B200F032F83846CC
:1036500000F0F5F96D1C042D8FDBBDE8F08D70B521
:10366000634E1546727A90420C460DD1307A18B1ED
:1036700029462046FFF72FFF2A46214606F10C0077
:10368000BDE87040FFF72CBDBDE8704011E038B5D3
:1036900004000DD000F05AFE554D82B2687A2146E2
:1036A000FFF7DDFF687ABDE8384002224DA1D6E77A
:1036B00031BD70B504460E4606220FF280114C4D06
:1036C000304601F0BFFD002811D0A97A8C4231D1DB
:1036D0003046FFF72DFC0FF2B811304600F052FED5
:1036E000F8B96C7213220FF278111FE0761C307853
:1036F000010018BF2028F9D13078010003D020281C
:1037000008BF761CF8D03046FFF712FC0FF2781194
:10371000304600F037FE68B9AC7219220FF224115E
:1037200004E00020A87213220FF248112046BDE8E1
:10373000704000E070BD0346084611461A000CD0E8
:10374000042B04DA0A460146184600F0E7BA294A73
:1037500002EB830252F8102C1047704738B50C4624
:103760000FF2381154F8040F00F00CFE80B96568B0
:103770001DA100F045F808B9012003E01BA100F0ED
:103780003FF808B9FFF7DBFE61680FF2181025E07B
:1037900025680FF22C1100F033F838B90FF2281019
:1037A000FFF7AFFE12490220487231BD0FF234110B
:1037B00000F026F818B96068BDE8324067E70FF2FC
:1037C0002C1100F01DF860B96068FFF75FFB04463C
:1037D000C0B2FFF7BFFE21460FF21C10BDE8344017
:1037E0008FE631BD0D0A00006F6E00006F66660047
:1037F00000000020284100200C000020F2160020CC
:10380000284600F0BFBD00006C6F673E20436F6E1E
:10381000736F6C6520696E69742E0D0A00000000DC
:103820006C6F673E20436F6E736F6C6520746173BD
:103830006B2073746172742E0D0A000073797374B7
:10384000656D0000506C6561736520696E707574FC
:10385000207061737320776F72642E0D0A00000070
:10386000436F6E736F6C65206C6F67696E204F4B92
:103870002E0D0A0050617373776F72642065727247
:103880006F722E0D0A000000524F4F5400000000CE
:103890003132333435363738000000006563686FE5
:1038A000000000006C6F673E20436F6E736F6C65A5
:1038B00020736574206563686F3A25732E0D0A00C6
:1038C0006C6F676F757400006C6F673E20434D44EA
:1038D00020706970652077696C6C207265736574FF
:1038E0002E0D0A007669727475616C006C6F676CDE
:1038F0006576656C0000000077617272696E673EE4
:103900002053797374656D206C6F67206C657665E4
:103910006C2073657420746F3A25642E0D0A0000C4
:1039200078C20008213400080000000000000000F8
:10393000800000002DE9F041044600F04AFE674E89
:10394000B068002508BB06F1180306F1180213F051
:1039500007034FF4A051104605D0D01DC008C00089
:10396000C0F5A051511809180839C908C9003060BC
:103970007560B1604D600D600A1A42600160406878
:103980003061F0604FF0004070614FF05008706996
:1039900004423FD1002C3DD0083414F0070F1FBF64
:1039A00004F1080004F00701441A14F0070F00F0B6
:1039B0003DF87CB3F068A0422CD33768304601E074
:1039C00038460F467968A14202D239680029F7D1FA
:1039D000B1688F421ED0016801F1080539680160A5
:1039E0007868011B112908D3381910F0070200F07C
:1039F0001DF841607C6000F04EF87868F16832692B
:103A0000091AF160914238BF3161716908437860E9
:103A10000020386000F0E3FD0DB901F029FC15F03D
:103A2000070000F003F82846BDE8F08106D088F3CF
:103A30001188BFF34F8FBFF36F8FFEE7704738B524
:103A4000F0B1A0F10804254D606869695022084270
:103A500002D100F016F8FEE7236813B100F011F868
:103A6000FEE78843606000F0B4FDE868616808180C
:103A7000E860204600F00FF8BDE8314000F0AFBD2F
:103A800031BD82F31188BFF34F8FBFF36F8F704743
:103A90001248C068704730B510490A4600E01A461F
:103AA00013688342FBD35368D418844203D140681F
:103AB000C0185060104643681468C518A54208D164
:103AC00089688C4204D06168C9184160246800E0AC
:103AD0000C460460824218BF106030BDF8260020FA
:103AE000490810B54900A0F10C034FF080745960EB
:103AF0009C600FF20D01196040F8202D203810BD98
:103B000052494968502011F1010F06D080F3118805
:103B1000BFF34F8FBFF36F8FFEE780F31188BFF3C2
:103B20004F8FBFF36F8FFEE71CB54948474C0178B4
:103B30000191FF21017001788DF800109DF80010AF
:103B400001F050012170072105E09DF8002052008E
:103B5000491E8DF800209DF800201206F5D40902B8
:103B600001F4E061A160019901703A48016841F4F3
:103B700070010160016841F07041016000F072F86D
:103B80000020606001F0A9FB002016BD502080F3EA
:103B90001188BFF34F8FBFF36F8F2C494A68521CB7
:103BA000012A4A600AD12C490968090606D080F327
:103BB0001188BFF34F8FBFF36F8FFEE77047234825
:103BC000416839B9502080F31188BFF34F8FBFF39C
:103BD0006F8FFEE7491E416004BF002080F311880B
:103BE000704780B5502080F31188BFF34F8FBFF32B
:103BF0006F8F00F045FD18B117494FF080500860F5
:103C0000002080F3118801BDEFF3058050211028BA
:103C10000E4A0BD3114B185C1378984206D281F3ED
:103C20001188BFF34F8FBFF36F8FFEE790680C4A88
:103C3000126802F4E062904206D281F31188BFF369
:103C40004F8FBFF36F8FFEE7704700007C0F00209F
:103C500000E400E020ED00E004ED00E0F0E300E02F
:103C60000CED00E00549064809684FF47A72B1FB93
:103C7000F2F1491E41600721016070475415002090
:103C800010E000E001484068704700BFB00F00201E
:103C90002DE9F047DFF80475044638780D46924662
:103CA00028B907F11C00FFF754F9012038702000F3
:103CB00032D0042C30DA5FEA0A002DD0AAF10100DC
:103CC00010EA0A0F28D15046FFF734FE5FEA0009D8
:103CD00022D0641EE4B2DFF8C88408EB840607EB48
:103CE0008407356407F11000FEF74DFFB065012130
:103CF000381DFEF781FFF0644FF0FF31FEF78FFFB4
:103D000008EB0410524649461030FFF7A2F9286824
:103D1000C16841F02001C160BDE8F087F8B50646F2
:103D20000C4600203100154621D0042E1FDAF4B1D4
:103D30002A001CD0DFF8680400EB86074FF0FF3143
:103D4000786DFEF723FF761E032EF86B2A46214678
:103D500002D801F02EFB01E001F008FBB86C4FF037
:103D6000FF31FEF75CFF786DFEF72EFF2846F2BDAF
:103D70000CB4F8B50446002620000D461AD0042CD9
:103D800018DABDB14FF48070FFF7D4FD070011D0F1
:103D900006AB2A464FF4807101F036FA384600F03F
:103DA000D5FA82B239462046FFF7B8FF06463846B4
:103DB000FFF745FE3046F2BC5DF80CFB014680B5CE
:103DC00000200A0007D0042905DADFF8D40300EB4D
:103DD0000110FFF761F980B202BD02460020130016
:103DE00007D0042A05DADFF8B80300EB0210FFF76A
:103DF00097B9704770B504460D460020210016465D
:103E00000ED0042C0CDA5DB1310009D000F079F845
:103E1000DFF88C033246294600EB0410FFF743F924
:103E200080B270BD10B504460020210009D0042CDA
:103E300007DAFFF727FFDFF8681301EB8401096E4B
:103E4000401A10BD020000D1704710B5042814DAE2
:103E5000D34A02EB8004E06B426891420DD00268C5
:103E6000D36823F02003D360416001F047FAE06B90
:103E70000068C16841F02001C16010BDF8B504467A
:103E80000D46042CB8BF042D1DDAFFF77FFEC54F89
:103E9000C34E3C747D7444B1384606EB04111022C5
:103EA000FEF79CFF3846FFF7FBF845B1304606EBBE
:103EB00005111022FEF792FF3046FFF7F1F8BDE83A
:103EC000F140FFF77CBEF1BD38B50D460446042D28
:103ED000B8BF042C14DAFFF759FEB2488574C474D5
:103EE00055B1B14CAE49204601EB05111022FEF749
:103EF00075FF2046FFF7D4F8BDE83140FFF75FBEFD
:103F000031BD2DE9F84F00250FF2B426DFF890827D
:103F100008EB051707F11000FFF7BEF879696C1C74
:103F200080B2491C884204D1E0B2FFF77BFF6428CD
:103F30000BD207F11000FFF7AFF870B1E0B2FFF756
:103F400071FF41F28831884207D307F11000FFF773
:103F5000A7F8691C3046FFF7D4FA6D1C032DD7DB98
:103F6000DFF844928F4F002500E065B9B87C01006E
:103F70001CBFFE7C002E12D008EB00104C46C0681F
:103F8000C9F80C0017E0012D09D1387C010006D0DA
:103F900008EB00103C46C068F8607E7C0BE0022D08
:103FA00025D1787C010022D008EB00104446C0687F
:103FB000C8F80C003E7CD4B12046FFF76DF81FFA1C
:103FC00080FABAF1000F12D05046FFF7B3FC5FEA57
:103FD000000B0CD0524659462046FFF764F882B2D7
:103FE00059463046FFF79AFE5846FFF728FD6D1CEC
:103FF000042DBADBBDE8F18F2DE9F0418046684D14
:1040000005EB880682B0F46BE4B12068016889068C
:1040100002D5C168890602D40168090712D547682C
:10402000FFF730FE3066F9B205EB0810FFF721F814
:10403000002000902068016800914068009000987E
:10404000012000E00020BDE8F6810021544A02EB87
:1040500081031B6C984202D0491C0329F7DB03291A
:1040600006DA02EB8100C06C002818BFFEF70FBE15
:1040700070472DE9F84F04460F460FF294180FF2DF
:104080006C190FF2141A15E00FF2282100F095F8C0
:1040900070B900F08FF800F089F80646F1B2E8B286
:1040A000FFF712FF324629460FF21020FFF729FAD8
:1040B0003F1D641E012C6DDB3D68002D6AD051460A
:1040C00000F07BF870B900F075F800F06FF8064664
:1040D000324629464846FFF714FA3146E8B2FFF760
:1040E000B1FEE5E7414600F068F880B900F062F8FB
:1040F0000546B868FEF7C2FE0646B968B2B2E8B235
:10410000FFF70CFE324629460FF20C10CEE70FF2F5
:104110002C1100F052F848BB00F04CF80546C0B234
:10412000FFF74CFE06001BD0FFF704FC5FEA000B14
:10413000BED032465946E8B2FFF75CFE3246294609
:104140000FF20010FFF7DDF931465846FFF7C3F9CB
:104150000FF20C10FFF7D5F95846FFF770FCA7E7F0
:1041600029460FF20C10FFF7CCF9A1E70FF2181156
:1041700000F023F8002887D100F01CF800F016F8B2
:104180000646F1B2E8B2FFF779FE324629460FF251
:1041900000108BE7BDE8F18F6264720058150020B3
:1041A000D03E002060410020844100200546B868D0
:1041B000FEF76CBE7868FEF769BE284600F0E2B8EC
:1041C00077617272696E673E2055415254257520A1
:1041D00072656365697665206669666F206F7665CE
:1041E00072666C6F772E0D0A000000006C6F673EE0
:1041F0002055415254256420626175647261746572
:10420000206368616E6720746F2025642E0D0A009C
:1042100073656E64000000006C6F673E205541526C
:104220005425642073656E642064617461206C653C
:104230006E6774683A25640D0A0000007265616457
:10424000000000006C6F673E2055415254256420E9
:10425000726561642073697A653A25640D0A00000D
:104260006C6F673E2020203C656E642E0D0A0000B6
:104270006C6F673E20554152542564206E6F206458
:104280006174612E0D0A000072656D61700000009E
:104290006C6F673E205541525425642072656D61F4
:1042A0007070696E6720746F205541525425642EDA
:1042B0000D0A00006D6F6E69746F72006C6F673E5F
:1042C00020554152542564206D6F6E69746F7220C1
:1042D0005541525425642072656365697665206492
:1042E0006174612E0D0A000070B50C462578290016
:1042F00006D170BD11F8013F1678B34206D0401CBC
:10430000294601F05BFA28B10146224612F8013F26
:10431000002BEFD170BD00000CB41CB5044604A8FE
:1043200001900A46009401AB69460748784418306A
:1043300001F050FA009A0021117000285CBF00982B
:10434000001B16BC5DF80CFBEBEAFFFF00F101035C
:10435000810704D010F8011B89B18107FAD10268E6
:10436000B2F10131914311F0803F04BF50F8042FA6
:10437000F6E710F8011B11B110F8011BFBE7C01A9A
:1043800070470000820707D010F8012B11F8013B9D
:10439000BAB19A42F6D014E002680B689A42A2F1D0
:1043A000013301BF934313F0803F50F8042F51F8BD
:1043B000043FF3D010F8012B11F8013B0AB19A42E7
:1043C000F8D0D01A704700002DE9F0430446154696
:1043D00085B088469946A800FFF7ACFA06001AD0C7
:1043E0005420FFF7A7FA070012D03E630020039085
:1043F00002974B460D9801902A460C980090414632
:10440000204600F00DF8384600F046F8012004E0A0
:104410003046FFF714FB4FF0FF3005B0BDE8F083E6
:104420002DE9F8430A9C8046206B00EB8200001FB8
:10443000C708FF00994607F007000A5C231883F8B5
:1044400034200A5C12B1401C1028F6D3002084F8F6
:10445000430004F14405089E072E28BF0626E662A5
:104460002E606860201D02F08FFA04F1180002F03F
:104470008BFAC6F10700A061246164620020A86085
:1044800028734A4641463846FFF72AFB20600998C0
:1044900000B10460BDE8F1832DE9F0410446FFF767
:1044A00075FBDFF81C56DFF81C86E86C401CE864DE
:1044B0001426A86A28BBAC62E86C012827D1002723
:1044C00006FB07F0404402F052FA7F1C072FF7D397
:1044D00005F1740002F04BFA05F18807384602F046
:1044E00046FA284602F043FA05F1140002F03FFABA
:1044F00005F1380002F03BFA05F17400E8622F6321
:1045000005E0A86D18B900F034F828BFAC62A86EB9
:10451000401CA8660122E06A696D8240114369650A
:10452000704300F00AF8FFF74AFBA86D18B1A86ABB
:10453000E16A00F0B3FABDE8F081211D404402F0C9
:1045400026BA10B504000DD0DFF8E405006F00F0C6
:10455000F2F800F03EF80021204600F0B5FA00F035
:104560003EF808B900F0A2F910BD502080F3118880
:104570007047E06AA96AC96A884270471CB5DFF8CB
:10458000B0450FF2B45104F19C00019000230020CB
:10459000009080220FF23530FFF716FF50210128DE
:1045A0000FD181F3118800F086F94FF0FF30E066FB
:1045B0000120A06500202065BDE81340FFF7B4BAD4
:1045C00013BD10F1010FFBD181F3118800F073F9D5
:1045D000FEE7DFF85C05016F491C0167704770B5A5
:1045E000DFF84C55286F0026002400F03FF8FFF755
:1045F000CDFA286F401E2867286F002835D1E86C57
:10460000D0B932E0E868C66806F1180002F0E4F9B3
:10461000301D02F0E1F9F06A696D0122824000F07C
:1046200049FA311D104402F0B2F9F06AA96AC96A68
:10463000884224BF0120286628680028E2D10EB1F4
:1046400000F084F9EE6D3EB100F01AF808B10120D7
:104650002866761EF8D1EC65286E30B1DFF8D414E8
:104660004FF08050012400F025F91BE138B95020AB
:1046700080F31188BFF34F8FBFF36F8FFEE7704752
:104680002DE9F843DFF8A844206F0025002847D122
:10469000206D10F10109C4F850900CD1E06A006857
:1046A00000F049F8E06A216BE1622063606E401C13
:1046B000606600F04BF9E06EDFF80884142781454E
:1046C00023D315E0301D02F087F9B06A18B106F166
:1046D000180002F081F9F06A00F0A2F87843311D69
:1046E000FFF72CFFF06AA16AC96A884228BF01253A
:1046F000E06A006810B94FF0FF3005E0E06AC0687A
:10470000C66870688145DDD2E066A06AC06A7843F9
:1047100058F800000228E06D28BF012528B902E002
:10472000E06D401CE06502F069F9206E00B10125E2
:104730002846BDE8F28338B1502080F31188BFF3DA
:104740004F8FBFF36F8FFEE77047DFF87403016F81
:1047500011B101210166704701661422416DB1FA61
:1047600081F1C1F11F015143DFF8582353583BB980
:10477000502080F31188BFF34F8FBFF36F8FFEE798
:10478000114401F108034A6852684A609A4204BF22
:1047900052684A604968C9688162704710B50C4622
:1047A000FFF764FFDFF81813896A183102F0FBF88D
:1047B0002046BDE81040FFE7012185E138B5C0681B
:1047C000C46824B9FFF7D1FE00F075F8FEE704F1E4
:1047D000180002F001F9DFF85853286F20B900F0F3
:1047E00050F900F010F802E004F11801284602F038
:1047F000CEF8A86AE16AC06A884202D2012028661F
:1048000032BD002032BDE06A696D01228240114351
:1048100069651423DFF8AC225843211D104470470A
:10482000616D0122824011436165704738B95020A3
:1048300080F31188BFF34F8FBFF36F8FFEE7DFF870
:10484000F0124A6E0260096D4160704770B504460F
:104850000D46502024B980F3118800F02CF8FEE7B3
:1048600025B980F3118800F026F8FEE7FFF78EF9EE
:10487000DFF84C02016D2A6812F1010F0FD0636856
:10488000406E2668B04201D099420AD2C81A9042BE
:1048900007D2501A181828602046FFF7C7FF0024D7
:1048A00000E00124FFF78BF9204670BDDFF8841289
:1048B0004FF080500860BFF34F8FBFF36F8F70478A
:1048C000DFF86C12012008667047000070B5DFF851
:1048D000F441DFF85C521AE0FFF77BFE6869461E80
:1048E000B641FFF77CFEF60F8EB9FFF74FF9286A45
:1048F000C668301D02F070F8E86C401EE864686B12
:10490000401E6863FFF75BF9304600F015F8686BEE
:104910000028E1D12068022800F003F802F070F8C6
:10492000F5E708D3DFF80C124FF080500860BFF3B2
:104930004F8FBFF36F8F704710B50446206BFFF7A2
:104940007EF82046BDE81040FFF779B8DFF8E001B7
:10495000C16A096811B94FF0FF3103E0C16AC96843
:10496000C9684968C1667047DFF8C401816D09B93B
:1049700001207047006F08B902207047002070477F
:104980002DE9F041040037D0DFF83451FFF7F1FD95
:1049900032D2A069002804D4A86AC06AC0F1070016
:1049A000A0611427E16A474E606979433144884227
:1049B0001FD100F066F8002801BFE06A7843305844
:1049C00000284FF0010805D1686DE16A08FA01F18D
:1049D00088436865A86AC06AE06208FA00F2696DF7
:1049E000114369657843211D3044BDE8F04101F071
:1049F000CEBFA86AC06AE062BDE8F0812DE9F0414F
:104A000004460020002C3AD02D4DAA6A5021944231
:104A100004D081F31188FFF74EFFFEE7A26C22B9A4
:104A200081F31188FFF747FFFEE7636C511EE26ACE
:104A3000A1649A4223D011BB00F023F80126142769
:104A4000DFF88080002801BFE06A784358F8000052
:104A5000002805D1686DE16A06FA01F188436865AE
:104A6000606CE062C0F10700A061E06A696D06FA5F
:104A700000F2114369657843FFF75FFD0120BDE84F
:104A8000F081201D01F0A8BFDFF8A400816A19B1F0
:104A9000816A8A6C521C8A64806A7047C06A884244
:104AA00007D224494FF080500860BFF34F8FBFF307
:104AB0006F8F7047114369651423024A584370474A
:104AC000A43D0020443E0020F8B5194C256D064653
:104AD000A06A0F46001D01F07FFF40B9A06A616D1A
:104AE000C06A012202FA00F021EA0000606516F1B6
:104AF000010F08D13FB1A06A011D04F13800BDE8E3
:104B0000F44001F044BFA06A76194660AE42A06A44
:104B100005D2011D206BBDE8F44001F044BF011D2A
:104B2000E06A01F040FFE06E864238BFE666F1BD04
:104B3000A43D002004ED00E049444C450000000085
:104B400038B504000D4602D100F090FAFEE7FFF7F9
:104B50001DF8E16B226C206851430844606000201E
:104B6000A0632068E16B226CA060491E206851435D
:104B70000844E0604FF0FF3104F1440001704170DF
:104B800075B92069A0B104F11000FFF717FE78B1E4
:104B9000DFF8F4154FF08050086000F01AFA07E0D3
:104BA00004F1100001F0E3FE04F1240001F0DFFE47
:104BB000FFF705F8012032BDF8B504000D46164692
:104BC00002D100F053FAFEE7002D0EBF482005FB8E
:104BD00004F04830FEF7AEFE070007D000973346DA
:104BE00007F148022946204600F002F83846F2BD97
:104BF00082B0029B01B91A461A60D863196418463C
:104C0000012102B09CE710B5024600210120FFF708
:104C1000D3FF040009D0002060602060E060002322
:104C200000220021204600F002F8204610BD2DE9A8
:104C3000F74F804600245025B8F1000F8B461E46E2
:104C400000F0D5F8BBF1000F08F1240701D1F86995
:104C500060B9022E02D1B86901280AD1FFF784FE9B
:104C600078B9029868B100F0B2F9FEE700F0AFF948
:104C7000FEE700F0ACF9FEE7404600F046FAFFF729
:104C8000AEFCFEF783FF7869B969DFF8FC948842CF
:104C90004FF0805A01D3022E14D132465946404675
:104CA00000F0ECF9396821B13846FFF787FD08B903
:104CB00004E018B1C9F800A000F08BF9FEF77FFFFF
:104CC000012049E0029810B9FEF779FF43E01CB9D2
:104CD0006846FFF7ABFD0124FEF771FFFFF779FC93
:104CE000FEF754FF08F1440090F9001011F1010F94
:104CF00004BF0021017090F9011011F1010F04BFF0
:104D000000214170FEF75BFF02A96846FFF79EFD98
:104D1000E0B9FEF73BFF7869B96988420CBF01250D
:104D20000025FEF74CFF002DA6D0029908F11000D7
:104D3000FFF734FD404600F0E8F9FFF750FC00288B
:104D40009FD1C9F800A000F044F99AE7404600F06E
:104D5000DCF9FFF744FC0020BDE8FE8F2DE9F047A9
:104D600080465025B8F1000F894616461F4600F0D0
:104D70003EF8B9F1000F08F1240401D1E06930BB1D
:104D8000022F02D1A069012824D1FEF73DFFEFF3E5
:104D9000118A00F01CF96069A169884201D3022FD1
:104DA00020D198F945503A464946404600F066F908
:104DB00015F1010F11D1206890B12046FFF7FEFCDC
:104DC000002818BF002E0BD00120306008E000F052
:104DD000FEF8FEE700F0FBF8FEE7681C88F84500E7
:104DE000012000E000208AF31188BDE8F08706D199
:104DF00085F31188BFF34F8FBFF36F8FFEE77047C6
:104E0000F8B504460D46502724B987F3118800F001
:104E1000E0F8FEE7206C20B187F3118800F0D9F8A4
:104E2000FEE7206808B96068E0B9FEF7EDFEEFF331
:104E3000118687F3118800F013F9E16B88421BD2C9
:104E400094F94510401C11F1010FA0630FD1606A65
:104E500080B100F0B8F8002818BF002D0AD001205A
:104E6000286007E087F3118800F0B3F8FEE7481CDC
:104E700084F84500012000E0002086F31188F2BD8F
:104E80002DE9F44783B004460D4699460026502785
:104E900024B987F3118800F09CF8FEE70DB9206C67
:104EA00048B9FFF761FD80B9039870B187F31188A5
:104EB00000F08FF8FEE787F3118800F08AF8FEE72C
:104EC000204600F022F9FFF78AFBFEF75FFEA76B92
:104ED000DFF8B4A24FF080580FB300F0BDF8B9F17D
:104EE000000F0ED1781EA063206810B9FFF7CCFD2B
:104EF0006060206978B104F11000FFF75FFC30B901
:104F000009E0E660606A30B100F05DF818B1CAF8F7
:104F1000008000F05EF8FEF752FE012050E003989A
:104F200010B9FEF74CFE4AE01EB96846FFF77EFC5A
:104F30000126FEF744FEFFF74CFBFEF727FE04F1C7
:104F4000440090F9001011F1010F04BF002101701D
:104F500090F9011011F1010F04BF00214170FEF71B
:104F60002EFE03A96846FFF771FC002820461DD1DC
:104F700000F0FEF80028A3D0206830B9FEF706FE46
:104F80006068FFF7FDFCFEF71AFE039904F12400A8
:104F9000FFF704FC204600F0B8F8FFF720FB0028DC
:104FA00093D1CAF8008000F014F88EE700F0ADF855
:104FB000FFF715FB204600F0DBF8002885D0002025
:104FC00004B0BDE8F08704F12400FFF7F7BB85F3D8
:104FD0001188BFF34F8FBFF36F8F70472DE9F047F4
:104FE000044689461646502514B9FFF7F0FFFEE740
:104FF000B9F1000F04F1100701D1386B60B9FEF769
:1050000003FEEFF31188FFF7E2FFBD6A3DB9002010
:1050100088F31188BDE8F087FFF7D9FFFEE794F920
:1050200044A04946204600F05DF8681E1AF1010FC1
:10503000B8620BD1386868B13846FFF7BFFB00286B
:1050400018BF002E06D00120306003E00AF10100F5
:1050500084F844000120DBE7E6682946204641E069
:10506000BFF34F8FBFF36F8FA06B7047502080F35B
:105070001188BFF34F8FBFF36F8F7047F8B50446A9
:105080001746A56B226C002642B9206830BB6068C9
:10509000FFF7B4FC0646002060601FE067B9A06817
:1050A000FDF78CFEA068216C08446168A06088420E
:1050B00014D32068A06011E0E068FDF77FFE206C4B
:1050C000E16840420144E1602268914202D2616895
:1050D0000844E060022F01D105B16D1E681CA06379
:1050E0003046F2BD10B5026C0B466AB1C168446827
:1050F0001144C160A14224BF0168C160C168BDE81C
:1051000010401846FDF75ABE10BDF8B50446FEF72C
:105110003DFD04F1440504F1100795F9016005E037
:10512000FFF751FF08B1FFF7CBFB761E76B2012ED9
:1051300002DB78690028F3D14FF0FF346C70FEF782
:105140003EFDFEF723FD95F9006006E03846FFF7C7
:1051500035FB08B1FFF7B4FB761E76B2012E02DBF9
:1051600038680028F2D12C70BDE8F140FEF727BD69
:1051700010B50446FEF70AFDA06B441EA441FEF7DD
:105180001EFDE00F10BD000004ED00E030380A28DD
:105190008041C00F704710B50446A4F120005F287D
:1051A0000BD3204601F032FC38B9204601F038FC20
:1051B000401E8041C043C00F10BD012010BD10B57E
:1051C0000446202C11D0A4F120005F280BD32046E8
:1051D00001F01CFC38B9204601F022FC401E804141
:1051E000C043C00F10BD012010BD002010BD10B580
:1051F0000446012001F028FCA4F161001A2838BF00
:10520000203C204610BD000008B584B00023029366
:1052100011B90093019302E00090481E019004AB85
:10522000694607487844183000F0D4FA009911B163
:10523000009A00211170002858BF029805B000BDE7
:10524000A7C3FFFF10B401E0491C521E6AB10B78DE
:1052500004789C4205D010BC2CBF01204FF0FF30D9
:10526000704710F8013B002BEED110BC00207047B6
:1052700070470000EFF30980BFF36F8F1D4B1A6872
:1052800020E9F00F106008B54FF0500080F311884E
:10529000BFF34F8FBFF36F8FFFF757FA4FF0000048
:1052A00080F31188BDE8084019680868B0E8F00F7D
:1052B00080F30988BFF36F8F70470E4B1968086839
:1052C000B0E8F00F80F30988BFF36F8F4FF0000054
:1052D00080F311884EF00D0E704707480068006893
:1052E00080F3088862B661B6BFF34F8FBFF36F8F4C
:1052F00000DF0000CC3D002008ED00E038B50500DF
:1053000001D1012032BD05F13804607808B900F000
:1053100013F800F015F800F007F821F02A01FFE774
:10532000416100F017F832BD2868016921F490410D
:1053300001612868416970472070284601F0DCBB94
:10534000242060702868C16821F40051C16028469B
:1053500000F0C1B92868C16841F40051C160002063
:10536000606020206070A0700020704710B500F1D0
:1053700038035C78202C17D109B1140001D1012029
:1053800010BD1C78012C0FD001241C700162828496
:10539000C2840021596021215970002119700068D0
:1053A000C16841F0800101E0022010BDC160002011
:1053B00010BD38B5044604F138056878202830D18E
:1053C00009B1100001D1012032BD2878012828D070
:1053D000012028702162A284E284002068602120DC
:1053E0006870236B0FF2A1109862236B0FF2C51047
:1053F000D862236B0FF2C51018630020236B58632B
:1054000013462068021D206B01F082FC21686FF0BA
:1054100040000860002028702068416941F0800148
:1054200001E0022032BD4161002032BD416921F01E
:1054300040014161606B704738B5044623681868C5
:10544000D9685A6910F00F0507D182065DD58A0622
:105450005BD52046BDE83240F4E0D50702D411F414
:10546000907F52D0C30705D5CB0503D5E36B43F03E
:105470000103E363430705D5D30703D5E36B43F08B
:105480000203E363830705D5D30703D5E36B43F03A
:105490000403E363030705D5D20703D5E26B42F0AB
:1054A0000802E263E26B002A6CD0800604D588060D
:1054B00044BF204600F0C6F820684069E16B090748
:1054C00001D440061BD5204600F0A6F820684169AB
:1054D00049060FD5FFF7AAFF60B10FF25D114163D6
:1054E000606B01F057FC00284CD0606B416BBDE84D
:1054F000344008472046BDE8324001F05EBD2046FA
:1055000001F05BFD0020E06331BD02062AD50A06EA
:1055100028D594F83900212834D1A068B0F5805FEF
:10552000206A0BD10088C0F3080058602069002869
:10553000206A0CBF801C401C206203E0411C2162D9
:1055400000785860E08C401EE08480B2D0B92068BA
:10555000C16821F08001C1602068C16841F040014C
:10556000C16031BD40060DD548060BD5D86820F086
:105570004000D860202084F839002046BDE8324041
:10558000FEF763BD31BD0000416A00680068800617
:1055900044BF0846FEF759BD0020C8840868426928
:1055A00022F0800242610868C16841F04001C16098
:1055B00070470000406A01F001BD000038B5446A40
:1055C0002068406904F139052978212906D10006AF
:1055D00004D50020E084204600F015F820684069DA
:1055E0006978222906D1400604D50020E0852046AE
:1055F00000F012F8E06B40F01000E0632046BDE8D8
:10560000324001F0DABC0168CA6822F0C002CA6008
:10561000202180F8391070470168CA6822F490721E
:10562000CA6001684A69520852004A61202180F824
:105630003A10704700000000406A0021C185C18413
:1056400001F0BBBC80B590F83A10222941D18168A5
:10565000B1F5805F12D10269816A002A026852683E
:1056600005D1C2F308020A80816A891C04E002F0B5
:10567000FF020A80816A491C81620FE001690029EA
:10568000816A04D14A1C82620268526805E04A1CA1
:1056900082620268526802F07F020A70C18D491E60
:1056A000C18589B299B90168CA6822F02002CA602E
:1056B0000168CA6822F48072CA6001684A695208A7
:1056C00052004A61202180F83A1001F078FC002055
:1056D00002BD022002BD2DE9F04704466425206882
:1056E0000169E26821F44051114301611926C16842
:1056F000304A1140A2681143226911436269114383
:10570000C1604169A26921F44071114341612A4994
:1057100088420ED101F090FE074601F08DFE8046D2
:1057200001F08AFE814601F087FE824601F084FE88
:105730000DE001F079FE074601F076FE804601F0AB
:1057400073FE814601F070FE824601F06DFE06FB9D
:1057500008F361688900B3FBF1F306FB07F206FB6F
:1057600009F7B7FBF1F7B7FBF5F705FB17331B019B
:105770003233B2FBF1F2B3FBF5F3B2FBF5F203F017
:10578000F00303EB0212704306FB0AF3B0FBF1F0E7
:10579000B3FBF1F3B0FBF5F005FB10300001323044
:1057A000B0FBF5F0216800F00F0080188860BDE8BC
:1057B000F0870000F3E9FFFF003801400278C9B22A
:1057C0008A421AB11CBF10F8012FF9E718BF002058
:1057D000704700002DE9F04F82460FF25860A5B0E7
:1057E00015461E46D0E90023CDE9122303AF002061
:1057F0007960B8620DF1500900E045440020ADF831
:10580000020012AB4FF0FF3229460DF1020001F009
:105810003EFE8046B8F1010F08DA2878B0F10108A1
:1058200068EB08086FEA08004FEAD078BDF802007C
:1058300025280CBFA8F1010BC346BBF1010F0EDBFD
:105840002C4614F8011B7868D0470028786000F0D7
:10585000F880B86A401CBBF1010BB862F1D1BDF809
:105860000200252807D1002038617861B861F8610D
:105870003862786205E00028BFD1B86AE2E240F001
:10588000010015F8011F2029F9D023290DD02B295B
:1058900004D02D2906D030290AD00CE040F00200B7
:1058A00080B2EEE740F00400FAE740F00800F7E7C6
:1058B00040F01000F4E72A290ED13168316051F828
:1058C000042B3160002A3A6304D5514240F00400B1
:1058D000396380B26D1C13E0002139630BE0396B32
:1058E0006FF00043994205D001EB810302EB4301C5
:1058F000303939636D1C2A78A2F130010A29EED3C0
:1059000029782E2903D04FF0FF31F9621FE015F8F6
:10591000011F2A2907D1316831606D1C51F8042B11
:105920003160FA6213E00021F9620BE0F96A6FF06E
:105930000043994205D001EB810302EB430130396A
:10594000F9626D1C2A78A2F130010A29EED3B886DB
:105950000FF2E8402978FFF731FF08B115F8010B85
:105960008DF842009DF84200682802BF2978682916
:10597000622005D06C2804BF28786C2803D17120E0
:105980008DF842006D1C14A8F86015F8014BB4F1B5
:1059900025002AD01C3800F0DB80001F022840F2CE
:1059A000D780133800F0FB80093800F0D180801ECA
:1059B00000F06581401E00F03C81401E022840F24C
:1059C000C780001F00F03581401F00F09280401E0C
:1059D00000F0E580401E37D0C01E0BD0801E00F0C6
:1059E000DE80C01E00F0DB806CE125208DF85000C9
:1059F000012070E19DF842006C283068306016D0BC
:105A000050F8048B3060C7F80880FC6A002C04D57D
:105A10004046FEF79BFC044607E022460021404634
:105A200001F046FD08B1A0EB08047C6154E150F898
:105A3000042B306002A9504600F03EFA002840F1E5
:105A40004B814FF0FF30FDE131683160002251F8A9
:105A5000040B31604FF03C0E0021CDE9020114A887
:105A6000B860DDE902019142FC6808BF904201D1B3
:105A7000FA6AC2B100F00F033033DBB23A2BA8BF91
:105A80002733AEF101020009A354964640EA0170A3
:105A900009090022914208BF904204D0BA6804EB81
:105AA0000E039A42E6D304EB0E01B960CEF13C003E
:105AB000F96A7861884207DA081AF8614FF6EF71DF
:105AC000B88E0840B88607E1002940F1058197F8B3
:105AD000341001F01401102940F0FE80396B3A694E
