:020000040800F2
:100000000019002081EC000829EA00082BEA00080A
:100010002DEA00082FEA000831EA0008000000007D
:10002000000000000000000000000000838F0008B6
:1000300033EA0008000000003D8F000835EA0008A0
:10004000D9EC0008DDEC0008E1EC0008E5EC000864
:10005000E9EC0008EDEC0008F1EC0008F5EC000814
:10006000F9EC0008FDEC000801ED000805ED0008C2
:1000700043EA000809ED000849EA00080DED000810
:1000800011ED00084FEA000815ED000819ED000811
:100090001DED000821ED000825ED000829ED000800
:1000A0002DED000831ED000835ED000839ED0008B0
:1000B0003DED000841ED000845ED000849ED000860
:1000C0004DED000851ED000855ED000859ED000810
:1000D0005DED000855EA00086BEA000881EA0008B7
:1000E00061ED000865ED000869ED00084FF4E0726D
:1000F00010440268914203D343681A44914202D3E8
:1001000080680028F5D17047DFF85C07016891B975
:100110004FF4803181604FF4805141604FF0FF31E6
:10012000C16001610421DFF844274161C2F8BC11BC
:10013000DFF83C1701600120704701F1080313F05C
:10014000070305D001F10803C3F1080303F0070317
:100150001944D21A8161C26042F001034B6011441C
:1001600028234B60DFF800170969C16170472DE94A
:10017000F84F064601F1080010F0070008BF884656
:1001800007D001F10800C0F1080000F0070001EB02
:10019000000802F1080010F0070006D002F1080084
:1001A000C0F1080000F0070002441546A5EB080066
:1001B000A0EB030908EB030B43F00300C8F80400AD
:1001C000AB4528BF01F00CFA2879C00758BF01F0F1
:1001D00007FAB9F1100F38BF01F002FAB069854291
:1001E00009D1F0684844F060C6F818B040F001004A
:1001F000CBF8040070E1706985420BD1B0684844C7
:10020000B060C6F814B040F00101CBF804104BF810
:10021000000061E1686800F00301012940F0AF804F
:10022000C008C0000190C00820283BD2D5F808A023
:10023000EF680090BD4208BF01F0D2F9554508BFF4
:1002400001F0CEF968680099C008C000B0EBC10F9A
:1002500018BF01F0C5F9009806EBC00000F12801B5
:100260008A4508D031698A45C0F08480DAF80C10DC
:10027000A94240F07F80574506D1009A306801219D
:1002800091408843306077E02830874205D030695C
:1002900087426FD3B868A8426CD1CAF80C70C7F80F
:1002A00008A069E0EF68D5F818A0AF420CD0A868A4
:1002B0003169884223D3C168A94204BFB968A94201
:1002C0001DD1C760B8601CE005F11400076837B99C
:1002D00005F110000768A7B101E00846076807F1BB
:1002E00014010A68002A02BF07F110010A68002AF7
:1002F000F3D13169884202D30021016001E001F0AD
:100300006FF9BAF1000F37D0E86906EB80004FF4BF
:100310009871084401688D4208D10760A7B9EA695D
:100320007068012191408843706025E03069824502
:1003300008D3DAF81000A84214BFCAF81470CAF83B
:10034000107001E001F04CF9B7B13069874211D368
:10035000C7F818A0296929B1814226BF39618F6188
:1003600001F03EF9686938B13169884202D3786199
:10037000876101E001F034F901980544814468681F
:100380004008400068604FEAD90549F00100CBF809
:1003900004004BF80990202D23D206EBC50000F194
:1003A0002807BA46B9F1100F38BF01F019F93068C3
:1003B00020FA05F1C90704D40121A940084330609F
:1003C00006E0B868316988422CBF824601F008F91E
:1003D000C7F808B0CAF80CB0CBF808A0CBF80C707E
:1003E0007AE05FEA192108BF002023D0B1F5803FF1
:1003F00028BF1F201ED2A1F58070000C00F008005D
:100400008140A1F58052120C02F004029140A1F546
:1004100080431B0CC0F10E0003F00203801AC01AC7
:10042000994000EBD130C11D29FA01F202F001011F
:1004300001EB400006EB80014FF498721144CBF8B9
:100440001C000022CBF81420CBF81020726822FA8E
:1004500000F3DB0707D4012303FA00F010437060B8
:10046000C1F800B01DE009681F281DBF4008C0F199
:10047000190009FA00F0484600E011464A68D2081F
:10048000D2004A4514D0C20F01EB820202F11003E0
:1004900040001A68002AF0D1306983421AD3C3F8A9
:1004A00000B0CBF81810CBF80CB0CBF808B013E0C4
:1004B00032698868914228BF90420BD3C0F80CB0D3
:1004C000C1F808B0CBF80800CBF80C100020CBF82E
:1004D000180001E001F084F808F10800BDE8E68F9B
:1004E0002DE9FA4D0546DFF88003006882B008B9AF
:1004F000FFF70AFEDFF870030299806841182F3178
:10050000401E21EA00000299814280F0A9814FF447
:10051000D8716E18B16839B132688018824280F0A3
:100520009F818142C0F09C8101F06AF800281EBFC3
:100530000446D0F8008014F1010F00F0918130687A
:10054000716840448142306038BF01467160A869DB
:1005500080BB286908B1844200D22C610020F06180
:100560003461C6F8148005F12801BF48006868624C
:100570004FF0FF3028620020C960896001F1080255
:100580004A610A61801C10312028F5D3B7488542A2
:1005900003D1A8F1280221462AE055F8040CC0082E
:1005A00005EBC000A0F1080104EB0800401AA0F11F
:1005B00028021DE04FF4E0702918084600E080682A
:1005C000D0B1026843681A449442F8D1027B120702
:1005D00012D4AA6903689A420ED347683B449A42F0
:1005E0000AD208EB07014160E868A96908EB00023C
:1005F0002846FFF7A2FD1DE128698442084638BF5E
:100600002C6104EB080100E0806880B102688A4236
:10061000FAD1017B09070AD4046041684144416072
:100620002146029B284604B0BDE8F04D9FE5AF6926
:1006300039462846FFF75AFD4FF0000B0168406825
:1006400008440190273810F0070101990EBF0020DF
:10065000C0F1080000F0070008442F3807F110012E
:10066000884234BF00970090009804F1080100F11F
:10067000180A11F00701A8F1280005D004F10801BB
:10068000C1F1080101F00701401A2144A961E860A5
:1006900040F001024A600844282242607248006922
:1006A000E8610098083010F0070018BF00F098FFCC
:1006B00000991B2048604FF4E0712944B1E80C50C8
:1006C00000980830A0E80C503461C6F81480C6F8D1
:1006D0001CB000980830B061019801E00AF1040AEA
:1006E0000721CAF804100BF1010B0AF1080181423D
:1006F000F4D3BBF1020FB8BF00F072FF0098B8420C
:1007000000F09880C01B3918C4084A68520852008B
:100710004A6040F0010179603850202C20D205EB6E
:10072000C40101F12806B046102838BF00F058FF78
:10073000286820FA04F1C90704D40121A140084324
:10074000286006E0B068296988422CBF804600F026
:1007500047FFB760C8F80C70C7F80880FE6069E012
:10076000010A23D0B1F5803F28BF1F211ED2A1F579
:100770008072120C02F008029140A1F580531B0C0C
:1007800003F004039940A1F58044240CC2F10E0249
:1007900004F00204D21A121BA14002EBD131CA1D8F
:1007A00020FA02F303F0010202EB410105EB8102A2
:1007B0004FF498731A44F96100237B613B616B68C5
:1007C00023FA01F4E40705D4012088401843686047
:1007D00017601CE012681F291DBF4908C1F11901EB
:1007E00000FA01F1014600E01A465368DB08DB001D
:1007F000834210D0CB0F02EB830303F110044900B6
:100800002368002BF0D12869844211D32760BA6194
:10081000FF60BF600EE0296990688A4228BF884265
:1008200006D3C7609760B860FA600020B86101E045
:1008300000F0D6FEE8680299814211D2401AE860C1
:10084000A969029A0A44AA6140F001005060029826
:1008500040F00300486004B001F10800BDE8F08DED
:10086000002004B0BDE8F08D7C4700201841002036
:100870006859883C2DE9F84F0446002689465FEA0E
:100880001920C9F1000B08BF002123D0B0F5803F2B
:1008900028BF1F211ED2A0F58071090C01F00801AC
:1008A0008840A0F58052120C02F004029040A0F59E
:1008B00080431B0CC1F10E0103F00203891AC91A0F
:1008C000984001EBD030C11D29FA01F202F001017C
:1008D00001EB400104EB8100D0F8300118B31F296F
:1008E0000FBF4A464A08C2F1190209FA02F2002370
:1008F00000E052004568ED08ED00A5EB09055D45F7
:1009000003D25FEA050B06460BD04569D70F00EB13
:100910008700002D00691CBF85422B460028E8D1C6
:100920001846B8BBC6BB012088404000414208437E
:100930006168084000F05D8141420840401E010BA3
:1009400001F01001C840420902F00802D0408308BB
:1009500003F00403D840450805F002055118E840AB
:100960005918C0F3400729443944F840401804EBB3
:100970008000D0F830010DE008464168C908C90080
:10098000A1EB090159453CBF8B4606460169002988
:10099000F2D140690028F0D1002E00F02A81A06831
:1009A000A0EB0900834580F0248120698642C0F0D5
:1009B0001E817068C00809EB0B08C000404518BFD5
:1009C00000F00EFE06EB0905AE4280F01081F768DC
:1009D000D6F818A0B7420CD0B0682169884223D35A
:1009E000C168B14204BFB968B1421DD1C760B860E7
:1009F0001CE006F11400076837B906F1100007681B
:100A0000A7B101E00846076807F114010A68002A47
:100A100002BF07F110010A68002AF3D12169884258
:100A200002D30021016001E000F0DAFDBAF1000F0D
:100A300039D0F06904EB80004FF4987108440168E4
:100A40008E4209D10760380014D1F2696068012133
:100A500091408843606026E02069824508D3DAF837
:100A60001000B04214BFCAF81470CAF8107001E048
:100A700000F0B6FDBFB12069874212D3C7F818A0B5
:100A8000306930B12169884226BF3861876100F042
:100A9000A7FD706938B12169884202D37861876106
:100AA00001E000F09DFDBBF1100F09D248F00300FA
:100AB000706006EB0800416841F00101416095E07B
:100AC00049F0030070604BF0010068604FEADB0002
:100AD00045F80BB020281DD204EBC00101F1280716
:100AE000216821FA00F2D207BB4605D4012202FA9E
:100AF00000F00843206006E0B868216988422CBFF6
:100B0000834600F06DFDBD60CBF80C50C5F808B011
:100B1000EF606BE05FEA1B2023D0B0F5803F28BF79
:100B20001F201ED2A0F58071090C01F00801884039
:100B3000A0F58052120C02F004029040A0F5804310
:100B40001B0CC1F10E0103F00203891AC91A984067
:100B500001EBD030C11D2BFA01F202F0010101EBD3
:100B6000400004EB80014FF498721144E8610022C8
:100B70006A612A61626822FA00F3DB0706D4012366
:100B800003FA00F0104360600D601CE009681F2844
:100B90001DBF4008C0F119000BFA00F0584600E0F4
:100BA00011464A68D208D2005A4510D0C20F01EB54
:100BB000820202F1100340001A68002AF0D1206975
:100BC000834211D31D60A961ED60AD600EE0226922
:100BD0008868914228BF904206D3C5608D60A860A6
:100BE000E9600020A86101E000F0FAFC08E100F0F3
:100BF000F7FC02E12DE9F84F04468846606841425F
:100C00000840401E010B01F01001C840420902F0EB
:100C10000802D040830803F00403D840450805F0DB
:100C200002055118E8405918C0F3400629447118CC
:100C3000F040401804EB8000D0F830014168C9084A
:100C4000C9000646A1EB080A09E008464168C90840
:100C5000C900A1EB080151453CBF8A46064601691F
:100C60000029F2D140690028F0D120698642C0F005
:100C7000C2807068C00808EB0A09C000484518BF68
:100C800000F0AEFC06EB080B5E4580F0B480F76820
:100C9000B569B7420CD0B0682169884223D3C168D6
:100CA000B14204BFB968B1421DD1C760B8601CE051
:100CB00006F11400076837B906F110000768A7B1FC
:100CC00001E00846076807F114010A68002A02BF1C
:100CD00007F110010A68002AF3D12169884202D382
:100CE0000021016001E000F07BFC002D35D0F069AF
:100CF00004EB80004FF49871084401688E4209D1DA
:100D00000760380011D1F269606801219140884381
:100D1000606022E02069854205D32869B04214BF93
:100D20006F612F6101E000F05BFCB7B12069874281
:100D300011D3BD61306930B12169884226BF386165
:100D4000876100F04DFC706938B12169884202D397
:100D50007861876101E000F043FCBAF1100F09D21D
:100D600049F00300706006EB0900416841F00101A1
:100D700041603FE048F0030070604AF00100CBF8AA
:100D800004004BF80AA0D4F808804FEAD805202DBB
:100D900028BF00F025FCB8F1000F27D0D4F814903C
:100DA000009504EBC50000F128052F46B8F1100F9F
:100DB00038BF00F015FC2068009920FA01F2D10735
:100DC00005D4009A012191400843206006E0A868FC
:100DD000216988422CBF074600F002FCC5F8089044
:100DE000C7F80C90C9F80870C9F80C50C4F808A0EE
:100DF000C4F814B004E000F0F3FB0020BDE8F28F6B
:100E000006F10800BDE8F28F2DE9F04F83B00546EA
:100E1000AFF30080F52DDFF8C04780F002810B2D85
:100E200031BF102705F10B00C708FF002068FE083E
:100E3000F04010F0030F42D0C04300F001008619CB
:100E400004EBC60000F12808F700D8F808506868DD
:100E5000C008C000B84218BF00F0C2FBD5F8089027
:100E6000454508BF00F0BCFB4D4508BF00F0B8FB8E
:100E70006868C008C000B84218BF00F0B1FBC845A0
:100E800005D120680121B140884320600DE0206930
:100E9000814508D3D9F80C00A84204D1C8F80890BD
:100EA000C9F80C8001E000F09BFB47F0030068608C
:100EB000E8190835416841F001014160F9E0A16895
:100EC000B94280F0C080002800F0A280012505FA18
:100ED00006F149004A42B0401143084041420840EF
:100EE000401E010B01F01001C840420902F0080247
:100EF000D040830803F00403D840460806F00206F9
:100F00005118F0405918C0F340087118414420FAB4
:100F100008F000EB010804EBC80000F128094FEAD3
:100F2000C80AD9F808607068C008C000504518BFEA
:100F300000F056FBD6F808B04E4508BF00F050FB55
:100F40005E4508BF00F04CFB7068C008C00050450B
:100F500018BF00F045FBD94505D1206805FA08F116
:100F6000884320600DE02069834508D3DBF80C003E
:100F7000B04204D1C9F808B0CBF80C9001E000F001
:100F80002FFB47F003007060AAEB0708F0190190EF
:100F900048F0010001994860019840F80880A7686E
:100FA0004FEAD70ABAF1200F28BF00F019FB47B368
:100FB000CDF800A004EBCA00D4F8149000F1280A80
:100FC000D346102F38BF00F00BFB2068009920FAA1
:100FD00001F2D10705D4009905FA01F10843206018
:100FE00007E0DAF80800216988422CBF834600F048
:100FF000F7FACAF80890CBF80C90C9F808B0C9F80D
:101000000CA0C4F8088006F108050198606150E062
:101010006068C0B339462046FFF7ECFD050012D0EA
:1010200047E015F1400F28BF4FF0FF370BD205F115
:101030000B00C7086068FF0028B139462046FFF75B
:1010400019FC050035D1A068B8421CD3C11B6269E8
:1010500010290AD3D0196061A16041F001034360F7
:10106000415047F0030050600AE00021A160616137
:1010700040F0030151601044416841F001014160BA
:1010800002F1080515E0E06887420DD2C01BA16996
:10109000E060CA19A26140F00100506001F108054A
:1010A00047F00300486004E039462046FFF718FA8D
:1010B0000546AFF30080284603B0BDE8F08F00B9C5
:1010C00070472DE9F047A0F10804AFF30080DFF886
:1010D000085528698442C0F07982616801F00302F2
:1010E000012A00F07382CA084FEAC208CA0704EB5B
:1010F000080937D4226811F0030F00F069825142C9
:101100000C4484429044C0F0618269698C4200F0D2
:10111000D980D608202E70D2D4F80CA0A7685445E8
:1011200008BF00F05DFABC4208BF00F059FA6068E1
:10113000C008C000B0EBC60F18BF00F051FA05EBB5
:10114000C60000F128018F4205D029698F4251D392
:10115000F968A1424ED1BA453DD128680121B1407C
:10116000884328604C4580F03182D9F80400C107DB
:1011700040F12C82810700F17D81A969894540F009
:10118000B680E868AC614044E86040F0010161600D
:1011900069698C4202D100216961A960E9698142D3
:1011A00080F01682DFF83404006808B9FEF7ACFF5F
:1011B000A969002900F00C82E868292824BF284684
:1011C000FEF794FFE869E968884280F001824FF0F9
:1011D000FF30E861FCE12830824506D0286982456D
:1011E00008D3DAF80800A04204D1C7F80CA0CAF866
:1011F0000870B7E700F0F4F9B4E7E768A669A7421A
:101200000BD0A168814222D3C868A04204BFB8684D
:10121000A0421CD1CF60B9601BE004F114010F683B
:1012200037B904F110010F689FB101E011460F6852
:1012300007F114021368002B02BF07F110021368B4
:10124000002BF3D1814202D30020086001E000F0BE
:10125000C7F9002E86D0E06905EB80004FF4987145
:10126000084401688C4209D10760380011D1E26955
:101270006868012191408843686073E72869864265
:1012800005D33069A04214BF7761376101E000F0F7
:10129000A7F9002F3FF466AF28698742AAD3BE6141
:1012A000216929B1814226BF39618F6100F098F927
:1012B000606900283FF456AF296988429AD3786163
:1012C00087614FE799F8040000F0030003287FF4DA
:1012D00049AFC5F80880D9F8040040084000C9F8B3
:1012E000040048F00100606044F8088070E169691A
:1012F000894508D1A8686C614044A86040F00101AC
:101300006160205064E1C008C0004FEAD00ABAF121
:10131000200F804437D2D9F80C70D9F80860B9454D
:1013200008BF00F05DF9B14508BF00F059F9D9F8E0
:101330000400C008C000B0EBCA0F18BF00F050F99D
:1013400005EBCA0000F128018E4207D029698E42C0
:10135000C0F08380F168494540F07F80B74206D1F4
:101360002868012101FA0AF18843286077E02830D3
:10137000874205D0286987426FD3B86848456CD149
:10138000F760BE606BE0D9F80C70D9F818604F4573
:101390000DD0D9F808002969884223D3C16849458E
:1013A00004BFB96849451DD1C760B8601CE009F1A8
:1013B0001400076837B909F110000768A7B101E008
:1013C0000846076807F114010A68002A02BF07F1FE
:1013D00010010A68002AF3D12969884202D300214A
:1013E000016001E000F0FCF8002E38D0D9F81C00B4
:1013F00005EB80004FF498710844016889450AD1D3
:101400000760380012D1D9F81C206868012191408A
:101410008843686023E02869864205D330694845DF
:1014200014BF7761376101E000F0DAF8BFB12869D5
:10143000874212D3BE61D9F8101029B1814226BF6C
:1014400039618F6100F0CCF8D9F8140038B12969FE
:10145000884202D37861876101E000F0C1F848F06A
:101460000100606044F80880686984420BD1C5F8C7
:101470000880ADE040084000C9F8040048F00100D1
:10148000606044F808804FEAD807202F22D205EB8D
:10149000C70000F128094E46B8F1100F38BF00F020
:1014A0009FF8286820FA07F1C90704D40121B94040
:1014B0000843286007E0D9F80800296988422CBF52
:1014C000064600F08DF8C9F80840F460A660C4F83C
:1014D0000C907DE05FEA182008BF002123D0B0F512
:1014E000803F28BF1F211ED2A0F58071090C01F09A
:1014F00008018840A0F58052120C02F004029040CE
:10150000A0F580431B0CC1F10E0103F00203891A00
:10151000C91A984001EBD030C11D28FA01F202F03F
:10152000010101EB400105EB81004FF4987210447A
:10153000002262612261E1616A6822FA01F3DB073D
:1015400006D4012303FA01F11143696004601CE031
:1015500000681F291DBF4908C1F1190108FA01F1EE
:10156000414600E010464268D208D200424510D001
:10157000CA0F00EB820202F1100349001A68002A28
:10158000F0D129698B4211D31C60A061E460A46092
:101590000EE02A698168904228BF914206D3CC6050
:1015A0008460E060A1600020A06101E000F018F814
:1015B000286A401E28620BD1D5F8C80100E0806877
:1015C0000028FCD14FF0FF30286201E000F008F85D
:1015D000AFF30080BDE8F087184100207C47002071
:1015E000012000F023B88268521C8260426832B148
:1015F0000268531C036011704168491E41607047C6
:101600000749086808B1002070470648C008C000B4
:1016100008600549C908C900091A0160704700BF80
:10162000E4470020071900200021002080B5AFF317
:101630000080024A11001820ABBEFBE72600020022
:101640002DE9F04F82460FF25860A5B015461E46B0
:10165000D0E90023CDE9122303AF00207960B862FE
:101660000DF1500900E045440020ADF8020012AB36
:101670004FF0FF3229460DF1020001F0AEF880462E
:10168000B8F1010F08DA2878B0F1010868EB080812
:101690006FEA08004FEAD078BDF8020025280CBF99
:1016A000A8F1010BC346BBF1010F0EDB2C4614F869
:1016B000011B7868D0470028786000F0F880B86A8D
:1016C000401CBBF1010BB862F1D1BDF80200252826
:1016D00007D1002038617861B861F86138627862BA
:1016E00005E00028BFD1B86AE2E240F0010015F839
:1016F000011F2029F9D023290DD02B2904D02D2911
:1017000006D030290AD00CE040F0020080B2EEE7AB
:1017100040F00400FAE740F00800F7E740F010005E
:10172000F4E72A290ED13168316051F8042B316079
:10173000002A3A6304D5514240F00400396380B274
:101740006D1C13E0002139630BE0396B6FF000432F
:10175000994205D001EB810302EB43013039396333
:101760006D1C2A78A2F130010A29EED329782E299E
:1017700003D04FF0FF31F9621FE015F8011F2A294D
:1017800007D1316831606D1C51F8042B3160FA6269
:1017900013E00021F9620BE0F96A6FF0004399420F
:1017A00005D001EB810302EB43013039F9626D1C76
:1017B0002A78A2F130010A29EED3B8860FF2E84068
:1017C000297801F01FF808B115F8010B8DF84200D7
:1017D0009DF84200682802BF29786829622005D058
:1017E0006C2804BF28786C2803D171208DF8420042
:1017F0006D1C14A8F86015F8014BB4F125002AD02F
:101800001C3800F0DB80001F022840F2D78013381C
:1018100000F0FB80093800F0D180801E00F0658167
:10182000401E00F03C81401E022840F2C780001F8D
:1018300000F03581401F00F09280401E00F0E580EE
:10184000401E37D0C01E0BD0801E00F0DE80C01EB0
:1018500000F0DB806CE125208DF85000012070E164
:101860009DF842006C283068306016D050F8048B28
:101870003060C7F80880FC6A002C04D5404600F0B0
:10188000CDFF044607E022460021404600F0E2FF7B
:1018900008B1A0EB08047C6154E150F8042B3060DF
:1018A00002A9504600F03EFA002840F14B814FF06B
:1018B000FF30FDE131683160002251F8040B3160E6
:1018C0004FF03C0E0021CDE9020114A8B860DDE91B
:1018D00002019142FC6808BF904201D1FA6AC2B18C
:1018E00000F00F033033DBB23A2BA8BF2733AEF141
:1018F00001020009A354964640EA0170090900223A
:10190000914208BF904204D0BA6804EB0E039A4299
:10191000E6D304EB0E01B960CEF13C00F96A7861C0
:10192000884207DA081AF8614FF6EF71B88E08405E
:10193000B88607E1002940F1058197F8341001F0DD
:101940001401102940F0FE80396B3A69891AFA694E
:10195000891A081A0128C0F2F580F861F2E09DF8B2
:10196000420062281AD0682806D06A280CD06C2859
:101970001CD0712808D019E03068306050F8041B82
:101980003060B86A0880DDE03068306050F8042BC1
:101990003060B86AC117C2E90001D3E03068306036
:1019A00050F8041B3060B86A0870CBE030683060D3
:1019B00050F8041B3060B86A0860C3E03068C01D8E
:1019C00020F007023260D2E9000108323260CDE92E
:1019D0000201002902D538692D2109E0B88E81075E
:1019E00002D538692B2103E0C00705D538692021CD
:1019F00009F80010401C386114A839690844B8601F
:101A0000214602A800F09AFB9CE09DF842006C2859
:101A10000DD0712818BF6A2809D13068C01D20F088
:101A200007023260D2E900010832326005E0316815
:101A3000316051F8040B31600021CDE902019DF8BD
:101A40004200682803D1DDE9020180B20BE0622880
:101A500003D1DDE90201C0B205E0742818BF7A287D
:101A600004D1DDE902010021CDE9020197F834003B
:101A7000000731D5DDE902230020834208BF8242FE
:101A80002AD044F02000782826D13869302109F87E
:101A90000010401C411C396109F800401CE09DF811
:101AA0004200314600F007F9CDE90201DDE90223E9
:101AB00000218B4202DA38692D2109E0B88E8107B6
:101AC00002D538692B2103E0C00705D538692021EC
:101AD00009F80010401C386114A839690844B8603E
:101AE000214602A800F0A4FA2CE09DF842006C28E0
:101AF00009D0012038613068306050F8041B306034
:101B00008DF850101EE03068306001AA50F8041BB8
:101B10003060ADF804100020ADF8060002A94FF0C7
:101B2000FF30F862504600F0FDF800280AD5BEE606
:101B300025208DF85000012038611CB189F8014042
:101B400002203861386B3969401AF969401A79699D
:101B5000401A396A401AB969401A796AA0EB01083B
:101B600097F83400400711D42020B8F1010F8DF808
:101B700000000BDB444601236A4602A9504600F0F0
:101B800007FE00287FF493AE641EF4D1D7F810B09E
:101B9000BBF1000F14AC0DD014F8011B7868D047CE
:101BA000002878603FF483AEB86A401CBBF1010B9B
:101BB000B862F1D130208DF80000FC69012C0ADBFD
:101BC00001236A4602A9504600F0E2FD00287FF496
:101BD0006EAE641EF4D1D7F814B0BC68BBF1000F30
:101BE0000DD014F8011B7868D047002878603FF4C6
:101BF0005EAEB86A401CBBF1010BB862F1D1302077
:101C00008DF800003C6A012C0ADB01236A4602A918
:101C1000504600F0BDFD00287FF449AE641EF4D1AB
:101C2000B8687969D7F818B04418BBF1000F0DD027
:101C300014F8011B7868D047002878603FF437AE6D
:101C4000B86A401CBBF1010BB862F1D130208DF8AD
:101C500000007C6A012C0ADB01236A4602A9504677
:101C600000F096FD00287FF422AE641EF4D197F8B0
:101C7000340040077FF5F8AC2020B8F1010F8DF853
:101C80000000FFF6F1AC01236A4602A9504600F0BD
:101C90007FFD00287FF40BAEB8F10108F3D1E3E437
:101CA0000000000000000000686A6C747A4C0000BC
:101CB00025B0BDE8F08F622826D068281DD06A289C
:101CC00008D06C2827D0712804D0742823D07A2813
:101CD0000CD020E00868C01D20F007000860D0E9A3
:101CE0000023083008601946104670470A680A60E9
:101CF00052F8040B0A60002170470A680A6052F823
:101D0000040B0A6000B20BE00A680A6052F8040B88
:101D10000A6040B204E00A680A6052F8040B0A60E4
:101D2000C11770472DE9F44F0D4694B0D5F830A097
:101D3000BAF1000F804648BF6FF0004A00F0B6FDD0
:101D4000696B401801900FF67820D0E90023CDE9A7
:101D5000022395F83800400702D40198412805D2A3
:101D600040200DF110090190002609E0FFF74CF822
:101D70005FEA0009F8D14FF0FF3056E1AAEB040A00
:101D8000BAF1010FC0F2CE801498018802AA0DF1B9
:101D9000010000F090FD0028044600F1DE80149858
:101DA000008810B9641E00F1D880A245C0F2BA8044
:101DB000686901992218914280F0A2806E634042C6
:101DC000296A401AA969401A696A401AE969401AE1
:101DD000A96A461A95F83800400710D42020012E31
:101DE0008DF800000BDB374601236A462946404642
:101DF00000F0CEFC002840F0B0807F1EF4D1D5F872
:101E000014B0BBF1000F4F460DD017F8011BA868A6
:101E1000C0470028A86000F0A080E86A401CBBF121
:101E2000010BE862F1D130208DF800002F6A012FFC
:101E30000ADB01236A462946404600F0A9FC002837
:101E400040F08B807F1EF4D1D5F818B0EF68BBF15D
:101E5000000F0CD017F8011BA868C0470028A86025
:101E60007BD0E86A401CBBF1010BE862F2D1302064
:101E70008DF800006F6A012F09DB01236A462946AD
:101E8000404600F085FC002867D17F1EF5D1E86848
:101E9000A969D5F81CB04718BBF1000F0CD017F892
:101EA000011BA868C0470028A86056D0E86A401CFB
:101EB000BBF1010BE862F2D130208DF80000AF6A6F
:101EC000012F09DB01236A462946404600F060FCE9
:101ED000002842D17F1EF5D195F8380040070DD576
:101EE0002020012E8DF8000008DB01236A462946D8
:101EF000404600F04DFC80BB761EF6D100266E6198
:101F0000224668690DF10101484400F0E1FC68696E
:101F1000201868611498801C1490801E0088002886
:101F20007FF42CAF686B6969401A296A401AA96965
:101F3000401A696A401AE969401AA96AA0EB010AC5
:101F400095F83800400710D4BAF1010F0DDB544664
:101F5000A8682021C047A86010B94FF0FF365DE0A7
:101F6000E86A401C641EE862F2D16B694A46294661
:101F7000404600F00DFC0028EFD12C6A012C0ADB52
:101F8000A8683021C0470028A860E6D0E86A401C55
:101F9000641EE862F4D1AB69EA682946404600F065
:101FA000F7FB0028D9D16C6A012C0ADBA868302124
:101FB000C0470028A860D0D0E86A401C641EE862D0
:101FC000F4D1E868A969EB6942182946404600F057
:101FD000DFFB0028C1D1AC6A012C0ADBA8683021E4
:101FE000C0470028A860B8D0E86A401C641EE862B8
:101FF000F4D195F8380040070ED5BAF1010F0BDB8C
:10200000A8682021C0470028A860A6D0E86A401C24
:10201000BAF1010AE862F3D16E616E6304A88145EA
:102020001CBF4846FFF74BF8304615B0BDE8F08FAF
:102030002DE9F343054608462F696F2808BF082499
:1020400005D041F02001782914BF0A2410243C2631
:10205000D5E90023642818BF69289046994606D11F
:1020600000218B4203DAD8F1000869EB490900200E
:10207000814508BF80450CD1286B50B9082C38D158
:1020800095F83800000734D530203B2687F83B0010
:102090002FE0701E00900646404649462246E31750
:1020A00000F052FC02F13000C0B23A2803DB9DF888
:1020B000041051390818B855494640462246E317DE
:1020C00000F042FC804689460020814508BF8045DB
:1020D00003D0E868B9198842DBD3082C09D195F8F8
:1020E0003800000705D5B85D302802D0761E3020B4
:1020F000B855B919E960C6F13C00296BA86188425E
:1021000008DA081A28624FF6EF71288F08402887EE
:10211000BDE8F38300290ED595F8381001F01401BD
:10212000102908D1696B6A69891A2A6A891A0E1AF4
:10213000012EA8BF2E62BDE8F38300002DE9F24F07
:1021400004468EB0D4E90001CDE9020104AF9DF848
:10215000380040F0200BBBF1610F0AD0206B002843
:1021600048BF062004D408BFBBF1670F01D101208E
:1021700020636168C1F30A5040F2FF7290421CD1A3
:10218000080304BF2068002809D10320A0619DF83E
:10219000380061381A2835D30FF2386108E003207F
:1021A000A0619DF8380061381A2828D30FF21C610D
:1021B000E068032200F08CFBBDE1012815DA20461F
:1021C00000F039FC012810DB00250020BBF1610F75
:1021D0001FD1E16830220A708A1CE2609DF8382025
:1021E000612A0CBF782258220FE0626840F2FE316B
:1021F00061F31E52451A62604FF0FF30E6E70FF2BE
:10220000C851D5E70FF2C851D2E74A706169891CFD
:10221000616110B90026002584E1BBF1610F40F037
:102220009880206BD4E900AB00284CBF2126461CC7
:10223000DDE902010022002300F020FC36B23ABFA3
:102240008BF00040CDE902A0CDE902AB06F1010818
:102250002D1FB8F1010F8DF810200DF1110736DB9D
:10226000DDE902010022002300F020FC2FD21C2116
:1022700002A800F033FCDDE9020100F0B5FCA8F192
:102280000708B8F1010F814609DB00F0D9FC0246CE
:102290000B46DDE9020100F0EBFCCDE90201F81D7F
:1022A000072105E009F00F0200F8012D4FEA291976
:1022B000B9F1010F01DB491EF4D5491E5CBF0022B4
:1022C00000F8012DF9D5C71DB8F1010FC8DA0DF1DD
:1022D0001100391AB142B8BF0E4636B230000DF1C6
:1022E00011072FD4884206DA04A901444978082945
:1022F000A8BF0F2100DA002104AA024400E0761EE4
:1023000012F80139401E8B42F9D00F2904D104A9DB
:1023100001444A78521C4A70002802D504AF761C4A
:102320002D1D36B2701E0DD439180A783032D2B253
:102330003A2A03DB9DF838303A3B9A18401E01F8E0
:102340000129F2D5206B002840F1EC80701E20633B
:10235000E8E0DDE902010022002300F08FFB3CBF32
:1023600081F00041CDE902012DB247F29750684358
:102370004B49DFF8309190FBF1F52DB2C5F1070A1A
:10238000BAF1010F90461CDBDDE902675FEACA7013
:1023900007D542464B463046394600F029FD0646F1
:1023A0000F464046494642464B464FEA6A0A00F00D
:1023B0001FFDBAF1000F80468946E7D1CDE90267DB
:1023C00024E0CAF1000A0026374F14E05FEACA7021
:1023D00007D542464B463046394600F009FD0646D1
:1023E0000F464046494642464B4600F001FD4FEA43
:1023F0006A0A80468946BAF1000FE7D1DDE9020199
:1024000032463B4600F0C6FDCDE90201BBF1660F46
:10241000216BDFF898900CBF05F10A0006204618E2
:10242000142EA8BF132630208DF810000DF11107CF
:10243000012E3DDBDDE9020100F0ECFB07F10801B4
:1024400004220A23B0FBF3F303EB8307A0EB47005E
:10245000303001F8010C0A20B3FBF0F000EB8007EC
:10246000A3EB47033033521E01F8023DE9D1083E89
:10247000012E01F10807DBDBDDE9020100F0CAFBF8
:1024800000F0E8FB02460B46DDE9020100F0F0FB3C
:1024900000224B4600F0ACFCCDE90201CAE700BFC8
:1024A000A0860100000024400000F03F84D797413F
:1024B0000DF11100381A0DF1110702E0401E6D1EDA
:1024C0007F1C39783029F9D0BBF1660F08BF691C31
:1024D00004D0BBF1650F0CBF01210021226B8E18C7
:1024E00036B2B042B8BF064636B231001AD4814285
:1024F00004DA785C3528A8BF392000DA30207A1851
:10250000521E00E0761E12F80139491E8342F9D0AE
:10251000392802D1785C401C7854002902D57F1EEE
:10252000761C6D1C2DB29DF83810009533B23A46DA
:10253000204600F003F80FB0BDE8F08F2DE9F0471A
:1025400086B006468A4690461D4600F06CFE012D78
:10255000406A376B90F8009002DA01250FF2782874
:102560004AF02000BDF93840662808BF641C12D02C
:10257000672878D114F1040F7BDBBC4279DA96F836
:102580003800641C000702D4BD42B8BF2F4624B2F5
:102590003F1B48BF002724B2F068B169012C23DA41
:1025A0004A1C30234354012F03DA96F83800000701
:1025B00003D5F06800F80290521CE742B8BF7C4295
:1025C00024B260427062E719AF42B261B8BF3D46C3
:1025D000F068B3692DB2F5612A464146184400F00F
:1025E00077F9781BB062BCE022469542084416DABF
:1025F0002A46414600F06CF9B1696918601B012F49
:10260000B161706203DA96F83800000705D5F0680A
:1026100000F80190F069401CF061B762A1E041460A
:1026200000F056F9B06920182D1B012F03DA96F837
:102630003810090703D5F16801F80090401CB0611B
:102640002DB2AF42B8BF3D46F068B3692DB22A46FD
:1026500008EB0401184400F03BF9B0692818B06198
:10266000781B70627DE0BAF1610F14D14FF0700AEF
:1026700016E0BD4204DA96F83810090758BF2F4615
:102680007F1E48BF0027BAF1670F14BF4FF0450AFD
:102690004FF0650A04E0BAF1410F08BF4FF0500A4D
:1026A000B169F368481CB061012F18F8012B5A5426
:1026B00003DA96F83810090717D5F168431CB3619F
:1026C00001F80090012F10DB6D1E2DB2AF42B8BF94
:1026D0003D46F0682DB22A464146184400F0F8F80D
:1026E000B0692818B061781B7062F068B169014464
:1026F000200081F800A004D42B20487001F10208CA
:1027000004E02D224A7001F102086442002502AF64
:1027100008E00A22684600F09FFD019807F8010BC7
:102720006D1C009C21B20129F3DA022D06DA4AF071
:102730002000652804BF302008F8010B4DB9302077
:1027400008F8010B07E06D1E02A8405D303008F864
:10275000010B012DF7DAF068B1690844A8EB00001D
:10276000F06196F8380000F0140010280DD170695F
:10277000B1690818716A0818F1690818B16A08186F
:10278000716B8842BCBF081A306206B0BDE8F087A2
:10279000F8B504460D4616461F46002077B116F8D8
:1027A000011BA868A047A86030B1E86A401CE86235
:1027B00000207F1EF3D1F2BD4FF0FF30F2BD0000CC
:1027C00000000000000000006E616E004E414E00EF
:1027D000696E6600494E46003000F8B504460D4665
:1027E00016461F4600F049FD3B4632462946204624
:1027F00001B0BDE8F04000F056BD0268531C036014
:10280000117070470278C9B28A421AB11CBF10F821
:10281000012FF9E718BF00207047000000F1010305
:10282000810704D010F8011B89B18107FAD1026831
:10283000B2F10131914311F0803F04BF50F8042FF1
:10284000F6E710F8011B11B110F8011BFBE7C01AE5
:1028500070470000C9B2830706D0521E22D310F879
:10286000013B9942F7D11FE0083A13D302F1040269
:1028700041EA012141EA014150F8043B121F21BF06
:102880004B40A3F1013C2CEA030C1CF0803FF3D039
:10289000C9B2001F083210F8013B521E28BF91EA4E
:1028A000030FF8D818BF0120401E704780B500F014
:1028B000E4FC012002BD70B504460D46164600F04A
:1028C000DCFC324629462046BDE8704000F0DEBC04
:1028D00062B38B0708D0521E11F8013B00F8013B90
:1028E00000F024808B07F6D1830740F0208000BFE2
:1028F000103A07D330B4B1E83810103AA0E83810D5
:10290000F9D230BC530724BFB1E80810A0E8081082
:1029100044BF51F8043B40F8043BD20724BF31F8D0
:10292000022B20F8022B44BF0B7803707047083A43
:1029300007D3B1E80810083A40F8043B40F804CB4C
:10294000F7D25307E4E700001B4213D1094236D106
:102950002AB18446B0FBF2F002FB10C2704700F0CF
:10296000C5BCFCD30022002370470B0002000021ED
:1029700000207047904271EB030CF6D370B5B1FAAA
:1029800081F4B3FA83F52C1BA340C4F1200532FA7D
:1029900005F63343A2405FF00046E64002E05B08E4
:1029A0005FEA3202841A71EB030524BF20462946F0
:1029B0007641F4D302000B003000002170BD012AE3
:1029C000CFD970B5140C20D0B1FA81F4B2FA82F5E7
:1029D000C4F120046419B4F12006D6D3B2405FF0EC
:1029E0000044F440002502E052085FEA3303C61AAF
:1029F00071EB020E24BF3046714664416D41F3D342
:102A000002000B002000290070BD0C46B1FBF2F162
:102A100002FB11452D0445EA1045B5FBF2F402FB1B
:102A2000145580B240EA0545B5FBF2F002FB1052A6
:102A300040EA044070BD30B4436803F00042012115
:102A4000C3F313034360002B04BF0368002B08D1BA
:102A50000DE00368DD0F45EA440444605B00036059
:102A6000491E4468E302F4D5C4F31303436043688A
:102A70001A434260084630BC704700004FF4001C07
:102A80001CEB410F94BF1CEB430F09E041EA030C20
:102A900050EA4C0C52EA0C0C03D2994208BF904207
:102AA000704714BF8B428242704700004FF4001CF5
:102AB0001CEB410F94BF1CEB430F09E041EA030CF0
:102AC00050EA4C0C52EA0C0C03D28B4208BF8242F3
:102AD000704714BF994290427047000070B5044699
:102AE0000D466068C0F30A5040F2FF71884207D17A
:102AF0006068000304BF2068002817D0022070BD62
:102B000020B92046FFF797FF012866DA012D0FDB79
:102B100040F2FF71091A8D420AD36068002847BF4E
:102B200000202F4900202F49C4E90001012070BD79
:102B30004142A942616806DA6FF31E51401941EA29
:102B40000050606040E0401E63684519012205F1B5
:102B5000350062F31F53352801F00041636003D351
:102B600061600020206070BD002015F11F0F04DAA5
:102B7000206823600022203562606A4212D0401E25
:102B800025688041C2F12003C0439D4045EAD070D2
:102B900025686668D54006FA03F32B432360636813
:102BA000D340636062680A43B0F1004F626003D8AB
:102BB0000DD12078C0070AD52068401C206020680D
:102BC00028B96068401C60604FF0FF3070BD6068DD
:102BD000884204BF20680028F6D1002070BD00BFE5
:102BE0000000F0FF0000F07FF446400D40EAC120F5
:102BF000490006D200F014F8004248BF6FF00040D0
:102C0000604700F00DF84FF0004188428CBF084645
:102C100040426047400D40EAC120490080F00D80ED
:102C200040F00040490DA1F58061491C05D4D1F167
:102C30001F0154BFC840C01770474FF000007047D5
:102C4000010040F10980F446404200F005F851F0DF
:102C500000416047010000BF09D0B0FA80F1884010
:102C6000C91CC1F58461090501EBD02140057047FD
:102C7000F0B44FF0004591EA030F44BF6B4000F001
:102C800041BB00BF841A71EB030604D26E40001BE7
:102C9000B141121973414FF4001C1CEB410F34BFBA
:102CA0007CEB430684E00C0DA4EB1356362E7DDC42
:102CB000012E43DC45EAC32343EA525312BFD2023A
:102CC00092025B08240545EAC12141EA5051D2EB4A
:102CD000C020994125D407D1B0FA80F610FA06F148
:102CE00064D00020203608E0B1FA81F6B140C6F188
:102CF000200220FA02F21143B0404FEAF474B4EB20
:102D0000465434F001064FEA74040AD8D6F500168A
:102D1000760D04F00044F04061FA06F25040F140B4
:102D20004840C00A40EA415021F0004128BF5FEA14
:102D3000500550F1000044EBD12137E045EAC323B0
:102D4000DB0A45EAC121C90AB6F120050EDD42EAD7
:102D50000242120CC5F1200603FA06F6EB4042EAE5
:102D600006056D42984161F100010DE062FA06F539
:102D7000F240554063FA06FC82EA0C02F3405A40E6
:102D80006D42904161EB030111F4801F05D1641E77
:102D9000620502D06D004041494121F48011430891
:102DA00075F1004350F1000041EB0451F0BC704755
:102DB0001CEB410F15D223F0004352EA43060BD01F
:102DC0004FEA4C0CBCEB410F04D80C0D661E342EA0
:102DD000B7DDEBE7801A994150EA410608BF0021B0
:102DE000E4E708BF1CEB430F28BF6FF00001DDE7ED
:102DF000B0B581EA030C0CF0004C40F2FF7515EA07
:102E000011541DBF15EA1357AC42AF4239E0E41923
:102E100023EA455343F48013C90241F0004141EADB
:102E2000505EC7021100A7FB020200284FF000000D
:102E3000EEFB01204FF00001E3FB072118BF42F039
:102E40000102401800214941E3FB0E01A4F5806412
:102E50000F0302D252004041494154F101046CDD9C
:102E6000470872F1004250F1000051EB0451A1F506
:102E700080115CBF41EA0C01B0BD4CEA0551002055
:102E8000B0BD05EA1357AC4214BFAF4241E050EA6F
:102E9000410E1CBF52EA430E02E061460020B0BD65
:102EA00024423C441BD15FEA070EF6D0090302BF5F
:102EB00001460020AEF1140EB1FA81F7AEEB070423
:102EC00001FA07FE0C37C7F1200100FA07F7C840E6
:102ED0004EEA000E23EA455343F48013A2E733F091
:102EE0000043B3FA83F704BFB2FA82FE77440B3F84
:102EF000E41BB7F1200E2FBF02FA0EF3BB40C7F15F
:102F0000200E22FA0EFE38BF43EA0E03BA40641CBC
:102F100082E750EA410E14BF52EA430E6FF00001FF
:102F20004FF4001717EB430F8ABF194617EB410FF9
:102F3000B5E74CEA05510020B0BDD4F10104B4F16D
:102F400020070FDAC4F12007520828BF42F001021F
:102F500010FA07F501FA07F7E1BF2A43E0403843CA
:102F6000E1400FE0352C98DCC7F1200452EA400222
:102F700020FA07F218BF42F0010231FA07F0A1402F
:102F80000A43002172F1004250F1000051EB0C01A4
:102F9000B0BD00002DE9F04140F2FF7581EA030C5D
:102FA0000CF0004C15EA11541DBF15EA1357AC4242
:102FB000AF42E9E0BC41C1F31301C3F31303801A2C
:102FC000994143F4801304D2641E400049418018A3
:102FD0005941C90241EA5051B1FBF3F603FB161106
:102FE000A2FB0675D7EBC020A94102D2761E80183D
:102FF0005941C90241EA5051B1FBF3FE03FB1E11D6
:10300000A2FB0E75D7EBC020A94103D2AEF1010E91
:1030100080185941890241EA9051760546EA8E2E80
:10302000B1FBF3F603FB1611A2FB0675D7EB80206C
:10303000A94102D2761E80185941C90241EA505175
:103040004EEA060EB1FBF3F603FB1611A2FB067562
:10305000D7EBC020A94102D2761E80185941C9027F
:1030600041EA5051B1FBF3F703FB1711A2FB0735FF
:10307000D3EBC020A94167F100070CBF004247F025
:10308000010766F3D5274FEA1E31B80814F58064AE
:1030900014DDBD0775F1004250EB0E5051EB0451A9
:1030A00011F5801F5CBF41EA0C01BDE8F0814CF0D6
:1030B0007F6141F0E0410020BDE8F081BD076D086F
:1030C00040EA0E5041F48011D4F10104B4F120061D
:1030D0000ADAC4F120060200E04001FA06F3E140FA
:1030E0001843B24015430EE0342C14DCC6F1200422
:1030F00045EA40056D0820FA06F2154321FA06F06C
:10310000A1400D43002175F1004250F1000051EB48
:103110000C01BDE8F08100205FEA0C01BDE8F08100
:10312000CFB992185B41B3FA83F704BFB2FA82F6C3
:10313000BF190B3FB7F120062FBF02FA06F3BB40C1
:10314000C7F1200622FA06F638BF3343BA401CB155
:10315000E419641E2FE77F4231F00041B1FA81F497
:1031600004BFB0FA80F6A4190B3CB4F120062FBFBF
:1031700000FA06F1A140C4F1200620FA06F638BF95
:103180003143A0403C1B16E7AC421ABF05EA135777
:10319000AF4214E050EA41061CBF52EA4306BFE7C3
:1031A00050EA4107304661461CBF41EA0551BDE87F
:1031B000F08152EA430C08BFC143BDE8F081002012
:1031C0004FF4001616EB410F98BF16EB430F08BFE4
:1031D00016EB410F24BFC14305E016EB430F0CBFB4
:1031E00061464CEA0551BDE8F081000080B5134806
:1031F00000F0F2F80FF24C020FF24401016042625B
:1032000041600FF24402826381600FF24402C160A8
:103210000161416181618162C16201634163C26395
:103220000164416401BD10B5044800F0D5F80446BE
:10323000206808B9FFF7DAFF204610BD741000209F
:10324000000000002E00000066616C736500000045
:10325000747275650000000091FBF2F303FB12111C
:10326000C0E900317047000010B50446DFF81800CF
:1032700000F0B2F850F8240010BD80B5DFF8080067
:1032800000F0AAF8806902BD0810002030B430B9FF
:103290000FF24800D0E90045C2E900451BE001708B
:1032A000012030BC704730B431B90FF23800D0E99A
:1032B0000045C3E900450EE01AB930BC6FF00100CB
:1032C000704708B10A7802800978481E804130BCF6
:1032D000C043C00F7047002030BC704700000000A2
:1032E0000000000000000000000000007047000027
:1032F000F0B44FF0004591EA030C44BF6B40FFF778
:10330000C1BC00BF841A71EB030603D2001BB1419C
:10331000121973414FF4001C1CEB410F34BF7CEBBE
:10332000430443E00C0DA4EB1356352E50DC45EA64
:10333000C323DB0A45EAC121C912B6F120050DDD20
:1033400063FA05F6EB4086EA0305124218BF45F022
:103350000105C01851F100010CD213E062FA06F524
:10336000F2405540F3415A40B340F3405A40801870
:10337000594107D349085FEA30005FEA350528BFA5
:1033800045F0010501F58011420875F1004250F148
:10339000000041EB0451F0BC4FF4001C1CEB410F4A
:1033A00038BF70470020090D090570471CEB410F1D
:1033B00010D252EA43060BD0BCEB410F05D80C0DDE
:1033C000AB43661E342EB5DD02E0AB438018594195
:1033D000F0BC7047F0BC70477047000070B5040047
:1033E0000D4601D1D5B100E015B9012070BD6D1CAD
:1033F000207801F027F80646287801F023F8864265
:1034000004D114F8010B0028F1D170BD207801F02F
:1034100019F80446287801F015F8201A70BD70B527
:103420000446FFF7FBF900F0A8FB451C2846884737
:10343000060001D1002070BD2A462146FFF748FA58
:10344000304670BD10B500F098FB28208847040076
:103450001CBF282101F000F8204610BD70B5040003
:10346000DFF8406B19E0E0682568C00503D4A06868
:1034700008B1FFF7F3FFE068C00503D4206908B185
:10348000B1688847E068800503D4206A08B1B16854
:103490008847B168204688472C00E4D170BD2DE9EB
:1034A000F94B82B001200E46009000273078DFF8FB
:1034B000FCBA002400252D2804BFDFF8F4BA761CDE
:1034C000A0463078302808BF761CA94630783138BD
:1034D00009280ED200F077F800F06FF842464B460C
:1034E000FFF706FF804616F8010F30380A28894694
:1034F000F0D330782E281CD1707830380A2818D2B2
:10350000761C00F060F800F058F842464B46FFF792
:10351000EFFE804689460020DFF8941A22462B46AB
:10352000FFF7E6FE044616F8010F30380A280D466C
:10353000E7D33078652818BF452815D116F8010F54
:103540002B2804D02D280BD14FF0FF300090761C93
:1035500006E016F8011B0A2000FB0710A0F1300757
:10356000307830380A28F4D300225B46404649467A
:10357000FFF73EFC8046009889467843FFF760FBE2
:1035800022462B46FFF7B4FE02460B460020DFF82A
:10359000241A01F09FF942464B46FFF729FC029A94
:1035A000C2E90601FFF720FB029948610320029956
:1035B000C860304604B0BDE8F08B8046307889465C
:1035C0003038FFF73DBB0020DFF8E81942464B4694
:1035D000FFF70EBCF8B504001CBF2068002801D11D
:1035E0000020F2BDA268636851188B4201DB1044D1
:1035F000F2BD481E40EA600040EAA00040EA201008
:1036000040EA2020DFF89C69716840EA2040451CB0
:10361000284688470700B668206804D1B0470020D4
:1036200060602060F2BD626801463846FFF750F9DD
:103630002068B04765602760A0683844F2BD10B5C7
:1036400000281CBF0168002901D1002010BD84683A
:103650000819FFF7E3F8001910BD2DE9F0410646FF
:10366000DFF840094568D6E906480F4600200021EA
:103670002246434601F048FB0ED11FB1022100F063
:103680003BFA01E00220A847070069D0B9A0017801
:1036900039704178797063E07069FFF7D1FA22469A
:1036A0004346FFF7E5FA00F063F81CD22046414696
:1036B000DFF83C2CDFF83C3CFFF7E0F913D20022A6
:1036C000DFF8343CFFF7F2F90DD81FB1152100F0F7
:1036D00013FA01E01520A847070041D07269A6A19E
:1036E00001F022FB3CE01FB1402100F005FA01E0AF
:1036F0004020A847070033D02046414601F02EFB6A
:1037000022464346FFF7B4FA00F032F80ED22046C4
:1037100028F00041DFF8E42BDFF8E43BFFF7AEF9D7
:1037200004D2224643460FF2400116E0204628F01C
:103730000041DFF8D02BDFF8D03BFFF79FF905D32E
:103740000122DFF8C83BFFF7B1F903D82246434610
:103750008AA102E02246434689A1384601F0E4FAF4
:103760003846BDE8F0810000252E306600000000DC
:1037700021F000410122DFF8243CFFF77FB910B5AA
:103780000178A1F130030A2B38BF30390AD3A1F1F7
:103790004103062B38BF373904D3A1F16102062A51
:1037A0003DD257394278A2F130040A2C38BF303A62
:1037B0000AD3A2F14104062C38BF373A04D3A2F150
:1037C0006103062B2BD2573A02EB01118278A2F14A
:1037D00030040A2C38BF303A0AD3A2F14104062C37
:1037E00038BF373A04D3A2F16103062B17D2573AF8
:1037F000C078A0F130030A2B02EB011103D230385C
:1038000000EB011010BDA0F14103062B38BF373883
:10381000F6D3A0F16102062A38BF5738F0D3002052
:1038200010BD2DE9F84304460F467D1C3A78DFF8B9
:1038300074170020222A06D00F6098E015F8012B9B
:103840005C2A08BF6D1C2A78222A18BF002A01D0E2
:10385000401CF3D14968401C88475FEA000908BF53
:103860000020EAD07D1C4F460FF2181803E015F82F
:10387000010B07F8010B2878222818BF00286BD00D
:103880005C28F4D115F8010F62280AD066280AD006
:103890006E280AD072280AD074280AD075280AD057
:1038A00056E0082054E00C2052E00A2050E00D20A1
:1038B0004EE009204CE0681CFFF761FF06462D1D15
:1038C000A6F55C40B0F5806F44D3002E42D0A6F53B
:1038D0005840B0F5806F17D268785C2804BFA8788C
:1038E000752837D1E81CFFF74AFFAD1DA0F55C41F4
:1038F000B1F5806F2ED2DFF8D41A01EA8621C0F329
:103900000900084300F580360420802E02D20120F1
:103910007F1C16E0B6F5006F02D20220BF1C0EE03D
:10392000B6F5803F07D306F0BF0141F0800107F8EC
:10393000031FB60901E00320FF1C00F027F800F088
:1039400025F818F80010314307F8011D074401E07D
:1039500007F8010B6D1C8EE7002038702878C4F83A
:103960001090222808BF6D1C0420E0602846BDE8A6
:10397000F28300003000000025640000256500008F
:10398000256600000000C0E0F0F8FC0006F0BF0172
:1039900041F0800107F8011DB60970472DE9F04795
:1039A00082460F4600260020544608E0202903DB0B
:1039B000222918BF5C2901D140F00100641C217844
:1039C0000A00F3D1DFF8DC15D1F80480C0B9A4EB0C
:1039D0000A06F01C1FB1014600F08EF800E0C04757
:1039E00007003DD03C46222004F8010B51462046FA
:1039F00001F0E4F92220A055A1190020487070E0E0
:103A0000BAF1000F0FD11FB1032100F075F801E0EA
:103A10000320C047070008BF002063D0032295A100
:103A2000FEF756FF5DE054460FF2BC0903E0202D7F
:103A3000B8BF761D641C25784DB1761C07D0294689
:103A40004846FEF7DFFE0028F1D0761CF2E7F11CB5
:103A500017B100F051F801E00846C047070001D156
:103A600000203FE03E462220544606F8010B0FF2AC
:103A7000800503E014F8010B06F8010B2078010023
:103A80002BD0202803DB222818BF5C28F2D15C2031
:103A900006F8010B14F8012B082A0ED0092A14D0BD
:103AA0000A2A0ED00C2A0AD00D2A0CD0222A18BFBE
:103AB0005C2A0CD106F8012BE0E76220DCE76620E7
:103AC000DAE76E20D8E77220D6E77420D4E72946DB
:103AD000304601F029F9761DD0E722203070002011
:103AE00070703846BDE8F087225C080C0A0D0900AA
:103AF000752530347800000038466BE500694DE7E5
:103B000000E0401C20B101780A0001D02129F8DB37
:103B100070472DE9F04104460D461646FFF792FC2A
:103B20008046DFF880740020B8F1000F38601BD0A9
:103B30002046FFF7E5FF0146404600F022F804006A
:103B400003D14046FFF78AFC09E056B1FFF7D8FFE2
:103B50000446207828B14046FFF780FC3C600020F6
:103B600002E005B12C604046BDE8F0810022002152
:103B7000CFE70023002200217EE0DFF82814496807
:103B80007047F8B50E00074671D004220FF69C016D
:103B9000304601F035F910B90220F86013E0052233
:103BA0000FF69001304601F02BF910B9F860701D46
:103BB000F2BD04220FF68401304601F021F920B94C
:103BC0000120F8607861301DF2BD3078014622296D
:103BD00004D131463846BDE8F44022E62D2902D012
:103BE00030380A2804D231463846BDE8F44056E45D
:103BF0005B29DFF8B04332D138D10520F860701C62
:103C0000FFF77EFF064630785D2826D0FFF71AFCC6
:103C10000500BD602BD03046FFF772FF01462846F5
:103C2000FFF7AFFFFFF76CFF060020D030782C289D
:103C300011D1FFF707FCD0B1286045600546701C24
:103C4000FFF75EFF01462846FFF79BFFFFF758FF8F
:103C50000600EBD10BE05D2808D1701CF2BD7B297A
:103C600004D131463846BDE8F44046E126600020E4
:103C7000F2BD000022220000F8B50024002850D038
:103C8000D0F80CE00FF2A4750FF2A8760FF2AC7723
:103C9000002B5FFA8EFE24D0BEF1060F40D8DFE87D
:103CA0000EF00B13041C1E393C0000F03BF804001E
:103CB00036D0052229460DE0062100F034F8040034
:103CC0002ED00622314605E000F02CF8040027D063
:103CD00005223946FEF7FCFD22E0194613E019469D
:103CE00015E0BEF1060F1BD8DFE80EF00608040C45
:103CF00010141700284602E0304600E03846FFF76F
:103D00008EFB0CE00021FFF7A8FC08E00021FFF784
:103D1000F5FE04E000F009F801E000F056F9044671
:103D20002046F2BD0521184654E42DE9F24F044621
:103D300082B0A5684FF0000993461E464FF0050873
:103D4000CA46002702E02D6809F10109002DFAD1C9
:103D500094484168B9F1000F0DD11EB1032100F064
:103D6000C9F801E003208847040003D003228EA194
:103D7000FEF7AEFDB0E0002E41D0D6F808A001213C
:103D800000F0B8F807003FD05B203870B068401CE6
:103D9000B060A56811E008F1010100F0ABF8070080
:103DA00032D000F09CF81CBF202007F8010B002047
:103DB0003870B0684044B0602D68ADB133460298A9
:103DC000411C5A462846FFF757FF3046FFF737FC9D
:103DD000B06028680028EFD0BBF1000F14BF4FF08F
:103DE00002084FF00108D6E7022100F083F807002F
:103DF0000AD000F07AF8306800EB0A046CE04FEA71
:103E000089008847060001D1002066E04FEA890159
:103E100000F022FBA56801E001272D68C5B1BFB9FC
:103E20000298411C00235A462846FFF725FF46F812
:103E30002A0000280AF1010AEED0FEF7EFFC5FEA43
:103E40000B0118BF01214044081800F10208E4E703
:103E50002FB9FFF792FE4046884704000FD14FF07C
:103E6000000A05E056F82A0000B188470AF1010A65
:103E70004C488168CA45F5DB30468847C4E75B207B
:103E80002070671C0020387082461CE056F82A001B
:103E90000090FEF7C3FC054600992A463846FEF717
:103EA00017FD7F19A9F10100824507D000F017F82E
:103EB0001CBF202007F8010B0020387056F82A009C
:103EC000C0470AF1010A3748D0F80880CA45DDDB4F
:103ED0003046C04700F009F82046BDE8FE8F2C2090
:103EE00007F8010BBBF1000F70475D203870002010
:103EF000787070473046FFF76DBB70B50D460646CB
:103F000028787B284AD10620F06000F055F8054655
:103F100028787D2840D0FFF795FA0400B46037D0A8
:103F20002846FFF7EDFD01462046FFF77AFCFFF734
:103F3000E7FD05002CD000F041F82FD100F03CF84F
:103F400001462046FFF71DFEFFF7DAFD05001FD0F2
:103F500028782C281ED1FFF775FAC8B1206044607C
:103F6000044600F029F801462046FFF75AFCFFF707
:103F7000C7FD05000CD000F021F80FD100F01CF8AF
:103F800001462046FFF7FDFDFFF7BAFD0500DFD132
:103F9000002070BD7D2801D1681C70BD01480560FE
:103FA000F6E70000000000205B5D00000000F03F2D
:103FB0000000F0BF00002440681CA1E520692062D9
:103FC0000020206128783A2870472DE9F14F84B00D
:103FD00086684FF0000A0C4615469B464FF00709CD
:103FE000CDF808A0002703E00298401C0290366834
:103FF000002EF9D1DFF8D8830298D8F8042010BB3E
:10400000211DBBF1000F04D005B9032100F088F990
:1040100003E005B90321084690475FEA000930D064
:104020004F467B2007F8010B45B1641E0A20012C86
:1040300007F8010B02DB00F076F93F197D2038709C
:1040400087F801A04FE1BBF1000F00F08580002D43
:10405000DBF808A014BF4FF002094FF0010900F08F
:104060005DF907000DD07B2007F8010B00F060F927
:10407000641C00F04DF9049886680DE000F04EF9DC
:1040800007006FD0306810B12C2007F8010B00F04A
:104090004FF900F03DF93668002E41D07DB1214640
:1040A00000F03EF900285DD0012C03DB09222146F7
:1040B00000F0BCFEDBF808002018CBF808005946D9
:1040C000306AFFF76BFC5846FFF7B9FACBF80800E7
:1040D000002D14BF4FF002094FF00109494600F0CE
:1040E0001FF907003ED03A2038700DB109207870D2
:1040F0005B4600F00DF92A4621463046FFF7BCFD2D
:104100005846FFF79CFACBF808005FEA05093068CB
:1041100018BF4FF001090028B0D009F10109ADE73F
:10412000002D14BF611C022100F0FAF8070019D01D
:1041300055B1641E012C4FF0000A05DB092221460F
:1041400000F074FE3F19A2467D20FFF7CFFEDBF89A
:10415000000000EB0A09C6E08600304690475FEA9F
:10416000000B01D10020BFE0D8F80410304688478A
:10417000009020B9D8F8081058468847F2E7314631
:10418000584600F069F90098314600F065F9049846
:104190008668641C25B104F1070901E0012736682F
:1041A00056B3306A0021FFF7F9FB00232A46009935
:1041B000039041F82A0021463046CDF804A0FFF7CD
:1041C0005BFD01994BF821000AF1010A03990029CE
:1041D00018BF0028E2D0FEF721FB01900398FEF7FC
:1041E0001DFB019A002D14BFA11C00214A44801818
:1041F000081800F10209D2E77FB9D8F80410484640
:1042000088475FEA000908D07B2089F8000009F19F
:10421000010700F08DF8824650E04FF0000A0BE0F5
:1042200050F82A0000B188475BF82A0010B1D8F88E
:10423000081088470AF1010A0298D8F80810824548
:104240000098EDDB884795E725B1012C02DB00F0F3
:104250006AF83F19009850F82A000190FEF7DEFA3C
:104260000646019932463846FEF732FBBE193A201F
:1042700006F8010B15B1092006F8010B30465BF872
:104280002A1000F09BFD5BF82A00FEF7C7FA3718EA
:104290000298401E82451CBF2C2007F8010B00F03D
:1042A00047F80098D8F8081050F82A0088475BF8BB
:1042B0002A00D8F8081088470AF1010A02988245B6
:1042C000C2DB0098D8F808108847D8F8081058467C
:1042D00088472DB1641E012C02DB00F024F83F1941
:1042E0007D20FFF703FE484605B0BDE8F08F0000D3
:1042F0000100C0FFFFFFDF410000E0C144F3C2E462
:10430000E4E9634C8DEDB5A0F7C6B03E65CDCD4177
:10431000DBF808004844CBF80800704709F10101B8
:104320005846FFF757B909222146384600F07EBDAE
:1043300015B10A2007F8010B00203870704738B516
:1043400085680C4600E02D682DB1286A2146FFF7EC
:1043500045F80028F7D1284632BD01604860704713
:10436000826841B112B98160704702461068002826
:10437000FBD11046F1E7704770B5160004460D46B4
:104380000AD0306A10B11249896888472846FFF779
:1043900046F8306231461DE070BD00000000B03CC0
:1043A00070B5150004460E460ED0E868800504D4AA
:1043B000286A10B1064989688847E8682E6240F487
:1043C0000070E860294605E070BD000000FC0F00A9
:1043D000000000202046BDE87040C1E770B50446EB
:1043E0000D46FFF72FF8060008D00320F060C6E95D
:1043F000064520462946FEF7F7FB7061304670BD42
:1044000038B50446FFF71EF8050005D00420E86023
:104410002046FFF704F82861284632BD80B5FFF733
:1044200011F808B10621C16002BD00006E756C6C08
:104430000000000066616C736500000074727565B1
:104440000000000010B504460120FEF70DFF2046D5
:10445000BDE8104000F01DBD002200F0EBBC0000E4
:104460000E480F4A016841F00101016041681140A6
:1044700041600C4A016811400160016821F480210B
:104480000160416821F4FE0141604FF41F01816029
:104490004FF00060044908607047000000100240BF
:1044A0000000FFF8FFFFF6FE08ED00E0000000004E
:1044B00000000000010203040607080900000000D4
:1044C0002DE9FF4D86B0DDE90801CDE9040107982B
:1044D000C0F30A5040F2FF71884208D107980027C4
:1044E000000305BF069800280224012412E00128D9
:1044F00007DA06A8FEF79FFA012802DB002700244E
:1045000008E0079A40F2FE3161F31E520792471A03
:104510004FF0FF34002104A800F0C1FC05461298BA
:1045200010B112990020088035B9DDE90823002078
:10453000002100F0E9FB11D0002C11D53FB2012F72
:1045400013D1DDE906230020C84900F0DDFB05D0CA
:10455000012D0AD1C64900F0D7FB2ED1C549B6E1DD
:10456000022C04D1DDE90601B1E1012D59DB022D58
:1045700008BFDDE9080100F0AA81012C1BD10798D2
:104580000028099802D4002848D532E0002809D430
:10459000002D43D14FF0FF3104A800F080FC00282B
:1045A0003CD538E02DBB4FF0FF3104A800F077FC7C
:1045B00000281ED519E0012D09D1099800283FB225
:1045C00002D4012F2ADA14E0012F12DA26E009982A
:1045D000002811D46DB94FF0FF3104A800F05FFC42
:1045E000002844BF0798002803D500204FF0004161
:1045F0006DE1002000216AE100F090FC22210160C1
:1046000065B94FF0FF3104A800F049FC002844BF11
:104610000798002802D50020974958E100209749C3
:1046200055E10798002848BF002D08D500F076FC1A
:10463000212101604FF0FF306FF0004147E1DDE9DB
:10464000060100220023FEF731FA38BF019209D398
:1046500081F00041CDE906014FF0FF3104A800F0E0
:104660001EFC0190012F13D1DDE90601844A854B20
:10467000FEF704FA0CD2DDE9062300204FF080415A
:10468000FEF7B6FBCDE9060100260024794D1CE0BB
:10469000DDE9062300207C49744DFEF7A9FB0022CA
:1046A0002B46FEF725FEFEF79FFAA0F120063046C6
:1046B000FEF7C6FA0022754BFEF79AFB00222B4646
:1046C000FEF716FE04460D4676010FF21C2030441C
:1046D00000902246DDE906012B46FEF7C9FA824624
:1046E0008B46DDE9060122462B46FEF701FE024617
:1046F0000B4650465946FEF74DFCCDE90201DDE977
:104700000223FEF775FBCDE906AB0646884600F0AE
:104710000BFC32464346FEF76BFBDDE90623FEF752
:10472000A7FA064688460020524922462B46FEF745
:104730009FFA00224FF08043FEF75AFB3246434671
:10474000FEF7D6FDDDE90223FEF752FB02460B46DB
:10475000DDE90601FEF7CCFD82468B464C4A4D4B07
:10476000FEF718FCCDE904013846FEF769FA009A15
:1047700006468846D2E9000132464346FEF7B8FDB8
:10478000DDE90423FEF7B4FDCDE90401DDE90823EA
:10479000FEF72EFB0022404BCDE90201FEF76EF939
:1047A000C0F07E8001223D4BFEF780F97CD90022CB
:1047B0000023FEF763F9DDE9022339BF00202C490D
:1047C00000202A49FEF794FDFEF70EFA0746304610
:1047D000009E2F4C2F4DD6E900234146FEF788FD61
:1047E000DDE90823FEF704FB064688463846FEF757
:1047F00027FA02460B4630464146FEF739FA224672
:104800002B46FEF7F5FA064600988446D0E90223C7
:104810008846DCE90401FEF76BFDDDE90823FEF7BD
:10482000E7FA22462B46FEF7E3FA04460D46DDE999
:10483000080152465B46FEF7DBFA22462B46FEF79E
:1048400057FD32464346FEF753FDCDE9020112986B
:1048500008B10780002700970022064B02A800F04D
:10486000B9FBE8B101281FD02AE000BF0000E03FFB
:104870000000E0BF0000F03F0000F0FF0000F07F0C
:10488000CD3B7F669EA0E63F000050400000903F79
:10489000EF39FAFE422EE63F0000E0C00000E040A3
:1048A0000020CDE9020007E00020014902E000BF3E
:1048B0000000F07FCDE9020100F030FB2221016011
:1048C00001980028DDE9020118BF81F000410AB01B
:1048D000BDE8F08D10B582B000240094FFF7F0FD24
:1048E0001CBD000000000000000000000000F0BF40
:1048F00000000000000000800000000000000080B8
:104900000000000000000000000000C05294EEBF54
:1049100000000048204E51BE000000F86467BCBC97
:104920000000000000000000000000208133EDBF07
:1049300000000080B3DB14BE000000506706A3BC7B
:104940000000000000000000000000D0E9DCEBBF28
:1049500000000008C39259BE00000080B0D3B8BC6C
:10496000000000000000000000000070F98FEABFA6
:10497000000000C0A51028BE000000E8BFC0B0BC09
:10498000000000000000000000000070284CE9BF9B
:1049900000000060134B42BE000000C03D20B8BCC8
:1049A000000000000000000000000050FA10E8BF06
:1049B000000000C05FF62BBE000000905C71A7BC39
:1049C000000000000000000000000020FCDDE6BF49
:1049D000000000C0F8F154BE00000018E9F6B9BCB0
:1049E0000000000000000000000000D0C3B2E5BFDE
:1049F00000000070E43254BE00000050DB06B4BC7E
:104A0000000000000000000000000010EF8EE4BF76
:104A100000000020F36252BE000000C02A879ABC4A
:104A20000000000000000000000000B02272E3BFA0
:104A3000000000F0E8E056BE00000028352DBDBCA7
:104A40000000000000000000000000000A5CE2BF5F
:104A5000000000B0FA8E41BE00000040AE6FBDBC49
:104A6000000000000000000000000000564CE1BF04
:104A7000000000F015CD5FBE00000000141C90BCCB
:104A8000000000000000000000000040BD42E0BF48
:104A900000000030F93457BE000000E06C1E93BCEB
:104AA0000000000000000000000000E0F57DDEBF17
:104AB000000000B08A535EBE00000080DA77AABC16
:104AC0000000000000000000000000C09D81DCBF6D
:104AD00000000000FFA226BE0000006057E2B0BC4C
:104AE000000000000000000000000060F98FDABF45
:104AF000000000580A8151BE000000F05F60B8BCA1
:104B000000000000000000000000000098A8D8BFCE
:104B1000000000607A7F45BE000000D05433A3BC83
:104B20000000000000000000000000600FCBD6BFB6
:104B3000000000D091CB40BE000000406D1BA0BC27
:104B40000000000000000000000000A0FBF6D4BF41
:104B500000000098C5CE52BE000000003A397EBC6D
:104B60000000000000000000000000E0FE2BD3BFAA
:104B70000000004073872BBE00000000926879BCE3
:104B8000000000000000000000000040C069D1BF2C
:104B900000000058F16353BE00000080438D7CBCD0
:104BA000000000000000000000000080D85FCFBFC0
:104BB000000000181F8354BE000000B03F42A2BC9A
:104BC00000000000000000000000008067FCCBBF78
:104BD00000000060FAFF53BE00000050E00DB8BCBA
:104BE00000000000000000000000000098A8C8BFFE
:104BF000000000607A7F35BE000000C0543393BCD3
:104C0000000000000000000000000000DC63C5BFE1
:104C100000000058D6FF54BE00000000396490BC6C
:104C20000000000000000000000000C0AD2DC2BF69
:104C300000000080A45915BE000000E0484BABBC4A
:104C40000000000000000000000000801A0BBEBF42
:104C500000000050BF3C5ABE000000A0B364B6BCC8
:104C600000000000000000000000008004D6B7BF74
:104C700000000040BBCF36BE0000008076CEA8BC4E
:104C800000000000000000000000008032BBB1BF47
:104C9000000000402A0043BE00000028C60CBDBC36
:104CA0000000000000000000000000009473A7BF97
:104CB000000000182B3B59BE000000C0E55DA5BCFC
:104CC000000000000000000000000000EE4397BF5D
:104CD000000000A0E6C340BE00000020958DB5BCDA
:104CE0000000000000000000000000000000008044
:104CF00000000000000000800000000000000080B4
:104D0000000000000000000090420CD141EA030CBA
:104D100050EA4C0C07D0994205D14FF4001C1CEB13
:104D2000410F38BF894270470CB41CB5044604A833
:104D300001900A46009401AB694607487844183050
:104D4000FCF77EFC009A0021117000285CBF0098DF
:104D5000001B16BC5DF80CFBA3DAFFFF40F2FF7CE2
:104D60001CEA115240F2FE33D21ACCBFD2F1350305
:104D700016E0B2F1150309DA6FEA4C53D340094249
:104D800001D5401E59410020994370476FF0000241
:104D9000DA40094202D5801851F100019043704772
:104DA000352A09DA50EA41031CBF4FEA0C5101F1E0
:104DB000804138BF00210020704700005FEA000CEE
:104DC000830706D011F8013B00F8013BB3B183071C
:104DD000F8D10A68B2F1013323EA020313F0803FED
:104DE00002BF40F8042B51F8042FF3E711F8013B00
:104DF00000F8013B13B111F8013BF9E76046704739
:104E000010B401E0491C521E6AB10B7804789C4230
:104E100005D010BC2CBF01204FF0FF30704710F8B8
:104E2000013B002BEED110BC0020704762F30F2233
:104E300062F31F42401810F0030308D0C91A1FD3B1
:104E4000DB0748BF00F8012D28BF20F8022D130012
:104E500030B414461546103928BF20E93C00FAD872
:104E6000490728BF20E90C0048BF40F8042D8900FD
:104E700028BF20F8022D48BF00F8012D30BC704734
:104E8000C91818BF00F8012DCB0728BF00F8012D65
:104E90007047A0F141011A2938BF2030704742689D
:104EA000C2F30A5240F2FF739A4209D141680903E2
:104EB00004BF0068002801D101207047022070471C
:104EC00043685B0004BF0368002B25D040F23343E6
:104ED0009A1A521A012A1FDB352A06DB416801F0B3
:104EE000004141600021016013E0012102F01F0335
:104EF0009940491E920607D5426811404A404260D7
:104F000002681143002202E0026811404A40026038
:104F100011B14FF0FF307047002070470148FEF795
:104F20005BBA0000FC0F002038B504460D461B4854
:104F30001B4922462B46FDF75BFF1A4A1A4BFEF728
:104F4000D7F922462B46FDF753FF184A184BFEF7B8
:104F5000CFF922462B46FDF74BFF164A164BFEF7BC
:104F6000C7F922462B46FDF743FF144A144BFEF7C0
:104F7000BFF922462B46FDF73BFF124A124BFEF7C4
:104F8000B7F922462B46FDF733FF01B0BDE83040AC
:104F90000E4A0F4BFEF7ACB900000000F7DE29BF48
:104FA000D8F8C23FF4B3FECC1A99C33F62CB68D99C
:104FB0006F46C73FC6C912DAC471CC3F4AE98A942A
:104FC0002449D23FF75F97999999D93FBC555555D8
:104FD0005555E53F2DE9F04D804686B0D8E900678C
:104FE00014461D463046394600F052F982462046A6
:104FF000294600F04DF9BAF1000F06D500284DD42E
:10500000022806D1C8E900453FE1BAF1020FF7D105
:1050100021E050B90022524B30463946FFF774FE6A
:105020000FD0C8E9004500202FE1012815D100224A
:105030004C4B30463946FFF767FE18BFC8E90045BC
:105040004FD1FFF76BFF212101604FF0FF306FF070
:105050000041C8E90001022017E1BAF1000F0FD1A9
:10506000C8E900450E994046FDF738FD040018BF19
:10507000012C40F00981FFF751FF2221016003E17B
:105080000022374B30463946FFF73EFE0DD1204611
:105090002946FDF7ADFEC8E9000122E03046394659
:1050A0000022314BFDF7EAFC0AD2002320462946B4
:1050B000FDF79EFEC8E9000106B00020BDE8F08DB6
:1050C00001222A4BFDF7F2FC0DD80022244B20468A
:1050D0002946FDF78DFEC8E90001FFF71FFF2221D9
:1050E00001600120D1E0224A224BFDF781FE00221F
:1050F0000023FDF7C3FC34BF1F4B414BFEF7F8F80C
:10510000FDF772FD0290FDF79BFD82468B464FF046
:1051100078421A4BFDF76CFE02460B463046394684
:10512000FDF7A6FD06460F46154A164B5046594652
:10513000FDF75EFE02460B4630463946FDF798FD08
:105140004FF0FF32104BFDF7B1FC06460F461FD85B
:1051500000220E4BFDF792FC1AD22046294683E02E
:105160000000F07F0000F0FF00C89CC000C89C4019
:10517000FE822B654715F73F0000E0BF422EE63F59
:10518000F2E4D5BCE7E84B3EFFFF8FBC0000903C4B
:1051900032463B46FDF72CFE82468B46194A1A4B97
:1051A000FDF726FE194A1A4BFEF7A2F802460B46F7
:1051B00050465946FDF71CFECDE90401154A164B31
:1051C00050465946FDF714FE144A154BFEF790F869
:1051D00002460B4650465946FDF70AFE0022084B90
:1051E000FEF786F802460B4630463946FDF700FECC
:1051F000DDE9042306468B46FEF77AF8094F13E0F3
:105200000000E03F112E5781A03F503F5843128CC1
:105210008F71BC3F4BE8A541B752013F0BBDF3DA9C
:10522000E8708C3F0000F03F02460B4600203946F4
:10523000FEF75EF8CDE900013246DDE904015B4688
:10524000FDF716FD02460B4600203946FEF750F8E2
:1052500002460B46DDE90001FDF79CFE02460B46C7
:1052600020462946FDF7C4FDC8E9000102980E99C1
:1052700009184046FDF732FC040018BF012C03D189
:10528000FFF74CFE22210160204606B0BDE8F08DFC
:10529000C1F30A5240F2FF739A420AD012B14FF0A2
:1052A000FF307047C1F31301084309D06FF00100CC
:1052B0007047C1F31301084301D002207047012059
:1052C0007047000010B50FF67830DFF8404B0068EB
:1052D00088B00090684600F0FEFFE06200210FF603
:1052E0006430D0E90023CDE9012301A801F099F849
:1052F0006062142203A80FF22401FDF7F9FA0021DD
:1053000003A800F0CAFF04F1400001F08AF90FF68B
:105310003C3001F01CFC08B010BD000058EC000847
:105320003153000800000000000000008000000071
:105330002DE9F04BDFF8D44A84B004F14C0001F0C1
:10534000EDF904F14C0001F0F7F90FF610300FF20F
:10535000A0090FF2A80801F0FAFB70A60FF2C01B1B
:10536000052000F0B1FF04F14C0001F0E5F9E06A1E
:105370004FF47A7100F0B2FF0028F1D100F0D2F8BA
:1053800000F0ADF9A07F022828D1616A02226846A8
:1053900001F06DF80098102820D1019D2F88EFB101
:1053A000A81C15D03A46414600F035FC4FF47A71FE
:1053B000584600F0C2FB58B13A46A91C00F0E2FA88
:1053C000012200F0DEFA40F6B83100F086F910B99B
:1053D00000F024FBA077284601F087FE206B18B16F
:1053E00001F083FE00202063E06A00F095FFB7E73C
:1053F00053454E44204F4B0D0A00000041542B51A1
:105400004953454E443D302C25640D0A00000000F0
:1054100038B5DFF8F859044695F82000A04210D0BE
:1054200001F00AFF85F8204001F01FFF4CB901F0A0
:1054300003FFA86A40F00100A862BDE8314001F016
:1054400014BF31BDDFF8C409C07F7047F8B5DFF87D
:10545000BC6904460D46B5F5027FB07FC8BF4FF466
:10546000027502281DD1A81C01F0BAFD070018D052
:105470003D802A462146B81CFDF72AFA706A4FF48F
:105480007A72394600F0D2FF08B928B2F2BD01465F
:105490000FF6E01001F05BFB384601F026FE00201D
:1054A000F2BD4FF0FF30F2BDDFF86019CA7F052A68
:1054B00018BF022A4FF0FF300AD00020042A04BF90
:1054C0008A7F022A04D191F82810490758BF012089
:1054D0007047F8B5DFF834790446F8680D4616468B
:1054E000844201BF398A8D4279698E420CD001F025
:1054F000A3FE0420B877FC603D827E61B86A40F06C
:105500000400B86201F0B1FE002C18BF002D03D0DA
:10551000BDE8F24001207BE7F1BD00001A00000069
:105520003E0000002DE9F843DFF8E048608B0B28CF
:10553000BCBFA08B0B2803DA94F82800C0070FD556
:1055400001F07AFEA06A40084000A06201F08DFEE2
:1055500000206083A08300F018FA0020E07706E0C6
:10556000E07F20B101282CD0032835D008E094F842
:10557000200028B10FF6201001F0E9FA00F088F9B8
:10558000E07F042840F0A48094F828000FF6A018CB
:1055900040073ED5A07F052818BF002831D00FF660
:1055A0004822414600F037FB42F210710FF64420CA
:1055B00000F0C3FA01F0BCFEE06300F02FFAA07720
:1055C0001FE000F05BFA01280CBF04200320E07705
:1055D00000F008FA2076D3E701F0AAFE616B401ACA
:1055E00047F230518842CBD301F0A2FE606300F055
:1055F00045FA18B9A08B401CA083C1E70420E077CE
:10560000C2E701F019FEA06A20F00400A06201F0D8
:105610002CFEA07F40F6B83528B1012818BF042819
:1056200039D0052856D101F083FEA06301F080FE39
:10563000E768E063002F1CBF268A002E4AD00FF6D1
:10564000C012414600F0E7FA4FF47A710FF6B81035
:105650000FF6C40900F071FA98B1017800291CBF57
:1056600010F8011B2C29F8D10078312809D13346D4
:105670003A460FF69C11012001F0E6FE00F02CF8EE
:1056800030B90FF6B012414600F0C5FA00F024F828
:1056900000F0C4F91DE001F04BFEA16B401A44F686
:1056A0002061884203D300F08FF90520A07701F034
:1056B0003FFEE16B401AA8420CD301F039FEE063D3
:1056C00000F0ACF90428A07704D1BDE8F1437BE1F8
:1056D0000020A077BDE8F183294648462DE238B581
:1056E000012001F0F4FE04004CD0411E00F08DFAC0
:1056F0000A2808D1A11E00F088FA0D2803D100F075
:1057000081FA142804D200F07DFAB0F57A7F39D3FB
:1057100040F207208442A8BF0446601C01F060FCF0
:1057200005002FD022462946012001F0ECFE002181
:10573000295428460FF28471DFF8D04602F05EF952
:1057400028B90FF28C71284602F058F910B100F018
:1057500065F9A07728460FF2847102F04FF948B13D
:1057600000F08CF901280CBF04200320E07700F042
:1057700039F92076284600F006F82846BDE8324080
:1057800001F0B3BC31BD2DE9F0410FF258710FF2B9
:105790007875DFF878660FF25C7825E0207850B1F4
:1057A00014F8010B2C28F9D1207800281CBF14F81C
:1057B000010B2C28F8D1204600F0D0FE07462078B7
:1057C00000281CBF14F8010B0A28F8D1BFB23946D3
:1057D000404601F0BCF97269100002D039462046FB
:1057E0009047E0192946401C02F008F90400D5D181
:1057F000BDE8F08105220FF218710120F8B501F023
:10580000E3FD0FF2147500F040F805220FF210715D
:105810000FF214760FF2187700F0B4F800F035F8B4
:1058200041F28831304600F088F90FF20C723946A7
:1058300000F0F1F900F029F80FF20472394600F097
:10584000EAF900F022F80FF20072394600F0E3F9AD
:1058500000F01BF80FF2F862394600F0DCF900F0B6
:1058600014F80FF2F862394600F0D5F94FF47A7166
:10587000304600F062F9002428B10FF2E86102F02E
:10588000BDF800B101242046F2BD6421284654E150
:10589000F8B5DFF88C4500F06DF800F062F84FF4D1
:1058A0007A7000F011FD4FF4E131012001F053FE58
:1058B000012200F057F800224FF4807100F054F8F4
:1058C00043F698210FF2A460DFF8405500F035F957
:1058D00040B100F04FF8FFF78DFF002827D10220DC
:1058E000E87734E000F046F80FF2886600F048F8F8
:1058F0000FF2246700F03BF800F042F84FF47A71A1
:1059000000F036F8B0B14FF4E1320FF2706100F000
:1059100082F900F02CF805220FF26C6100F032F8E9
:10592000C82100F025F8FFF765FF0028D7D0012037
:10593000E87714E00FF2586001F009F90520E877E4
:1059400000F018F800F00DF8E87F022807D10FF2F8
:105950005C6001F0FCF800F00DF800F002F80020A7
:10596000F2BD00224FF48051204602F019B96421A3
:105970003846E2E001224FF48071204602F010B96F
:1059800004223146012001F01FBD38B5DFF89054E4
:10599000002200F014F840F6B8310FF2306000F049
:1059A000CCF8002400B10124012200F008F8002204
:1059B0004FF48051284602F0F3F8204632BD4FF4F0
:1059C0008071284602F0ECB880B50FF2106200F04A
:1059D00020F940F6B8310FF2405000F0AEF800B1B7
:1059E000012002BD86A20FF24851012010B501F03E
:1059F0002BFD4FF47A710FF2446000F09EF8002402
:105A000050B100E0401C01780A0002D030390A2968
:105A1000F8D200F0A3FD0446E0B210BD0FF22462FC
:105A20000FF20C51012010B501F00EFD4FF47A7108
:105A30000FF21C6000F081F80524E8B10178C1B1D3
:105A400000F06BF8FAD1017899B100F066F8FAD15C
:105A5000017871B100F061F8FAD1017849B100F034
:105A60005CF8FAD1017800291CBF10F8011B2C2921
:105A7000F8D100F073FD0446E0B210BD80B50FF21E
:105A8000DC5200F0C6F84FF47A710FF2504000F08B
:105A900054F878B1017800291CBF10F8011B2C299B
:105AA000F8D100F05BFDC0B2012818BF052801D174
:105AB000012002BD002002BD70B50446002654B38B
:105AC000DFF84853E86A642100F008FC18BB0FF2C5
:105AD000945200F09EF8C8210FF2905000F02DF87B
