:020000040800F2
:10000000F818002061D50008ADD20008AFD2000872
:10001000B1D20008B3D20008B5D200080000000039
:10002000000000000000000000000000976B0008C6
:10003000B7D2000800000000516B0008B9D20008D8
:10004000B9D50008BDD50008C1D50008C5D5000840
:10005000C9D50008CDD50008D1D50008D5D50008F0
:10006000D9D50008DDD50008E1D50008E5D50008A0
:10007000C7D20008E9D50008CDD20008EDD50008A8
:10008000F1D50008D3D20008F5D50008F9D500084D
:10009000FDD5000801D6000805D6000809D60008DD
:1000A0000DD6000811D6000815D6000819D600088C
:1000B0001DD6000821D6000825D6000829D600083C
:1000C0002DD6000831D6000835D6000839D60008EC
:1000D0003DD60008D9D20008EFD2000805D30008A9
:1000E00041D6000845D6000849D600084FF4E07212
:1000F00010440268914203D343681A44914202D3E8
:1001000080680028F5D17047DFF85C07016891B975
:100110004FF4803181604FF4805141604FF0FF31E6
:10012000C16001610421DFF844274161C2F8BC11BC
:10013000DFF83C1701600120704701F1080313F05C
:10014000070305D001F10803C3F1080303F0070317
:100150001944D21A8161C26042F001034B6011441C
:1001600028234B60DFF800170969C16170472DE94A
:10017000F84F064601F1080010F0070008BF884656
:1001800007D001F10800C0F1080000F0070001EB02
:10019000000802F1080010F0070006D002F1080084
:1001A000C0F1080000F0070002441546A5EB080066
:1001B000A0EB030908EB030B43F00300C8F80400AD
:1001C000AB4528BF01F00CFA2879C00758BF01F0F1
:1001D00007FAB9F1100F38BF01F002FAB069854291
:1001E00009D1F0684844F060C6F818B040F001004A
:1001F000CBF8040070E1706985420BD1B0684844C7
:10020000B060C6F814B040F00101CBF804104BF810
:10021000000061E1686800F00301012940F0AF804F
:10022000C008C0000190C00820283BD2D5F808A023
:10023000EF680090BD4208BF01F0D2F9554508BFF4
:1002400001F0CEF968680099C008C000B0EBC10F9A
:1002500018BF01F0C5F9009806EBC00000F12801B5
:100260008A4508D031698A45C0F08480DAF80C10DC
:10027000A94240F07F80574506D1009A306801219D
:1002800091408843306077E02830874205D030695C
:1002900087426FD3B868A8426CD1CAF80C70C7F80F
:1002A00008A069E0EF68D5F818A0AF420CD0A868A4
:1002B0003169884223D3C168A94204BFB968A94201
:1002C0001DD1C760B8601CE005F11400076837B99C
:1002D00005F110000768A7B101E00846076807F1BB
:1002E00014010A68002A02BF07F110010A68002AF7
:1002F000F3D13169884202D30021016001E001F0AD
:100300006FF9BAF1000F37D0E86906EB80004FF4BF
:100310009871084401688D4208D10760A7B9EA695D
:100320007068012191408843706025E03069824502
:1003300008D3DAF81000A84214BFCAF81470CAF83B
:10034000107001E001F04CF9B7B13069874211D368
:10035000C7F818A0296929B1814226BF39618F6188
:1003600001F03EF9686938B13169884202D3786199
:10037000876101E001F034F901980544814468681F
:100380004008400068604FEAD90549F00100CBF809
:1003900004004BF80990202D23D206EBC50000F194
:1003A0002807BA46B9F1100F38BF01F019F93068C3
:1003B00020FA05F1C90704D40121A940084330609F
:1003C00006E0B868316988422CBF824601F008F91E
:1003D000C7F808B0CAF80CB0CBF808A0CBF80C707E
:1003E0007AE05FEA192108BF002023D0B1F5803FF1
:1003F00028BF1F201ED2A1F58070000C00F008005D
:100400008140A1F58052120C02F004029140A1F546
:1004100080431B0CC0F10E0003F00203801AC01AC7
:10042000994000EBD130C11D29FA01F202F001011F
:1004300001EB400006EB80014FF498721144CBF8B9
:100440001C000022CBF81420CBF81020726822FA8E
:1004500000F3DB0707D4012303FA00F010437060B8
:10046000C1F800B01DE009681F281DBF4008C0F199
:10047000190009FA00F0484600E011464A68D2081F
:10048000D2004A4514D0C20F01EB820202F11003E0
:1004900040001A68002AF0D1306983421AD3C3F8A9
:1004A00000B0CBF81810CBF80CB0CBF808B013E0C4
:1004B00032698868914228BF90420BD3C0F80CB0D3
:1004C000C1F808B0CBF80800CBF80C100020CBF82E
:1004D000180001E001F084F808F10800BDE8E68F9B
:1004E0002DE9FA4D0546DFF88003006882B008B9AF
:1004F000FFF70AFEDFF870030299806841182F3178
:10050000401E21EA00000299814280F0A9814FF447
:10051000D8716E18B16839B132688018824280F0A3
:100520009F818142C0F09C8101F06AF800281EBFC3
:100530000446D0F8008014F1010F00F0918130687A
:10054000716840448142306038BF01467160A869DB
:1005500080BB286908B1844200D22C610020F06180
:100560003461C6F8148005F12801BF48006868624C
:100570004FF0FF3028620020C960896001F1080255
:100580004A610A61801C10312028F5D3B7488542A2
:1005900003D1A8F1280221462AE055F8040CC0082E
:1005A00005EBC000A0F1080104EB0800401AA0F11F
:1005B00028021DE04FF4E0702918084600E080682A
:1005C000D0B1026843681A449442F8D1027B120702
:1005D00012D4AA6903689A420ED347683B449A42F0
:1005E0000AD208EB07014160E868A96908EB00023C
:1005F0002846FFF7A2FD1DE128698442084638BF5E
:100600002C6104EB080100E0806880B102688A4236
:10061000FAD1017B09070AD4046041684144416072
:100620002146029B284604B0BDE8F04D9FE5AF6926
:1006300039462846FFF75AFD4FF0000B0168406825
:1006400008440190273810F0070101990EBF0020DF
:10065000C0F1080000F0070008442F3807F110012E
:10066000884234BF00970090009804F1080100F11F
:10067000180A11F00701A8F1280005D004F10801BB
:10068000C1F1080101F00701401A2144A961E860A5
:1006900040F001024A600844282242607248006922
:1006A000E8610098083010F0070018BF00F098FFCC
:1006B00000991B2048604FF4E0712944B1E80C50C8
:1006C00000980830A0E80C503461C6F81480C6F8D1
:1006D0001CB000980830B061019801E00AF1040AEA
:1006E0000721CAF804100BF1010B0AF1080181423D
:1006F000F4D3BBF1020FB8BF00F072FF0098B8420C
:1007000000F09880C01B3918C4084A68520852008B
:100710004A6040F0010179603850202C20D205EB6E
:10072000C40101F12806B046102838BF00F058FF78
:10073000286820FA04F1C90704D40121A140084324
:10074000286006E0B068296988422CBF804600F026
:1007500047FFB760C8F80C70C7F80880FE6069E012
:10076000010A23D0B1F5803F28BF1F211ED2A1F579
:100770008072120C02F008029140A1F580531B0C0C
:1007800003F004039940A1F58044240CC2F10E0249
:1007900004F00204D21A121BA14002EBD131CA1D8F
:1007A00020FA02F303F0010202EB410105EB8102A2
:1007B0004FF498731A44F96100237B613B616B68C5
:1007C00023FA01F4E40705D4012088401843686047
:1007D00017601CE012681F291DBF4908C1F11901EB
:1007E00000FA01F1014600E01A465368DB08DB001D
:1007F000834210D0CB0F02EB830303F110044900B6
:100800002368002BF0D12869844211D32760BA6194
:10081000FF60BF600EE0296990688A4228BF884265
:1008200006D3C7609760B860FA600020B86101E045
:1008300000F0D6FEE8680299814211D2401AE860C1
:10084000A969029A0A44AA6140F001005060029826
:1008500040F00300486004B001F10800BDE8F08DED
:10086000002004B0BDE8F08D744700201041002046
:100870006859883C2DE9F84F0446002689465FEA0E
:100880001920C9F1000B08BF002123D0B0F5803F2B
:1008900028BF1F211ED2A0F58071090C01F00801AC
:1008A0008840A0F58052120C02F004029040A0F59E
:1008B00080431B0CC1F10E0103F00203891AC91A0F
:1008C000984001EBD030C11D29FA01F202F001017C
:1008D00001EB400104EB8100D0F8300118B31F296F
:1008E0000FBF4A464A08C2F1190209FA02F2002370
:1008F00000E052004568ED08ED00A5EB09055D45F7
:1009000003D25FEA050B06460BD04569D70F00EB13
:100910008700002D00691CBF85422B460028E8D1C6
:100920001846B8BBC6BB012088404000414208437E
:100930006168084000F05D8141420840401E010BA3
:1009400001F01001C840420902F00802D0408308BB
:1009500003F00403D840450805F002055118E840AB
:100960005918C0F3400729443944F840401804EBB3
:100970008000D0F830010DE008464168C908C90080
:10098000A1EB090159453CBF8B4606460169002988
:10099000F2D140690028F0D1002E00F02A81A06831
:1009A000A0EB0900834580F0248120698642C0F0D5
:1009B0001E817068C00809EB0B08C000404518BFD5
:1009C00000F00EFE06EB0905AE4280F01081F768DC
:1009D000D6F818A0B7420CD0B0682169884223D35A
:1009E000C168B14204BFB968B1421DD1C760B860E7
:1009F0001CE006F11400076837B906F1100007681B
:100A0000A7B101E00846076807F114010A68002A47
:100A100002BF07F110010A68002AF3D12169884258
:100A200002D30021016001E000F0DAFDBAF1000F0D
:100A300039D0F06904EB80004FF4987108440168E4
:100A40008E4209D10760380014D1F2696068012133
:100A500091408843606026E02069824508D3DAF837
:100A60001000B04214BFCAF81470CAF8107001E048
:100A700000F0B6FDBFB12069874212D3C7F818A0B5
:100A8000306930B12169884226BF3861876100F042
:100A9000A7FD706938B12169884202D37861876106
:100AA00001E000F09DFDBBF1100F09D248F00300FA
:100AB000706006EB0800416841F00101416095E07B
:100AC00049F0030070604BF0010068604FEADB0002
:100AD00045F80BB020281DD204EBC00101F1280716
:100AE000216821FA00F2D207BB4605D4012202FA9E
:100AF00000F00843206006E0B868216988422CBFF6
:100B0000834600F06DFDBD60CBF80C50C5F808B011
:100B1000EF606BE05FEA1B2023D0B0F5803F28BF79
:100B20001F201ED2A0F58071090C01F00801884039
:100B3000A0F58052120C02F004029040A0F5804310
:100B40001B0CC1F10E0103F00203891AC91A984067
:100B500001EBD030C11D2BFA01F202F0010101EBD3
:100B6000400004EB80014FF498721144E8610022C8
:100B70006A612A61626822FA00F3DB0706D4012366
:100B800003FA00F0104360600D601CE009681F2844
:100B90001DBF4008C0F119000BFA00F0584600E0F4
:100BA00011464A68D208D2005A4510D0C20F01EB54
:100BB000820202F1100340001A68002AF0D1206975
:100BC000834211D31D60A961ED60AD600EE0226922
:100BD0008868914228BF904206D3C5608D60A860A6
:100BE000E9600020A86101E000F0FAFC08E100F0F3
:100BF000F7FC02E12DE9F84F04468846606841425F
:100C00000840401E010B01F01001C840420902F0EB
:100C10000802D040830803F00403D840450805F0DB
:100C200002055118E8405918C0F3400629447118CC
:100C3000F040401804EB8000D0F830014168C9084A
:100C4000C9000646A1EB080A09E008464168C90840
:100C5000C900A1EB080151453CBF8A46064601691F
:100C60000029F2D140690028F0D120698642C0F005
:100C7000C2807068C00808EB0A09C000484518BF68
:100C800000F0AEFC06EB080B5E4580F0B480F76820
:100C9000B569B7420CD0B0682169884223D3C168D6
:100CA000B14204BFB968B1421DD1C760B8601CE051
:100CB00006F11400076837B906F110000768A7B1FC
:100CC00001E00846076807F114010A68002A02BF1C
:100CD00007F110010A68002AF3D12169884202D382
:100CE0000021016001E000F07BFC002D35D0F069AF
:100CF00004EB80004FF49871084401688E4209D1DA
:100D00000760380011D1F269606801219140884381
:100D1000606022E02069854205D32869B04214BF93
:100D20006F612F6101E000F05BFCB7B12069874281
:100D300011D3BD61306930B12169884226BF386165
:100D4000876100F04DFC706938B12169884202D397
:100D50007861876101E000F043FCBAF1100F09D21D
:100D600049F00300706006EB0900416841F00101A1
:100D700041603FE048F0030070604AF00100CBF8AA
:100D800004004BF80AA0D4F808804FEAD805202DBB
:100D900028BF00F025FCB8F1000F27D0D4F814903C
:100DA000009504EBC50000F128052F46B8F1100F9F
:100DB00038BF00F015FC2068009920FA01F2D10735
:100DC00005D4009A012191400843206006E0A868FC
:100DD000216988422CBF074600F002FCC5F8089044
:100DE000C7F80C90C9F80870C9F80C50C4F808A0EE
:100DF000C4F814B004E000F0F3FB0020BDE8F28F6B
:100E000006F10800BDE8F28F2DE9F04F83B00546EA
:100E1000AFF30080F52DDFF8C04780F002810B2D85
:100E200031BF102705F10B00C708FF002068FE083E
:100E3000F04010F0030F42D0C04300F001008619CB
:100E400004EBC60000F12808F700D8F808506868DD
:100E5000C008C000B84218BF00F0C2FBD5F8089027
:100E6000454508BF00F0BCFB4D4508BF00F0B8FB8E
:100E70006868C008C000B84218BF00F0B1FBC845A0
:100E800005D120680121B140884320600DE0206930
:100E9000814508D3D9F80C00A84204D1C8F80890BD
:100EA000C9F80C8001E000F09BFB47F0030068608C
:100EB000E8190835416841F001014160F9E0A16895
:100EC000B94280F0C080002800F0A280012505FA18
:100ED00006F149004A42B0401143084041420840EF
:100EE000401E010B01F01001C840420902F0080247
:100EF000D040830803F00403D840460806F00206F9
:100F00005118F0405918C0F340087118414420FAB4
:100F100008F000EB010804EBC80000F128094FEAD3
:100F2000C80AD9F808607068C008C000504518BFEA
:100F300000F056FBD6F808B04E4508BF00F050FB55
:100F40005E4508BF00F04CFB7068C008C00050450B
:100F500018BF00F045FBD94505D1206805FA08F116
:100F6000884320600DE02069834508D3DBF80C003E
:100F7000B04204D1C9F808B0CBF80C9001E000F001
:100F80002FFB47F003007060AAEB0708F0190190EF
:100F900048F0010001994860019840F80880A7686E
:100FA0004FEAD70ABAF1200F28BF00F019FB47B368
:100FB000CDF800A004EBCA00D4F8149000F1280A80
:100FC000D346102F38BF00F00BFB2068009920FAA1
:100FD00001F2D10705D4009905FA01F10843206018
:100FE00007E0DAF80800216988422CBF834600F048
:100FF000F7FACAF80890CBF80C90C9F808B0C9F80D
:101000000CA0C4F8088006F108050198606150E062
:101010006068C0B339462046FFF7ECFD050012D0EA
:1010200047E015F1400F28BF4FF0FF370BD205F115
:101030000B00C7086068FF0028B139462046FFF75B
:1010400019FC050035D1A068B8421CD3C11B6269E8
:1010500010290AD3D0196061A16041F001034360F7
:10106000415047F0030050600AE00021A160616137
:1010700040F0030151601044416841F001014160BA
:1010800002F1080515E0E06887420DD2C01BA16996
:10109000E060CA19A26140F00100506001F108054A
:1010A00047F00300486004E039462046FFF718FA8D
:1010B0000546AFF30080284603B0BDE8F08F00B9C5
:1010C00070472DE9F047A0F10804AFF30080DFF886
:1010D000085528698442C0F07982616801F00302F2
:1010E000012A00F07382CA084FEAC208CA0704EB5B
:1010F000080937D4226811F0030F00F069825142C9
:101100000C4484429044C0F0618269698C4200F0D2
:10111000D980D608202E70D2D4F80CA0A7685445E8
:1011200008BF00F05DFABC4208BF00F059FA6068E1
:10113000C008C000B0EBC60F18BF00F051FA05EBB5
:10114000C60000F128018F4205D029698F4251D392
:10115000F968A1424ED1BA453DD128680121B1407C
:10116000884328604C4580F03182D9F80400C107DB
:1011700040F12C82810700F17D81A969894540F009
:10118000B680E868AC614044E86040F0010161600D
:1011900069698C4202D100216961A960E9698142D3
:1011A00080F01682DFF83404006808B9FEF7ACFF5F
:1011B000A969002900F00C82E868292824BF284684
:1011C000FEF794FFE869E968884280F001824FF0F9
:1011D000FF30E861FCE12830824506D0286982456D
:1011E00008D3DAF80800A04204D1C7F80CA0CAF866
:1011F0000870B7E700F0F4F9B4E7E768A669A7421A
:101200000BD0A168814222D3C868A04204BFB8684D
:10121000A0421CD1CF60B9601BE004F114010F683B
:1012200037B904F110010F689FB101E011460F6852
:1012300007F114021368002B02BF07F110021368B4
:10124000002BF3D1814202D30020086001E000F0BE
:10125000C7F9002E86D0E06905EB80004FF4987145
:10126000084401688C4209D10760380011D1E26955
:101270006868012191408843686073E72869864265
:1012800005D33069A04214BF7761376101E000F0F7
:10129000A7F9002F3FF466AF28698742AAD3BE6141
:1012A000216929B1814226BF39618F6100F098F927
:1012B000606900283FF456AF296988429AD3786163
:1012C00087614FE799F8040000F0030003287FF4DA
:1012D00049AFC5F80880D9F8040040084000C9F8B3
:1012E000040048F00100606044F8088070E169691A
:1012F000894508D1A8686C614044A86040F00101AC
:101300006160205064E1C008C0004FEAD00ABAF121
:10131000200F804437D2D9F80C70D9F80860B9454D
:1013200008BF00F05DF9B14508BF00F059F9D9F8E0
:101330000400C008C000B0EBCA0F18BF00F050F99D
:1013400005EBCA0000F128018E4207D029698E42C0
:10135000C0F08380F168494540F07F80B74206D1F4
:101360002868012101FA0AF18843286077E02830D3
:10137000874205D0286987426FD3B86848456CD149
:10138000F760BE606BE0D9F80C70D9F818604F4573
:101390000DD0D9F808002969884223D3C16849458E
:1013A00004BFB96849451DD1C760B8601CE009F1A8
:1013B0001400076837B909F110000768A7B101E008
:1013C0000846076807F114010A68002A02BF07F1FE
:1013D00010010A68002AF3D12969884202D300214A
:1013E000016001E000F0FCF8002E38D0D9F81C00B4
:1013F00005EB80004FF498710844016889450AD1D3
:101400000760380012D1D9F81C206868012191408A
:101410008843686023E02869864205D330694845DF
:1014200014BF7761376101E000F0DAF8BFB12869D5
:10143000874212D3BE61D9F8101029B1814226BF6C
:1014400039618F6100F0CCF8D9F8140038B12969FE
:10145000884202D37861876101E000F0C1F848F06A
:101460000100606044F80880686984420BD1C5F8C7
:101470000880ADE040084000C9F8040048F00100D1
:10148000606044F808804FEAD807202F22D205EB8D
:10149000C70000F128094E46B8F1100F38BF00F020
:1014A0009FF8286820FA07F1C90704D40121B94040
:1014B0000843286007E0D9F80800296988422CBF52
:1014C000064600F08DF8C9F80840F460A660C4F83C
:1014D0000C907DE05FEA182008BF002123D0B0F512
:1014E000803F28BF1F211ED2A0F58071090C01F09A
:1014F00008018840A0F58052120C02F004029040CE
:10150000A0F580431B0CC1F10E0103F00203891A00
:10151000C91A984001EBD030C11D28FA01F202F03F
:10152000010101EB400105EB81004FF4987210447A
:10153000002262612261E1616A6822FA01F3DB073D
:1015400006D4012303FA01F11143696004601CE031
:1015500000681F291DBF4908C1F1190108FA01F1EE
:10156000414600E010464268D208D200424510D001
:10157000CA0F00EB820202F1100349001A68002A28
:10158000F0D129698B4211D31C60A061E460A46092
:101590000EE02A698168904228BF914206D3CC6050
:1015A0008460E060A1600020A06101E000F018F814
:1015B000286A401E28620BD1D5F8C80100E0806877
:1015C0000028FCD14FF0FF30286201E000F008F85D
:1015D000AFF30080BDE8F087104100207447002081
:1015E000012000F023B88268521C8260426832B148
:1015F0000268531C036011704168491E41607047C6
:101600000749086808B1002070470648C008C000B4
:1016100008600549C908C900091A0160704700BF80
:10162000DC470020FF180020F820002080B5AFF331
:101630000080024A11001820ABBEFBE72600020022
:101640002DE9F04F82460FF25860A5B015461E46B0
:10165000D0E90023CDE9122303AF00207960B862FE
:101660000DF1500900E045440020ADF8020012AB36
:101670004FF0FF3229460DF1020001F0AEF880462E
:10168000B8F1010F08DA2878B0F1010868EB080812
:101690006FEA08004FEAD078BDF8020025280CBF99
:1016A000A8F1010BC346BBF1010F0EDB2C4614F869
:1016B000011B7868D0470028786000F0F880B86A8D
:1016C000401CBBF1010BB862F1D1BDF80200252826
:1016D00007D1002038617861B861F86138627862BA
:1016E00005E00028BFD1B86AE2E240F0010015F839
:1016F000011F2029F9D023290DD02B2904D02D2911
:1017000006D030290AD00CE040F0020080B2EEE7AB
:1017100040F00400FAE740F00800F7E740F010005E
:10172000F4E72A290ED13168316051F8042B316079
:10173000002A3A6304D5514240F00400396380B274
:101740006D1C13E0002139630BE0396B6FF000432F
:10175000994205D001EB810302EB43013039396333
:101760006D1C2A78A2F130010A29EED329782E299E
:1017700003D04FF0FF31F9621FE015F8011F2A294D
:1017800007D1316831606D1C51F8042B3160FA6269
:1017900013E00021F9620BE0F96A6FF0004399420F
:1017A00005D001EB810302EB43013039F9626D1C76
:1017B0002A78A2F130010A29EED3B8860FF2E84068
:1017C000297801F01FF808B115F8010B8DF84200D7
:1017D0009DF84200682802BF29786829622005D058
:1017E0006C2804BF28786C2803D171208DF8420042
:1017F0006D1C14A8F86015F8014BB4F125002AD02F
:101800001C3800F0DB80001F022840F2D78013381C
:1018100000F0FB80093800F0D180801E00F0658167
:10182000401E00F03C81401E022840F2C780001F8D
:1018300000F03581401F00F09280401E00F0E580EE
:10184000401E37D0C01E0BD0801E00F0DE80C01EB0
:1018500000F0DB806CE125208DF85000012070E164
:101860009DF842006C283068306016D050F8048B28
:101870003060C7F80880FC6A002C04D5404600F0B0
:10188000CDFF044607E022460021404600F0E2FF7B
:1018900008B1A0EB08047C6154E150F8042B3060DF
:1018A00002A9504600F03EFA002840F14B814FF06B
:1018B000FF30FDE131683160002251F8040B3160E6
:1018C0004FF03C0E0021CDE9020114A8B860DDE91B
:1018D00002019142FC6808BF904201D1FA6AC2B18C
:1018E00000F00F033033DBB23A2BA8BF2733AEF141
:1018F00001020009A354964640EA0170090900223A
:10190000914208BF904204D0BA6804EB0E039A4299
:10191000E6D304EB0E01B960CEF13C00F96A7861C0
:10192000884207DA081AF8614FF6EF71B88E08405E
:10193000B88607E1002940F1058197F8341001F0DD
:101940001401102940F0FE80396B3A69891AFA694E
:10195000891A081A0128C0F2F580F861F2E09DF8B2
:10196000420062281AD0682806D06A280CD06C2859
:101970001CD0712808D019E03068306050F8041B82
:101980003060B86A0880DDE03068306050F8042BC1
:101990003060B86AC117C2E90001D3E03068306036
:1019A00050F8041B3060B86A0870CBE030683060D3
:1019B00050F8041B3060B86A0860C3E03068C01D8E
:1019C00020F007023260D2E9000108323260CDE92E
:1019D0000201002902D538692D2109E0B88E81075E
:1019E00002D538692B2103E0C00705D538692021CD
:1019F00009F80010401C386114A839690844B8601F
:101A0000214602A800F09AFB9CE09DF842006C2859
:101A10000DD0712818BF6A2809D13068C01D20F088
:101A200007023260D2E900010832326005E0316815
:101A3000316051F8040B31600021CDE902019DF8BD
:101A40004200682803D1DDE9020180B20BE0622880
:101A500003D1DDE90201C0B205E0742818BF7A287D
:101A600004D1DDE902010021CDE9020197F834003B
:101A7000000731D5DDE902230020834208BF8242FE
:101A80002AD044F02000782826D13869302109F87E
:101A90000010401C411C396109F800401CE09DF811
:101AA0004200314600F007F9CDE90201DDE90223E9
:101AB00000218B4202DA38692D2109E0B88E8107B6
:101AC00002D538692B2103E0C00705D538692021EC
:101AD00009F80010401C386114A839690844B8603E
:101AE000214602A800F0A4FA2CE09DF842006C28E0
:101AF00009D0012038613068306050F8041B306034
:101B00008DF850101EE03068306001AA50F8041BB8
:101B10003060ADF804100020ADF8060002A94FF0C7
:101B2000FF30F862504600F0FDF800280AD5BEE606
:101B300025208DF85000012038611CB189F8014042
:101B400002203861386B3969401AF969401A79699D
:101B5000401A396A401AB969401A796AA0EB01083B
:101B600097F83400400711D42020B8F1010F8DF808
:101B700000000BDB444601236A4602A9504600F0F0
:101B800007FE00287FF493AE641EF4D1D7F810B09E
:101B9000BBF1000F14AC0DD014F8011B7868D047CE
:101BA000002878603FF483AEB86A401CBBF1010B9B
:101BB000B862F1D130208DF80000FC69012C0ADBFD
:101BC00001236A4602A9504600F0E2FD00287FF496
:101BD0006EAE641EF4D1D7F814B0BC68BBF1000F30
:101BE0000DD014F8011B7868D047002878603FF4C6
:101BF0005EAEB86A401CBBF1010BB862F1D1302077
:101C00008DF800003C6A012C0ADB01236A4602A918
:101C1000504600F0BDFD00287FF449AE641EF4D1AB
:101C2000B8687969D7F818B04418BBF1000F0DD027
:101C300014F8011B7868D047002878603FF437AE6D
:101C4000B86A401CBBF1010BB862F1D130208DF8AD
:101C500000007C6A012C0ADB01236A4602A9504677
:101C600000F096FD00287FF422AE641EF4D197F8B0
:101C7000340040077FF5F8AC2020B8F1010F8DF853
:101C80000000FFF6F1AC01236A4602A9504600F0BD
:101C90007FFD00287FF40BAEB8F10108F3D1E3E437
:101CA0000000000000000000686A6C747A4C0000BC
:101CB00025B0BDE8F08F622826D068281DD06A289C
:101CC00008D06C2827D0712804D0742823D07A2813
:101CD0000CD020E00868C01D20F007000860D0E9A3
:101CE0000023083008601946104670470A680A60E9
:101CF00052F8040B0A60002170470A680A6052F823
:101D0000040B0A6000B20BE00A680A6052F8040B88
:101D10000A6040B204E00A680A6052F8040B0A60E4
:101D2000C11770472DE9F44F0D4694B0D5F830A097
:101D3000BAF1000F804648BF6FF0004A00F0B6FDD0
:101D4000696B401801900FF67820D0E90023CDE9A7
:101D5000022395F83800400702D40198412805D2A3
:101D600040200DF110090190002609E0FFF74CF822
:101D70005FEA0009F8D14FF0FF3056E1AAEB040A00
:101D8000BAF1010FC0F2CE801498018802AA0DF1B9
:101D9000010000F090FD0028044600F1DE80149858
:101DA000008810B9641E00F1D880A245C0F2BA8044
:101DB000686901992218914280F0A2806E634042C6
:101DC000296A401AA969401A696A401AE969401AE1
:101DD000A96A461A95F83800400710D42020012E31
:101DE0008DF800000BDB374601236A462946404642
:101DF00000F0CEFC002840F0B0807F1EF4D1D5F872
:101E000014B0BBF1000F4F460DD017F8011BA868A6
:101E1000C0470028A86000F0A080E86A401CBBF121
:101E2000010BE862F1D130208DF800002F6A012FFC
:101E30000ADB01236A462946404600F0A9FC002837
:101E400040F08B807F1EF4D1D5F818B0EF68BBF15D
:101E5000000F0CD017F8011BA868C0470028A86025
:101E60007BD0E86A401CBBF1010BE862F2D1302064
:101E70008DF800006F6A012F09DB01236A462946AD
:101E8000404600F085FC002867D17F1EF5D1E86848
:101E9000A969D5F81CB04718BBF1000F0CD017F892
:101EA000011BA868C0470028A86056D0E86A401CFB
:101EB000BBF1010BE862F2D130208DF80000AF6A6F
:101EC000012F09DB01236A462946404600F060FCE9
:101ED000002842D17F1EF5D195F8380040070DD576
:101EE0002020012E8DF8000008DB01236A462946D8
:101EF000404600F04DFC80BB761EF6D100266E6198
:101F0000224668690DF10101484400F0E1FC68696E
:101F1000201868611498801C1490801E0088002886
:101F20007FF42CAF686B6969401A296A401AA96965
:101F3000401A696A401AE969401AA96AA0EB010AC5
:101F400095F83800400710D4BAF1010F0DDB544664
:101F5000A8682021C047A86010B94FF0FF365DE0A7
:101F6000E86A401C641EE862F2D16B694A46294661
:101F7000404600F00DFC0028EFD12C6A012C0ADB52
:101F8000A8683021C0470028A860E6D0E86A401C55
:101F9000641EE862F4D1AB69EA682946404600F065
:101FA000F7FB0028D9D16C6A012C0ADBA868302124
:101FB000C0470028A860D0D0E86A401C641EE862D0
:101FC000F4D1E868A969EB6942182946404600F057
:101FD000DFFB0028C1D1AC6A012C0ADBA8683021E4
:101FE000C0470028A860B8D0E86A401C641EE862B8
:101FF000F4D195F8380040070ED5BAF1010F0BDB8C
:10200000A8682021C0470028A860A6D0E86A401C24
:10201000BAF1010AE862F3D16E616E6304A88145EA
:102020001CBF4846FFF74BF8304615B0BDE8F08FAF
:102030002DE9F343054608462F696F2808BF082499
:1020400005D041F02001782914BF0A2410243C2631
:10205000D5E90023642818BF69289046994606D11F
:1020600000218B4203DAD8F1000869EB490900200E
:10207000814508BF80450CD1286B50B9082C38D158
:1020800095F83800000734D530203B2687F83B0010
:102090002FE0701E00900646404649462246E31750
:1020A00000F052FC02F13000C0B23A2803DB9DF888
:1020B000041051390818B855494640462246E317DE
:1020C00000F042FC804689460020814508BF8045DB
:1020D00003D0E868B9198842DBD3082C09D195F8F8
:1020E0003800000705D5B85D302802D0761E3020B4
:1020F000B855B919E960C6F13C00296BA86188425E
:1021000008DA081A28624FF6EF71288F08402887EE
:10211000BDE8F38300290ED595F8381001F01401BD
:10212000102908D1696B6A69891A2A6A891A0E1AF4
:10213000012EA8BF2E62BDE8F38300002DE9F24F07
:1021400004468EB0D4E90001CDE9020104AF9DF848
:10215000380040F0200BBBF1610F0AD0206B002843
:1021600048BF062004D408BFBBF1670F01D101208E
:1021700020636168C1F30A5040F2FF7290421CD1A3
:10218000080304BF2068002809D10320A0619DF83E
:10219000380061381A2835D30FF2386108E003207F
:1021A000A0619DF8380061381A2828D30FF21C610D
:1021B000E068032200F08CFBBDE1012815DA20461F
:1021C00000F039FC012810DB00250020BBF1610F75
:1021D0001FD1E16830220A708A1CE2609DF8382025
:1021E000612A0CBF782258220FE0626840F2FE316B
:1021F00061F31E52451A62604FF0FF30E6E70FF2BE
:10220000C851D5E70FF2C851D2E74A706169891CFD
:10221000616110B90026002584E1BBF1610F40F037
:102220009880206BD4E900AB00284CBF2126461CC7
:10223000DDE902010022002300F020FC36B23ABFA3
:102240008BF00040CDE902A0CDE902AB06F1010818
:102250002D1FB8F1010F8DF810200DF1110736DB9D
:10226000DDE902010022002300F020FC2FD21C2116
:1022700002A800F033FCDDE9020100F0B5FCA8F192
:102280000708B8F1010F814609DB00F0D9FC0246CE
:102290000B46DDE9020100F0EBFCCDE90201F81D7F
:1022A000072105E009F00F0200F8012D4FEA291976
:1022B000B9F1010F01DB491EF4D5491E5CBF0022B4
:1022C00000F8012DF9D5C71DB8F1010FC8DA0DF1DD
:1022D0001100391AB142B8BF0E4636B230000DF1C6
:1022E00011072FD4884206DA04A901444978082945
:1022F000A8BF0F2100DA002104AA024400E0761EE4
:1023000012F80139401E8B42F9D00F2904D104A9DB
:1023100001444A78521C4A70002802D504AF761C4A
:102320002D1D36B2701E0DD439180A783032D2B253
:102330003A2A03DB9DF838303A3B9A18401E01F8E0
:102340000129F2D5206B002840F1EC80701E20633B
:10235000E8E0DDE902010022002300F08FFB3CBF32
:1023600081F00041CDE902012DB247F29750684358
:102370004B49DFF8309190FBF1F52DB2C5F1070A1A
:10238000BAF1010F90461CDBDDE902675FEACA7013
:1023900007D542464B463046394600F029FD0646F1
:1023A0000F464046494642464B464FEA6A0A00F00D
:1023B0001FFDBAF1000F80468946E7D1CDE90267DB
:1023C00024E0CAF1000A0026374F14E05FEACA7021
:1023D00007D542464B463046394600F009FD0646D1
:1023E0000F464046494642464B4600F001FD4FEA43
:1023F0006A0A80468946BAF1000FE7D1DDE9020199
:1024000032463B4600F0C6FDCDE90201BBF1660F46
:10241000216BDFF898900CBF05F10A0006204618E2
:10242000142EA8BF132630208DF810000DF11107CF
:10243000012E3DDBDDE9020100F0ECFB07F10801B4
:1024400004220A23B0FBF3F303EB8307A0EB47005E
:10245000303001F8010C0A20B3FBF0F000EB8007EC
:10246000A3EB47033033521E01F8023DE9D1083E89
:10247000012E01F10807DBDBDDE9020100F0CAFBF8
:1024800000F0E8FB02460B46DDE9020100F0F0FB3C
:1024900000224B4600F0ACFCCDE90201CAE700BFC8
:1024A000A0860100000024400000F03F84D797413F
:1024B0000DF11100381A0DF1110702E0401E6D1EDA
:1024C0007F1C39783029F9D0BBF1660F08BF691C31
:1024D00004D0BBF1650F0CBF01210021226B8E18C7
:1024E00036B2B042B8BF064636B231001AD4814285
:1024F00004DA785C3528A8BF392000DA30207A1851
:10250000521E00E0761E12F80139491E8342F9D0AE
:10251000392802D1785C401C7854002902D57F1EEE
:10252000761C6D1C2DB29DF83810009533B23A46DA
:10253000204600F003F80FB0BDE8F08F2DE9F0471A
:1025400086B006468A4690461D4600F06CFE012D78
:10255000406A376B90F8009002DA01250FF2782874
:102560004AF02000BDF93840662808BF641C12D02C
:10257000672878D114F1040F7BDBBC4279DA96F836
:102580003800641C000702D4BD42B8BF2F4624B2F5
:102590003F1B48BF002724B2F068B169012C23DA41
:1025A0004A1C30234354012F03DA96F83800000701
:1025B00003D5F06800F80290521CE742B8BF7C4295
:1025C00024B260427062E719AF42B261B8BF3D46C3
:1025D000F068B3692DB2F5612A464146184400F00F
:1025E00077F9781BB062BCE022469542084416DABF
:1025F0002A46414600F06CF9B1696918601B012F49
:10260000B161706203DA96F83800000705D5F0680A
:1026100000F80190F069401CF061B762A1E041460A
:1026200000F056F9B06920182D1B012F03DA96F837
:102630003810090703D5F16801F80090401CB0611B
:102640002DB2AF42B8BF3D46F068B3692DB22A46FD
:1026500008EB0401184400F03BF9B0692818B06198
:10266000781B70627DE0BAF1610F14D14FF0700AEF
:1026700016E0BD4204DA96F83810090758BF2F4615
:102680007F1E48BF0027BAF1670F14BF4FF0450AFD
:102690004FF0650A04E0BAF1410F08BF4FF0500A4D
:1026A000B169F368481CB061012F18F8012B5A5426
:1026B00003DA96F83810090717D5F168431CB3619F
:1026C00001F80090012F10DB6D1E2DB2AF42B8BF94
:1026D0003D46F0682DB22A464146184400F0F8F80D
:1026E000B0692818B061781B7062F068B169014464
:1026F000200081F800A004D42B20487001F10208CA
:1027000004E02D224A7001F102086442002502AF64
:1027100008E00A22684600F09FFD019807F8010BC7
:102720006D1C009C21B20129F3DA022D06DA4AF071
:102730002000652804BF302008F8010B4DB9302077
:1027400008F8010B07E06D1E02A8405D303008F864
:10275000010B012DF7DAF068B1690844A8EB00001D
:10276000F06196F8380000F0140010280DD170695F
:10277000B1690818716A0818F1690818B16A08186F
:10278000716B8842BCBF081A306206B0BDE8F087A2
:10279000F8B504460D4616461F46002077B116F8D8
:1027A000011BA868A047A86030B1E86A401CE86235
:1027B00000207F1EF3D1F2BD4FF0FF30F2BD0000CC
:1027C00000000000000000006E616E004E414E00EF
:1027D000696E6600494E46003000F8B504460D4665
:1027E00016461F4600F049FD3B4632462946204624
:1027F00001B0BDE8F04000F056BD0268531C036014
:10280000117070470278C9B28A421AB11CBF10F821
:10281000012FF9E718BF00207047000000F1010305
:10282000810704D010F8011B89B18107FAD1026831
:10283000B2F10131914311F0803F04BF50F8042FF1
:10284000F6E710F8011B11B110F8011BFBE7C01AE5
:1028500070470000C9B2830706D0521E22D310F879
:10286000013B9942F7D11FE0083A13D302F1040269
:1028700041EA012141EA014150F8043B121F21BF06
:102880004B40A3F1013C2CEA030C1CF0803FF3D039
:10289000C9B2001F083210F8013B521E28BF91EA4E
:1028A000030FF8D818BF0120401E704780B500F014
:1028B000E4FC012002BD70B504460D46164600F04A
:1028C000DCFC324629462046BDE8704000F0DEBC04
:1028D00062B38B0708D0521E11F8013B00F8013B90
:1028E00000F024808B07F6D1830740F0208000BFE2
:1028F000103A07D330B4B1E83810103AA0E83810D5
:10290000F9D230BC530724BFB1E80810A0E8081082
:1029100044BF51F8043B40F8043BD20724BF31F8D0
:10292000022B20F8022B44BF0B7803707047083A43
:1029300007D3B1E80810083A40F8043B40F804CB4C
:10294000F7D25307E4E700001B4213D1094236D106
:102950002AB18446B0FBF2F002FB10C2704700F0CF
:10296000C5BCFCD30022002370470B0002000021ED
:1029700000207047904271EB030CF6D370B5B1FAAA
:1029800081F4B3FA83F52C1BA340C4F1200532FA7D
:1029900005F63343A2405FF00046E64002E05B08E4
:1029A0005FEA3202841A71EB030524BF20462946F0
:1029B0007641F4D302000B003000002170BD012AE3
:1029C000CFD970B5140C20D0B1FA81F4B2FA82F5E7
:1029D000C4F120046419B4F12006D6D3B2405FF0EC
:1029E0000044F440002502E052085FEA3303C61AAF
:1029F00071EB020E24BF3046714664416D41F3D342
:102A000002000B002000290070BD0C46B1FBF2F162
:102A100002FB11452D0445EA1045B5FBF2F402FB1B
:102A2000145580B240EA0545B5FBF2F002FB1052A6
:102A300040EA044070BD30B4436803F00042012115
:102A4000C3F313034360002B04BF0368002B08D1BA
:102A50000DE00368DD0F45EA440444605B00036059
:102A6000491E4468E302F4D5C4F31303436043688A
:102A70001A434260084630BC704700004FF4001C07
:102A80001CEB410F94BF1CEB430F09E041EA030C20
:102A900050EA4C0C52EA0C0C03D2994208BF904207
:102AA000704714BF8B428242704700004FF4001CF5
:102AB0001CEB410F94BF1CEB430F09E041EA030CF0
:102AC00050EA4C0C52EA0C0C03D28B4208BF8242F3
:102AD000704714BF994290427047000070B5044699
:102AE0000D466068C0F30A5040F2FF71884207D17A
:102AF0006068000304BF2068002817D0022070BD62
:102B000020B92046FFF797FF012866DA012D0FDB79
:102B100040F2FF71091A8D420AD36068002847BF4E
:102B200000202F4900202F49C4E90001012070BD79
:102B30004142A942616806DA6FF31E51401941EA29
:102B40000050606040E0401E63684519012205F1B5
:102B5000350062F31F53352801F00041636003D351
:102B600061600020206070BD002015F11F0F04DAA5
:102B7000206823600022203562606A4212D0401E25
:102B800025688041C2F12003C0439D4045EAD070D2
:102B900025686668D54006FA03F32B432360636813
:102BA000D340636062680A43B0F1004F626003D8AB
:102BB0000DD12078C0070AD52068401C206020680D
:102BC00028B96068401C60604FF0FF3070BD6068DD
:102BD000884204BF20680028F6D1002070BD00BFE5
:102BE0000000F0FF0000F07FF446400D40EAC120F5
:102BF000490006D200F014F8004248BF6FF00040D0
:102C0000604700F00DF84FF0004188428CBF084645
:102C100040426047400D40EAC120490080F00D80ED
:102C200040F00040490DA1F58061491C05D4D1F167
:102C30001F0154BFC840C01770474FF000007047D5
:102C4000010040F10980F446404200F005F851F0DF
:102C500000416047010000BF09D0B0FA80F1884010
:102C6000C91CC1F58461090501EBD02140057047FD
:102C7000F0B44FF0004591EA030F44BF6B4000F001
:102C800037BB00BF841A71EB030604D26E40001BF1
:102C9000B141121973414FF4001C1CEB410F34BFBA
:102CA0007CEB430684E00C0DA4EB1356362E7DDC42
:102CB000012E43DC45EAC32343EA525312BFD2023A
:102CC00092025B08240545EAC12141EA5051D2EB4A
:102CD000C020994125D407D1B0FA80F610FA06F148
:102CE00064D00020203608E0B1FA81F6B140C6F188
:102CF000200220FA02F21143B0404FEAF474B4EB20
:102D0000465434F001064FEA74040AD8D6F500168A
:102D1000760D04F00044F04061FA06F25040F140B4
:102D20004840C00A40EA415021F0004128BF5FEA14
:102D3000500550F1000044EBD12137E045EAC323B0
:102D4000DB0A45EAC121C90AB6F120050EDD42EAD7
:102D50000242120CC5F1200603FA06F6EB4042EAE5
:102D600006056D42984161F100010DE062FA06F539
:102D7000F240554063FA06FC82EA0C02F3405A40E6
:102D80006D42904161EB030111F4801F05D1641E77
:102D9000620502D06D004041494121F48011430891
:102DA00075F1004350F1000041EB0451F0BC704755
:102DB0001CEB410F15D223F0004352EA43060BD01F
:102DC0004FEA4C0CBCEB410F04D80C0D661E342EA0
:102DD000B7DDEBE7801A994150EA410608BF0021B0
:102DE000E4E708BF1CEB430F28BF6FF00001DDE7ED
:102DF000B0B581EA030C0CF0004C40F2FF7515EA07
:102E000011541DBF15EA1357AC42AF4239E0E41923
:102E100023EA455343F48013C90241F0004141EADB
:102E2000505EC7021100A7FB020200284FF000000D
:102E3000EEFB01204FF00001E3FB072118BF42F039
:102E40000102401800214941E3FB0E01A4F5806412
:102E50000F0302D252004041494154F101046CDD9C
:102E6000470872F1004250F1000051EB0451A1F506
:102E700080115CBF41EA0C01B0BD4CEA0551002055
:102E8000B0BD05EA1357AC4214BFAF4241E050EA6F
:102E9000410E1CBF52EA430E02E061460020B0BD65
:102EA00024423C441BD15FEA070EF6D0090302BF5F
:102EB00001460020AEF1140EB1FA81F7AEEB070423
:102EC00001FA07FE0C37C7F1200100FA07F7C840E6
:102ED0004EEA000E23EA455343F48013A2E733F091
:102EE0000043B3FA83F704BFB2FA82FE77440B3F84
:102EF000E41BB7F1200E2FBF02FA0EF3BB40C7F15F
:102F0000200E22FA0EFE38BF43EA0E03BA40641CBC
:102F100082E750EA410E14BF52EA430E6FF00001FF
:102F20004FF4001717EB430F8ABF194617EB410FF9
:102F3000B5E74CEA05510020B0BDD4F10104B4F16D
:102F400020070FDAC4F12007520828BF42F001021F
:102F500010FA07F501FA07F7E1BF2A43E0403843CA
:102F6000E1400FE0352C98DCC7F1200452EA400222
:102F700020FA07F218BF42F0010231FA07F0A1402F
:102F80000A43002172F1004250F1000051EB0C01A4
:102F9000B0BD00002DE9F04140F2FF7581EA030C5D
:102FA0000CF0004C15EA11541DBF15EA1357AC4242
:102FB000AF42E9E0BC41C1F31301C3F31303801A2C
:102FC000994143F4801304D2641E400049418018A3
:102FD0005941C90241EA5051B1FBF3F603FB161106
:102FE000A2FB0675D7EBC020A94102D2761E80183D
:102FF0005941C90241EA5051B1FBF3FE03FB1E11D6
:10300000A2FB0E75D7EBC020A94103D2AEF1010E91
:1030100080185941890241EA9051760546EA8E2E80
:10302000B1FBF3F603FB1611A2FB0675D7EB80206C
:10303000A94102D2761E80185941C90241EA505175
:103040004EEA060EB1FBF3F603FB1611A2FB067562
:10305000D7EBC020A94102D2761E80185941C9027F
:1030600041EA5051B1FBF3F703FB1711A2FB0735FF
:10307000D3EBC020A94167F100070CBF004247F025
:10308000010766F3D5274FEA1E31B80814F58064AE
:1030900014DDBD0775F1004250EB0E5051EB0451A9
:1030A00011F5801F5CBF41EA0C01BDE8F0814CF0D6
:1030B0007F6141F0E0410020BDE8F081BD076D086F
:1030C00040EA0E5041F48011D4F10104B4F120061D
:1030D0000ADAC4F120060200E04001FA06F3E140FA
:1030E0001843B24015430EE0342C14DCC6F1200422
:1030F00045EA40056D0820FA06F2154321FA06F06C
:10310000A1400D43002175F1004250F1000051EB48
:103110000C01BDE8F08100205FEA0C01BDE8F08100
:10312000CFB992185B41B3FA83F704BFB2FA82F6C3
:10313000BF190B3FB7F120062FBF02FA06F3BB40C1
:10314000C7F1200622FA06F638BF3343BA401CB155
:10315000E419641E2FE77F4231F00041B1FA81F497
:1031600004BFB0FA80F6A4190B3CB4F120062FBFBF
:1031700000FA06F1A140C4F1200620FA06F638BF95
:103180003143A0403C1B16E7AC421ABF05EA135777
:10319000AF4214E050EA41061CBF52EA4306BFE7C3
:1031A00050EA4107304661461CBF41EA0551BDE87F
:1031B000F08152EA430C08BFC143BDE8F081002012
:1031C0004FF4001616EB410F98BF16EB430F08BFE4
:1031D00016EB410F24BFC14305E016EB430F0CBFB4
:1031E00061464CEA0551BDE8F081000080B5134806
:1031F00000F0E8F80FF24C020FF244010160426265
:1032000041600FF24402826381600FF24402C160A8
:103210000161416181618162C16201634163C26395
:103220000164416401BD10B5044800F0CBF80446C8
:10323000206808B9FFF7DAFF204610BD6C100020A7
:10324000000000002E00000066616C736500000045
:10325000747275650000000091FBF2F303FB12111C
:10326000C0E900317047000010B50446DFF81800CF
:1032700000F0A8F850F8240010BD80B5DFF8080071
:1032800000F0A0F8806902BD0010002030B430B911
:103290000FF24800D0E90045C2E900451BE001708B
:1032A000012030BC704730B431B90FF23800D0E99A
:1032B0000045C3E900450EE01AB930BC6FF00100CB
:1032C000704708B10A7802800978481E804130BCF6
:1032D000C043C00F7047002030BC704700000000A2
:1032E0000000000000000000000000007047000027
:1032F000841A71EB030603D2001BB141121973410A
:103300004FF4001C1CEB410F34BF7CEB430443E043
:103310000C0DA4EB1356352E50DC45EAC323DB0A13
:1033200045EAC121C912B6F120050DDD63FA05F6A3
:10333000EB4086EA0305124218BF45F00105C018AC
:1033400051F100010CD213E062FA06F5F24055404B
:10335000F3415A40B340F3405A408018594107D3D3
:1033600049085FEA30005FEA350528BF45F00105EE
:1033700001F58011420875F1004250F1000041EB67
:103380000451F0BC4FF4001C1CEB410F38BF7047D8
:103390000020090D090570471CEB410F10D252EABD
:1033A00043060BD0BCEB410F05D80C0DAB43661E9A
:1033B000342EB5DD02E0AB4380185941F0BC7047B4
:1033C000F0BC70477047000010B50FF67830DFF89A
:1033D000404B006888B00090684600F0FEFFE06255
:1033E00000210FF66430D0E90023CDE9012301A8C4
:1033F00001F099F86062142203A80FF22401FFF78C
:1034000077FA002103A800F0CAFF04F1400001F0A0
:103410008AF90FF63C3001F00EFC08B010BD000038
:1034200038D5000835340008000000000000000016
:10343000800000002DE9F04BDFF8D44A84B004F19D
:103440004C0001F0DFF904F14C0001F0E9F90FF64E
:1034500010300FF2A0090FF2A80801F0ECFB70A6E3
:103460000FF2C01B052000F0B1FF04F14C0001F089
:10347000D7F9E06A4FF47A7100F0B2FF0028F1D179
:1034800000F0D2F800F0ADF9A07F022828D1616ADF
:103490000222684601F06DF80098102820D1019DA5
:1034A0002F88EFB1A81C15D03A46414600F035FCF4
:1034B0004FF47A71584600F0C2FB58B13A46A91C45
:1034C00000F0E2FA012200F0DEFA40F6B83100F036
:1034D00086F910B900F024FBA077284601F049FED8
:1034E000206B18B101F045FE00202063E06A00F077
:1034F00095FFB7E753454E44204F4B0D0A0000009F
:1035000041542B514953454E443D302C25640D0AFE
:103510000000000038B5DFF8F859044695F820009F
:10352000A04210D001F0CCFE85F8204001F0E1FE71
:103530004CB901F0C5FEA86A40F00100A862BDE8E0
:10354000314001F0D6BE31BDDFF8C409C07F7047FD
:10355000F8B5DFF8BC6904460D46B5F5027FB07FCB
:10356000C8BF4FF4027502281DD1A81C01F07CFDD4
:10357000070018D03D802A462146B81CFFF7A8F95D
:10358000706A4FF47A72394600F0D2FF08B928B257
:10359000F2BD01460FF6E01001F04DFB384601F098
:1035A000E8FD0020F2BD4FF0FF30F2BDDFF86019FA
:1035B000CA7F052A18BF022A4FF0FF300AD0002028
:1035C000042A04BF8A7F022A04D191F828104907EF
:1035D00058BF01207047F8B5DFF834790446F86821
:1035E0000D461646844201BF398A8D4279698E4262
:1035F0000CD001F065FE0420B877FC603D827E614E
:10360000B86A40F00400B86201F073FE002C18BFE5
:10361000002D03D0BDE8F24001207BE7F1BD0000A2
:103620001A0000003E0000002DE9F843DFF8E048F2
:10363000608B0B28BCBFA08B0B2803DA94F8280002
:10364000C0070FD501F03CFEA06A40084000A06210
:1036500001F04FFE00206083A08300F018FA0020E4
:10366000E07706E0E07F20B101282CD0032835D098
:1036700008E094F8200028B10FF6201001F0DBFAE2
:1036800000F088F9E07F042840F0A48094F8280036
:103690000FF6A01840073ED5A07F052818BF0028C8
:1036A00031D00FF64822414600F037FB42F210714C
:1036B0000FF6442000F0C3FA01F07EFEE06300F054
:1036C0002FFAA0771FE000F05BFA01280CBF04205E
:1036D0000320E07700F008FA2076D3E701F06CFED3
:1036E000616B401A47F230518842CBD301F064FE3F
:1036F000606300F045FA18B9A08B401CA083C1E7B5
:103700000420E077C2E701F0DBFDA06A20F00400AE
:10371000A06201F0EEFDA07F40F6B83528B1012887
:1037200018BF042839D0052856D101F045FEA06302
:1037300001F042FEE768E063002F1CBF268A002EDE
:103740004AD00FF6C012414600F0E7FA4FF47A7102
:103750000FF6B8100FF6C40900F071FA98B10178AD
:1037600000291CBF10F8011B2C29F8D10078312842
:1037700009D133463A460FF69C11012001F0A8FE0C
:1037800000F02CF830B90FF6B012414600F0C5FA3F
:1037900000F024F800F0C4F91DE001F00DFEA16B6B
:1037A000401A44F62061884203D300F08FF90520C7
:1037B000A07701F001FEE16B401AA8420CD301F0A2
:1037C000FBFDE06300F0ACF90428A07704D1BDE86C
:1037D000F1437BE10020A077BDE8F183294648460C
:1037E0002DE238B5012001F0B6FE04004CD0411E98
:1037F00000F08DFA0A2808D1A11E00F088FA0D28E1
:1038000003D100F081FA142804D200F07DFAB0F55B
:103810007A7F39D340F207208442A8BF0446601C57
:1038200001F022FC05002FD022462946012001F09C
:10383000AEFE0021295428460FF28471DFF8D046ED
:1038400002F020F928B90FF28C71284602F01AF91B
:1038500010B100F065F9A07728460FF2847102F0EC
:1038600011F948B100F08CF901280CBF04200320A5
:10387000E07700F039F92076284600F006F828466F
:10388000BDE8324001F075BC31BD2DE9F0410FF2C9
:1038900058710FF27875DFF878660FF25C7825E0E2
:1038A000207850B114F8010B2C28F9D12078002889
:1038B0001CBF14F8010B2C28F8D1204600F0D0FED4
:1038C0000746207800281CBF14F8010B0A28F8D1FD
:1038D000BFB23946404601F0AEF97269100002D01D
:1038E000394620469047E0192946401C02F0CAF8A4
:1038F0000400D5D1BDE8F08105220FF21871012036
:10390000F8B501F0A5FD0FF2147500F040F805229E
:103910000FF210710FF214760FF2187700F0B4F86E
:1039200000F035F841F28831304600F088F90FF2A6
:103930000C72394600F0F1F900F029F80FF2047228
:10394000394600F0EAF900F022F80FF20072394629
:1039500000F0E3F900F01BF80FF2F862394600F0CE
:10396000DCF900F014F80FF2F862394600F0D5F9EE
:103970004FF47A71304600F062F9002428B10FF25A
:10398000E86102F07FF800B101242046F2BD642115
:10399000284654E1F8B5DFF88C4500F06DF800F0EA
:1039A00062F84FF47A7000F011FD4FF4E13101201C
:1039B00001F015FE012200F057F800224FF480714B
:1039C00000F054F843F698210FF2A460DFF8405558
:1039D00000F035F940B100F04FF8FFF78DFF0028F7
:1039E00027D10220E87734E000F046F80FF288662D
:1039F00000F048F80FF2246700F03BF800F042F8BE
:103A00004FF47A7100F036F8B0B14FF4E1320FF2B2
:103A1000706100F082F900F02CF805220FF26C6161
:103A200000F032F8C82100F025F8FFF765FF002804
:103A3000D7D00120E87714E00FF2586001F0FBF8CE
:103A40000520E87700F018F800F00DF8E87F02286C
:103A500007D10FF25C6001F0EEF800F00DF800F015
:103A600002F80020F2BD00224FF48051204602F0FF
:103A7000DBB864213846E2E001224FF48071204631
:103A800002F0D2B804223146012001F0E1BC38B581
:103A9000DFF89054002200F014F840F6B8310FF22D
:103AA000306000F0CCF8002400B10124012200F0C5
:103AB00008F800224FF48051284602F0B5F820465D
:103AC00032BD4FF48071284602F0AEB880B50FF2D7
:103AD000106200F020F940F6B8310FF2405000F0CB
:103AE000AEF800B1012002BD86A20FF248510120BC
:103AF00010B501F0EDFC4FF47A710FF2446000F064
:103B00009EF8002450B100E0401C01780A0002D069
:103B100030390A29F8D200F0A3FD0446E0B210BD06
:103B20000FF224620FF20C51012010B501F0D0FC0D
:103B30004FF47A710FF21C6000F081F80524E8B1AF
:103B40000178C1B100F06BF8FAD1017899B100F0B9
:103B500066F8FAD1017871B100F061F8FAD1017814
:103B600049B100F05CF8FAD1017800291CBF10F8C7
:103B7000011B2C29F8D100F073FD0446E0B210BD02
:103B800080B50FF2DC5200F0C6F84FF47A710FF2F4
:103B9000504000F054F878B1017800291CBF10F8AB
:103BA000011B2C29F8D100F05BFDC0B2012818BF21
:103BB000052801D1012002BD002002BD70B50446D8
:103BC000002654B3DFF84853E86A642100F008FC8B
:103BD00018BB0FF2945200F09EF8C8210FF29050DB
:103BE00000F02DF8A8B10178002909D000F017F8ED
:103BF000F9D1017800291CBF10F8011B2229F8D146
:103C000001780A001EBF222910F8011B04F8011BCD
:103C1000F6D1E86A00F002FC0126304670BD10F8CB
:103C2000011B2C29704780B502460FF2505100F05D
:103C300074F8BDE8044040F6B8310FF2E0302DE9E9
:103C4000F84F04468A4601F0B7FB002683460FF280
:103C50004058AF4D40F2072908E0286B414601F07B
:103C600011FF002846D1022000F0B0FB01F0A4FBB8
:103C7000A0EB0B0082453CD3012001F06CFC070057
:103C8000F1D000F041F80A28EDD3791E00F03FF89A
:103C90000A2804D1B91E00F03AF80D2807D0207880
:103CA0003E2804D000F030F8B0F57A7FDBD34F45E2
:103CB000286BA8BF4F4618B101F05BFA00202863BB
:103CC000781C01F0D1F901002963CCD03A460120DB
:103CD00001F05DFC2E6B07460020F0552046FEF7F4
:103CE0009DFD83B23A462146304600F091FC060025
:103CF000B3D016B9688B401C00E0002068833046C2
:103D0000BDE8F28F43535100012001F058BC89B245
:103D1000012001F02FBC0FF21C31012001F0D8BBB3
:103D20002DE9F0470C460FF2704554F8040FDFF808
:103D3000F491294601F096FF0FF2CC180FF2CC1A3D
:103D400078B900F0F9F808B9012204E0414600F022
:103D5000F6F810B9002200F0E7F839680FF2404099
:103D600024E026680FF24C41694F00F0E2F838B9C0
:103D7000BA7FF97F0FF24440BDE8F04700F05BBF27
:103D800064A100F0D6F8A8B900F0D6F808B900226E
:103D900004E0414600F0D3F828B901224FF48071C5
:103DA000484601F041FF39680FF23440BDE8F04762
:103DB00000F041BF0FF2404100F0BBF8A8B910205D
:103DC00001F052F90446FFF7F9FE28B121460FF23F
:103DD000344000F030FF03E00FF2484000F02BFFCA
:103DE0002046BDE8F04701F0C4B90FF2584100F099
:103DF000A0F8002840F08580F86A4FF0FF3100F00D
:103E0000EFFA54F8040F0FF2444101F02BFF30B9E0
:103E10000FF2404000F00FFFFFF7BCFD6CE026689A
:103E20000FF24C4100F085F830B90FF2504000F02D
:103E300002FFFFF72CFE5FE037A100F07AF828B907
:103E4000FFF752FE01460FF2504031E033A100F07F
:103E500070F830B96268FFF75EFF61680FF250409A
:103E600026E00FF26C4100F064F850B9656828460E
:103E7000FEF7D4FC82B22946FFF706FE0FF2584047
:103E800038E0294600F055F8A8B96568514628463B
:103E900001F0E8FE08B9012205E04146284601F09C
:103EA000E1FE10B9002200F03FF861680FF24840CF
:103EB00000F0C1FE20E01AA100F03BF828B96068CC
:103EC000FFF7B1FE0FF24C4014E00FF2604100F03A
:103ED00030F820B9FFF7FAFD0FF25C400AE00FF26C
:103EE000744100F026F838B9606800F0B9FB7883B7
:103EF0000FF26C4000F09FFEF86ABDE8F04700F05A
:103F00008DBABDE8F08700006F6666006F6E000036
:103F10005C0100206B6579006373710061740000BF
:103F200074747300000801404FF48051484601F05A
:103F30007BBE304601F096BE271D51463C682046A8
:103F400001F090BE00000000080000000400000026
:103F50006C6F673E204D324D20496E69740D0A002A
:103F60006C6F673E204D324D207461736B2073740B
:103F70006172742E0D0A00006C6F673E204D324D49
:103F800020736F636B65742053656E6420512066E7
:103F900061756C743A25640D0A0000006C6F673E11
:103FA000204D324D206D6F64756C6520706F7765A4
:103FB00072206F6E20696E69742E0D0A0000000079
:103FC0002B51495552433A2022636C6F736564222A
:103FD000000000002B51494F50454E3A00000000B0
:103FE0002B435245473A00002B51495552433A2042
:103FF00022726563762200006C6F673E20746573E1
:1040000074206C656E3A25640D0A00004950442CFA
:1040100000000000415445310D0000004F4B0D0AD7
:1040200000000000415456310D0000002B43504960
:104030004E3A000041542B25730D0A005153434C56
:104040004B3D30004946433D302C300043524547FC
:104050003D3200005153494445543D31323800004F
:104060004350494E3F000000524541445900000072
:104070005244590D0A00000041540D0A000000008E
:1040800041542B4950523D25640D0A004154265796
:104090000D0000006C6F673E204D324D206D6F6447
:1040A000756C65206661756C742E0D0A0000000049
:1040B0006C6F673E204D324D206D6F64756C6520CE
:1040C0006E6F2053494D20636172642E0D0A00000B
:1040D000504F57455220444F574E0D0A00000000E4
:1040E000514944454143543D310000005149434C3E
:1040F0004F53453D30000000434C4F5345204F4B3C
:104100000D0A000051494143543F00002B514941E1
:1041100043543A0041542B51494F50454E3D312CA8
:10412000302C22544350222C222573222C25642C1F
:10413000302C310D0A00000051494143543D3100FB
:104140002B4353513A000000514953544154453DCB
:10415000312C30002B514953544154453A00000052
:10416000435245473F000000434E554D00000000BC
:104170002B434E554D3A0D0A0000000041542B517F
:104180005454533D322C222573220D0A00000000A6
:104190004552524F52000000706F77657200000068
:1041A0006C6F673E204D324D20706F7765723A25F7
:1041B000730D0A0073746174757300006C6F673E51
:1041C000204D324D207374617475733A25642C2030
:1041D0004950207374617475733A25642E0D0A007A
:1041E0006C6F673E204D324D20706F776572206B8B
:1041F00065793A25730D0A0070686F6E656E756D8E
:10420000000000006C6F673E204D324D20726561EA
:10421000642070686F6E656E756D207265743A25E6
:10422000730D0A006C6F673E204D324D2072656140
:10423000642070686F6E656E756D206661696C2EA6
:104240000D0A00007465737400000000706F7765DC
:10425000726F6E006C6F673E204D324D2074657337
:104260007420706F776572206F6E2E0D0A0000004B
:10427000706F7765726F6666000000006C6F673E56
:10428000204D324D207465737420706F77657220F5
:104290006F66662E0D0A00006C6F673E204D324D32
:1042A0002074657374204353513A25642E0D0A001F
:1042B0006C6F673E204D324D2074657374207365BA
:1042C0006E64204154203A25732E0D0A0000000030
:1042D00073656E64000000006C6F673E204D324DC8
:1042E00020746573742073656E642064617461204A
:1042F0004F4B2E0D0A0000006C6F673E204D324D73
:10430000207465737420706F7765723A25730D0A97
:10431000000000006C6F673E205454535F506C6186
:104320007920646F6E652E0D0A000000636F6E6E5B
:1043300065637473687574006C6F673E20436F6EBD
:104340006E6563745368757420646F6E652E0D0A14
:10435000000000006572726F72636F756E7400000A
:104360006C6F673E204572726F72436F756E74207A
:1043700073657420646F6E652E0D0A000021842819
:1043800018BFC11C08467047EFF3058000B101203B
:10439000C0B2704780B501F061FD002002BD3EB59E
:1043A00004460D46B4F90800FFF7E8FF02A90191A1
:1043B00000902B4622692168606892B201F074FC7B
:1043C000012801D000203EBD02983EBD80B500B955
:1043D000012001F026FD002002BD012002F08DB871
:1043E00038B50446002000900CB9802032BD00256D
:1043F00011F1010F08BF4FF0FF3500F063F838B13D
:1044000000F05BF8012807D100F060F8002032BD11
:1044100000F04DF80128F9D0FF2032BD38B500F08A
:104420007EF860B16946204602F064F9012801D0A7
:10443000FF2032BD009838B100F0D4F804E000F05D
:1044400068F8012818BFFF25284632BD10B501299C
:104450000DD103220021012002F028F8040004D02D
:1044600000230022002102F05CF8204610BD00204D
:1044700010BD38B50446002000900CB9802032BD34
:10448000002511F1010F08BF4FF0FF3500F01AF8B9
:1044900038B100F012F8012807D100F017F8002019
:1044A00032BD00F004F80128F9D0FF2032BD00230E
:1044B0002A460021204602F05DB96A4600212046C6
:1044C00002F006BA01D001B10D465DE7009838B19F
:1044D00049494FF080500860BFF34F8FBFF36F8F93
:1044E000704738B500F01BF860B16946204602F00D
:1044F00001F9012801D0FF2032BD009838B100F049
:1045000071F804E000F005F8012818BFFF252846DF
:1045100032BD002300220021204602F002B800250F
:104520000446009530E741680068002201F0BEBFF4
:1045300032B582B0044600201546009005B9012529
:10454000FFF722FF58B100236A4602A9204602F075
:104550007FF801280BD1FFF7B9FF00203EBD0023F3
:104560002A4602A9204601F0DCFF0128F5D0FF20F1
:104570003EBD7FB504460D460020029501900DB961
:10458000802026E0002612F1010F039008BF4FF0B3
:10459000FF3600F023F870B103AA01A9284602F003
:1045A00097F901280CBF102000200090039888B1D3
:1045B00000F018F80EE00023324601A9284602F068
:1045C000D9F8012808BF102003D0002E0CBF00200E
:1045D0004020009068460EC80EC47FBD01D002B1D5
:1045E0001646D1E604494FF080500860BFF34F8F64
:1045F000BFF36F8F7047000004ED00E080B501F05D
:104600002DFE012803D0BDE8014000F084BE01BDAD
:10461000F0B5002818BF002918D0140016D01C00CF
:1046200014D0002401E0641C24B2D51AA5420DDB8D
:10463000002501E06D1C2DB206194F5D765DBE426E
:10464000F1D16E1C9E42F5D12044F0BD0020F0BD9A
:104650000146002000291CBF0846FEF7DFB870475E
:1046600038B5044600255CB105E014F8011B0A20AA
:10467000303900FB0515207802F002FA0028F4D149
:10468000284632BDB0B5054600241DB32878302831
:104690000BD16878782818BF582806D1AD1C04E0E3
:1046A000A7F1570000EB04146D1C2F78380010D0D0
:1046B00002F0E6F910B1A7F13000F3E7A7F14100ED
:1046C000062838BFA7F13700ECD3A7F16100062810
:1046D000E6D32046B0BD30B5FF20FF230FF25424AF
:1046E00007E011F8015B6B4034F8135085EA0003D2
:1046F000280A15466A1EADB2002DDBB2F1D143EA9D
:10470000002030BD38B50446254600E06D1C2878F1
:10471000010003D002F0B9F90028F7D1FFE700202B
:104720002870204632BD002100281CBF0268002AE4
:104730000BD0DFF8F8110A6812B9086004E00A46E5
:1047400091680029FBD19060012108467047F0B5BF
:104750000446DFF8D801056891B000E0641C2078B9
:10476000010003D002F0A5F90028F7D0012600943B
:10477000274602E04DF82670761C3878B8B1102E26
:1047800015DA3878010008D002F093F9002818BF34
:104790007F1CF6D101E007F8010B3878010003D047
:1047A00002F087F90028F6D038780028E2D10020FE
:1047B0004DF8260000E0AD685DB1012EFBDB2968F5
:1047C000204601F04FFA0028F5D16A686946304664
:1047D000904711B0F0BD2DE9F04105460E464FF06F
:1047E000FF38002700E07F1CBFB23C4655F824008C
:1047F00028B1314601F036FA0028F4D1A0464046EF
:10480000BDE8F0814A490A6812B9086070470A4653
:10481000824204D011690029F9D101611061704709
:104820000021C160704742490968002000E0096921
:1048300021B1CA688B689A42F9D308687047002989
:1048400018BF002A09D0531E134206D101604360ED
:1048500000218160C160012070470020704738B599
:1048600004460D4600F00EF86168814208D3E26804
:10487000206811404554E068401CE060012032BDD2
:10488000002032BDC1688068081A7047C168816025
:104890007047F8B50D4600261746002D18BF002FAB
:1048A000044611D0FFF7EEFFB84201D207465FB1D0
:1048B000A1686268206811407F1E405CA855761C84
:1048C000A068401CA060F2E73046F2BDF8B50D4686
:1048D00000261746002D18BF002F044614D0FFF7FE
:1048E000D1FF6168081A401CB84201D207465FB187
:1048F000E168626820681140AA5D42547F1EE0684A
:10490000401CE060761CF2E73046F2BD70B504460C
:104910000D46FFF7B7FF0026854205D2A168626801
:10492000206869181140465C304670BDCC470020B5
:10493000D04700200000C1C081C1400101C3C003B5
:10494000800241C201C6C006800741C70005C1C53B
:1049500081C4400401CCC00C800D41CD000FC1CFFB
:1049600081CE400E000AC1CA81CB400B01C9C009EB
:10497000800841C801D8C018801941D9001BC1DB8B
:1049800081DA401A001EC1DE81DF401F01DDC01D3B
:10499000801C41DC0014C1D481D5401501D7C0175B
:1049A000801641D601D2C012801341D30011C1D16B
:1049B00081D0401001F0C030803141F10033C1F3AB
:1049C00081F240320036C1F681F7403701F5C0353B
:1049D000803441F4003CC1FC81FD403D01FFC03FFB
:1049E000803E41FE01FAC03A803B41FB0039C1F9EB
:1049F00081F840380028C1E881E9402901EBC02B4B
:104A0000802A41EA01EEC02E802F41EF002DC1ED3A
:104A100081EC402C01E4C024802541E50027C1E75A
:104A200081E640260022C1E281E3402301E1C0216A
:104A3000802041E001A0C060806141A10063C1A36A
:104A400081A240620066C1A681A7406701A5C0653A
:104A5000806441A4006CC1AC81AD406D01AFC06FFA
:104A6000806E41AE01AAC06A806B41AB0069C1A9EA
:104A700081A840680078C1B881B9407901BBC07B8A
:104A8000807A41BA01BEC07E807F41BF007DC1BD3A
:104A900081BC407C01B4C074807541B50077C1B75A
:104AA00081B640760072C1B281B3407301B1C0716A
:104AB000807041B00050C190819140510193C0532A
:104AC000805241920196C056805741970055C1953A
:104AD00081944054019CC05C805D419D005FC19FFA
:104AE000819E405E005AC19A819B405B0199C059EA
:104AF000805841980188C04880494189004BC18B4A
:104B0000818A404A004EC18E818F404F018DC04D39
:104B1000804C418C0044C184818540450187C04759
:104B2000804641860182C042804341830041C18169
:104B30008180404010B5DFF8EC430220607286B0FF
:104B4000012000F096F84FF4807204F11C0104F18A
:104B50000C00FFF774FE68460FF2F8411422FDF7CF
:104B6000C7FE00216846FFF71AFC4FF48E70204400
:104B7000FFF7D9FD0FF2C43000F05DF806B010BDAC
:104B800070B50FF2D030DFF89C6300F054F818E0F5
:104B900000F06AFA04000AD000F031F885B2002073
:104BA00060552046FFF7D3FD204600F0E2FAB5F548
:104BB000807F04BF06F10C00FFF768FE0A20FFF7B4
:104BC00005FC06F10C00FFF75DFE85B2002DF5D067
:104BD000691E06F10C00FFF799FE0146681C0D29BD
:104BE00018BF0A29D4D07E29E1D100F03DFA040093
:104BF000DDD000F004F885B200206055D4E72A46E5
:104C0000214606F10C00FFF744BE0A460146DFF8D4
:104C10001403407A29E180B50A460146DFF80C0307
:104C2000FFF737FE80B202BD80B5DFF80003FFF763
:104C300029FE80B202BD0EB430B504464FF4807038
:104C400000F012FA05000CD003AB00F00DF8284676
:104C5000FDF7E4FD81B22846FFF7D7FF284600F0B4
:104C600088FA30BC5DF810FB22464FF4807101F0E9
:104C700039BF38B5AB4D297A8842044603D000F0DD
:104C80001FFB2C720BE031BD38B5A94D2978884245
:104C9000044603D000F014FB2C7000E031BDBDE8E9
:104CA000314000F026BB2DE9F04D01259D4EE8B2C4
:104CB00000F051FC5FEA000B66D0707A85420BF180
:104CC000010813D1404600F0CFF904005CD05A46E9
:104CD0002146E8B200F05BFC002004F80B005A46C5
:104CE0002146E8B200F055F820464BE0B17AE8B230
:104CF000884205D100F063FCC82828BF00242FD2C9
:104D0000E8B200F028FC8246BAF10B0F3CDBE8B2B7
:104D100000F055FCC82837D3002400E0641C54453B
:104D200032DAA1B2E8B200F025FC7328F6D1AAEB82
:104D300004000728F2DB0027391989B2E8B200F035
:104D400019FCF0557F1C062FF6DB0020B0713046B1
:104D50000FF21C2100F086FF0028DFD1002C13D4B5
:104D6000404600F081F907000ED05A463946E8B2B5
:104D700000F00DFC002007F80B003919E8B200F034
:104D800032F8384600F0F5F96D1C042D8FDBBDE8D4
:104D9000F08D70B5634E1546727A90420C460DD177
:104DA000307A18B129462046FFF72FFF2A462146C0
:104DB00006F10C00BDE87040FFF788BDBDE870400B
:104DC00011E038B504000DD0FDF728FD554D82B235
:104DD000687A2146FFF7DDFF687ABDE83840022295
:104DE0004DA1D6E731BD70B504460E4606220FF23E
:104DF00080114C4D304601F093FE002811D0A97A65
:104E00008C4231D13046FFF77DFC0FF2B8113046AD
:104E100000F028FFF8B96C7213220FF278111FE02E
:104E2000761C3078010018BF2028F9D130780100B5
:104E300003D0202808BF761CF8D03046FFF762FC6C
:104E40000FF27811304600F00DFF68B9AC721922EC
:104E50000FF2241104E00020A87213220FF248116F
:104E60002046BDE8704000E070BD0346084611468C
:104E70001A000CD0042B04DA0A460146184600F04A
:104E8000E7BA294A02EB830252F8102C1047704708
:104E900038B50C460FF2381154F8040F00F0E2FE5A
:104EA00080B965681DA100F045F808B9012003E04C
:104EB0001BA100F03FF808B9FFF7DBFE61680FF2B5
:104EC000181025E025680FF22C1100F033F838B9DE
:104ED0000FF22810FFF7AFFE12490220487231BDD1
:104EE0000FF2341100F026F818B96068BDE83240BE
:104EF00067E70FF22C1100F01DF860B96068FFF74A
:104F0000AFFB0446C0B2FFF7BFFE21460FF21C10F4
:104F1000BDE834408FE631BD0D0A00006F6E000021
:104F20006F6666000C000020544700201800002027
:104F3000F6100020284600F095BE00006C6F673E1A
:104F400020436F6E736F6C6520696E69742E0D0A55
:104F5000000000006C6F673E20436F6E736F6C65DE
:104F6000207461736B2073746172742E0D0A0000DB
:104F700073797374656D0000506C656173652069A9
:104F80006E707574207061737320776F72642E0D6C
:104F90000A000000436F6E736F6C65206C6F676969
:104FA0006E204F4B2E0D0A0050617373776F726441
:104FB000206572726F722E0D0A000000524F4F541E
:104FC000000000003132333435363738000000003D
:104FD0006563686F000000006C6F673E20436F6E72
:104FE000736F6C6520736574206563686F3A257311
:104FF0002E0D0A006C6F676F757400006C6F673E52
:1050000020434D4420706970652077696C6C207274
:10501000657365742E0D0A007669727475616C0093
:105020006C6F676C6576656C00000000776172726A
:10503000696E673E2053797374656D206C6F6720CD
:105040006C6576656C2073657420746F3A25642EE8
:105050000D0A0000B0D50008814B000800000000D8
:1050600000000000800000002DE9F041044600F03F
:1050700020FF674EB068002508BB06F1180306F153
:10508000180213F007034FF40051104605D0D01D4D
:10509000C008C000C0F50051511809180839C908E6
:1050A000C90030607560B1604D600D600A1A4260E1
:1050B000016040683061F0604FF0004070614FF077
:1050C0005008706904423FD1002C3DD0083414F0E0
:1050D000070F1FBF04F1080004F00701441A14F081
:1050E000070F00F03DF87CB3F068A0422CD337687E
:1050F000304601E038460F467968A14202D239684D
:105100000029F7D1B1688F421ED0016801F108056E
:10511000396801607868011B112908D3381910F02B
:10512000070200F01DF841607C6000F04EF87868DE
:10513000F1683269091AF160914238BF31617169D1
:10514000084378600020386000F0B9FE0DB901F026
:10515000FDFC15F0070000F003F82846BDE8F081DB
:1051600006D088F31188BFF34F8FBFF36F8FFEE730
:10517000704738B5F0B1A0F10804254D6068696941
:105180005022084202D100F016F8FEE7236813B15E
:1051900000F011F8FEE78843606000F08AFEE868DE
:1051A00061680818E860204600F00FF8BDE831405B
:1051B00000F085BE31BD82F31188BFF34F8FBFF37E
:1051C0006F8F70471248C068704730B510490A4663
:1051D00000E01A4613688342FBD35368D418844214
:1051E00003D14068C0185060104643681468C51861
:1051F000A54208D189688C4204D06168C918416011
:10520000246800E00C460460824218BF106030BD84
:10521000F8200020490810B54900A0F10C034FF018
:10522000807459609C600FF20D01196040F8202DC8
:10523000203810BD52494968502011F1010F06D0A5
:1052400080F31188BFF34F8FBFF36F8FFEE780F3BA
:105250001188BFF34F8FBFF36F8FFEE71CB549482E
:10526000474C01780191FF21017001788DF8001001
:105270009DF8001001F050012170072105E09DF814
:1052800000205200491E8DF800209DF800201206D3
:10529000F5D4090201F4E061A160019901703A4876
:1052A000016841F470010160016841F070410160E2
:1052B00000F072F80020606001F07DFC002016BD57
:1052C000502080F31188BFF34F8FBFF36F8F2C49AD
:1052D0004A68521C012A4A600AD12C490968090609
:1052E00006D080F31188BFF34F8FBFF36F8FFEE7B7
:1052F00070472348416839B9502080F31188BFF3C3
:105300004F8FBFF36F8FFEE7491E416004BF00203F
:1053100080F31188704780B5502080F31188BFF367
:105320004F8FBFF36F8F00F01BFE18B117494FF07E
:1053300080500860002080F3118801BDEFF30580E4
:10534000502110280E4A0BD3114B185C1378984249
:1053500006D281F31188BFF34F8FBFF36F8FFEE743
:1053600090680C4A126802F4E062904206D281F31F
:105370001188BFF34F8FBFF36F8FFEE770470000B8
:10538000FC0A002000E400E020ED00E004ED00E075
:10539000F0E300E00CED00E00549064809684FF431
:1053A0007A72B1FBF2F1491E41600721016070473A
:1053B0005C0F002010E000E001484068704700BF2B
:1053C000300B00202DE9F047DFF86C750446387883
:1053D0000D46924628B907F11C00FFF7A4F90120F9
:1053E0003870200032D0042C30DA5FEA0A002DD069
:1053F000AAF1010010EA0A0F28D15046FFF734FE47
:105400005FEA000922D0641EE4B2DFF8308508EBC1
:10541000840607EB8407356407F11000FEF7DDFF13
:10542000B0650121381DFFF711F8F0644FF0FF312E
:10543000FFF71FF808EB0410524649461030FFF7FB
:10544000FEF92868C16841F02001C160BDE8F0871D
:10545000F8B506460C4600203100154621D0042E32
:105460001FDAF4B12A001CD0DFF8D00400EB860765
:105470004FF0FF31786DFEF7B3FF761E032EF86B09
:105480002A46214602D801F05DFC01E001F037FC1C
:10549000B86C4FF0FF31FEF7ECFF786DFEF7BEFF02
:1054A0002846F2BD38B5144602000FD004280DDAA4
:1054B00061B122000AD0DFF8845405EB80004FF47C
:1054C000FA63C06B01F0C0FB204632BD002032BD44
:1054D0000CB4F8B50446002620000D461AD0042C62
:1054E00018DABDB14FF48070FFF7BEFD070011D090
:1054F00006AB2A464FF4807101F0F4FA3846FDF706
:105500008DF982B239462046FFF7A2FF064638469B
:10551000FFF72FFE3046F2BC5DF80CFB0CB410B563
:10552000044600202200C0B011D0042C0FDA71B163
:105530000A4642AB4FF48071684601F0D3FA6846E0
:10554000FDF76CF982B269462046FFF7ABFF40B029
:1055500010BC5DF80CFB014680B500200A0007D0A6
:10556000042905DADFF8D40300EB0110FFF78AF90C
:1055700080B202BD02460020130007D0042A05DADB
:10558000DFF8B80300EB0210FFF7C0B9704770B541
:1055900004460D460020210016460ED0042C0CDADD
:1055A0005DB1310009D000F079F8DFF890033246A0
:1055B000294600EB0410FFF76CF980B270BD10B5FE
:1055C00004460020210009D0042C07DAFFF7F4FE7E
:1055D000DFF8681301EB8401096E401A10BD020068
:1055E00000D1704710B5042814DAD44A02EB8004C5
:1055F000E06B426891420DD00268D36823F020032B
:10560000D360416001F0E8FAE06B0068C16841F0E6
:105610002001C16010BDF8B504460D46042CB8BF8A
:10562000042D1DDAFFF74CFEC54FC44E3C747D744B
:1056300044B1384606EB04111022FDF759F93846FB
:10564000FFF724F945B1304606EB05111022FDF7AE
:105650004FF93046FFF71AF9BDE8F140FFF749BEB0
:10566000F1BD38B50D460446042DB8BF042C14DA3C
:10567000FFF726FEB2488574C47455B1B14CAF49EA
:10568000204601EB05111022FDF732F92046FFF705
:10569000FDF8BDE83140FFF72CBE31BD2DE9F84FD4
:1056A00000250FF2B826DFF8948208EB051707F102
:1056B0001000FFF7E7F879696C1C80B2491C88423A
:1056C00004D1E0B2FFF77BFF64280BD207F1100092
:1056D000FFF7D8F870B1E0B2FFF771FF41F28831FF
:1056E000884207D307F11000FFF7D0F8691C304655
:1056F000FFF7A1FA6D1C032DD7DBDFF84892904F1E
:10570000002500E065B9B87C01001CBFFE7C002EBE
:1057100012D008EB00104C46C068C9F80C0017E026
:10572000012D09D1387C010006D008EB00103C4661
:10573000C068F8607E7C0BE0022D25D1787C0100EA
:1057400022D008EB00104446C068C8F80C003E7C2C
:10575000D4B12046FFF796F81FFA80FABAF1000F8D
:1057600012D05046FFF780FC5FEA000B0CD0524687
:1057700059462046FFF78DF882B259463046FFF76A
:1057800067FE5846FFF7F5FC6D1C042DBADBBDE83B
:10579000F18F2DE9F0418046684D05EB880682B017
:1057A000F46BE4B120680168890602D5C1688906F6
:1057B00002D40168090712D54768FFF7FDFD30667E
:1057C000F9B205EB0810FFF74AF8002000902068B6
:1057D00001680091406800900098012000E00020DE
:1057E000BDE8F6810021554A02EB81031B6C98420B
:1057F00002D0491C0329F7DB032906DA02EB8100FA
:10580000C06C002818BFFEF76CBE70472DE9F84F3A
:1058100004460F460FF294180FF26C190FF2141A87
:1058200015E00FF22C2100F096F870B900F090F816
:1058300000F08AF80646F1B2E8B2FFF712FF3246EE
:1058400029460FF21420FFF7F6F93F1D641E012CC4
:105850006DDB3D68002D6AD0514600F07CF870B9D0
:1058600000F076F800F070F80646324629464846C1
:10587000FFF7E1F93146E8B2FFF7B1FEE5E741464F
:1058800000F069F880B900F063F80546B868FEF7E3
:10589000DFFE0646B968B2B2E8B2FFF7D9FD32467C
:1058A00029460FF21010CEE70FF22C1100F053F83A
:1058B00048BB00F04DF80546C0B2FFF74CFE0600AD
:1058C0001BD0FFF7D1FB5FEA000BBED03246594632
:1058D000E8B2FFF75CFE324629460FF20410FFF7EC
:1058E000AAF931465846FFF790F90FF21010FFF76A
:1058F000A2F95846FFF73DFCA7E729460FF20C1026
:10590000FFF799F9A1E70FF21C1100F024F8002825
:1059100087D100F01DF800F017F80646F1B2E8B2A2
:10592000FFF779FE324629460FF200108BE7BDE8FB
:10593000F18F000062647200600F0020D0440020EC
:105940008C470020B04700200546B868FEF788BEA7
:105950007868FEF785BE284600F084B977617272D8
:10596000696E673E20554152542575207265636506
:10597000697665206669666F206F766572666C6F02
:10598000772E0D0A000000006C6F673E20554152D3
:105990005425642062617564726174652063686176
:1059A0006E6720746F2025642E0D0A0073656E6487
:1059B000000000006C6F673E205541525425642062
:1059C00073656E642064617461206C656E677468D1
:1059D0003A25640D0A000000726561640000000051
:1059E0006C6F673E20554152542564207265616496
:1059F0002073697A653A25640D0A00006C6F673E72
:105A00002020203C656E642E0D0A00006C6F673EFE
:105A100020554152542564206E6F20646174612EBC
:105A20000D0A000072656D61700000006C6F673ECA
:105A3000205541525425642072656D617070696E05
:105A40006720746F205541525425642E0D0A0000C2
:105A50006D6F6E69746F72006C6F673E20554152B6
:105A6000542564206D6F6E69746F722055415254D5
:105A70002564207265636569766520646174612EB2
:105A80000D0A000070B50C462578290006D170BDBE
:105A900011F8013F1678B34206D0401C2946FCF7A6
:105AA000B1FE28B10146224612F8013F002BEFD18A
:105AB00070BD00002DE9F8474FF0000E00225C4B4E
:105AC000DFF87081DFF870914FF00F0A012707FAB5
:105AD00002F60F683740B74240F0A0804C685CB3D4
